{
  "transactions": [
    {
      "hash": "0xbe68c6673a5210c1c87706cc16e44917cbec0d99bd58ecd912be06aee224d109",
      "transactionType": "CALL",
      "contractName": null,
      "contractAddress": "0x19d4b337b77b04256668679159e0b78a42fb0a1a",
      "function": "mint(uint256)",
      "arguments": [
        "33876725000000000000000"
      ],
      "transaction": {
        "from": "0x3e88e60894d081b27d180fcadd524365a3de7dd4",
        "to": "0x19d4b337b77b04256668679159e0b78a42fb0a1a",
        "gas": "0x77d44",
        "value": "0x0",
        "input": "0xa0712d6800000000000000000000000000000000000000000000072c76004ceb22f88000",
        "nonce": "0x58",
        "chainId": "0xa4b1"
      },
      "additionalContracts": [],
      "isFixedGasLimit": false
    },
    {
      "hash": "0x5c7bf78a7c0a73b9f52780660e0b64bde3a0cb864c3a7ad41abffe89a96545a4",
      "transactionType": "CALL",
      "contractName": null,
      "contractAddress": "0x19d4b337b77b04256668679159e0b78a42fb0a1a",
      "function": "approve(address,uint256)",
      "arguments": [
        "0x0Cea072f4490fAA57fcA58AA9339D4B71210bcd4",
        "33876725000000000000000"
      ],
      "transaction": {
        "from": "0x3e88e60894d081b27d180fcadd524365a3de7dd4",
        "to": "0x19d4b337b77b04256668679159e0b78a42fb0a1a",
        "gas": "0x86c80",
        "value": "0x0",
        "input": "0x095ea7b30000000000000000000000000cea072f4490faa57fca58aa9339d4b71210bcd400000000000000000000000000000000000000000000072c76004ceb22f88000",
        "nonce": "0x59",
        "chainId": "0xa4b1"
      },
      "additionalContracts": [],
      "isFixedGasLimit": false
    },
    {
      "hash": "0x6737f97dbe4b438c21060c0d694f92981e2789320540d319069d1895b7f50eb3",
      "transactionType": "CALL",
      "contractName": null,
      "contractAddress": "0x0cea072f4490faa57fca58aa9339d4b71210bcd4",
      "function": "stakeForMany(address[],uint128[],bool)",
      "arguments": [
        "[0x82368563257B056Ae3d5eB9434C8AA4E0FA3526E, 0xE5ce4Cf297919e96aDf2D32B05a93C42A36013Bd, 0x1bDb97985913D699B0FBd1aAcF96d1F855d9E1d0, 0xEc5397A61bd8dE1B0aB8719a9e897eEc67BAD5C2, 0xEBcC98573c3cd9b5B61900D1304DA938B5036a0d, 0x67a5A9E9a0A6cfb6a73442b9811B141EA875D3B7, 0xCc4D262A477e8D1dF5A85B00b230376697F774bD, 0x81542000E115f4632e6dD41f0D0e1c1AC777F9e9, 0xe8989b32996CB079823BC43c6D0D160aAf30CB7d, 0x6e043E68F0d67b2fDcBaF50b14bA50c94A83578C, 0xFaf790Ff539471763Da851d63AD1A47D0F95f2A6, 0x439bE9BE6f5009577503BfEE25367a5fd36d76dF, 0xaf5Ae7CdAff6f1f457bc88F0989c0AF7f583Ab43, 0xA32851095944385b930713885f2af518e0b7e45C, 0x28f0ee52A63d57f494D7968DBcf66156AfAEf3de, 0x35434690bd439c8936e94B148246AE208Dfc9851, 0x03Cbd99F5A7c39c7499273AbB8363b0372cc7930, 0xD4d3E342902766344075D06c94391e61A9bB7e60, 0x8B376f5e02090499c2c4fBd900E1bC18EF4961d4, 0x3f6A905FF080c3e0A6307af4CFe9842ad87EBCeB, 0x0d81aCc4a7F0b48874147EF7073EBC1bB3D2A7Af, 0xfb59b257aF5518787E32D8DD1a8cf0DE13393385, 0xD42cf8d4f72a6b26e13EFe43A198aaF05CB835ae, 0x3e03B0593E125666Ba4B7479186b20FbD4146dF3, 0x6501B7A416ed4d861129A4B2EFa90B364d4E776C, 0x9a3b020A09a5eE27Ce172336Ae406DC01E4950Bf, 0xa9E94416Aa43913c8E779Cf356bC0C6a250EA6Bf, 0x3Dac0bDdfa0F9b3d86031A0bfbf7804030AB83b2, 0x061Bc6f643038E4d6561aF4EBbc0B127cc5316cF, 0xc3D5CdC556Bf7A012039194a5575486c212164a9, 0x46BA2EbDE072bEa26fA4b54eEc6b6C39b5FEc10e, 0xFb2afe0bA538f839D093197C1c324AB3Bc73d53f, 0x6405f47Be0D616E7f59749cdAF8e8b180CaA18cB, 0x3BD358b35b6Ff3cADf01Ac118b3d21Ee62E56C0C, 0xEeE9Ef09B9D9dE0B8aA47A781bA7aCF87818C05f, 0x12f6471bF62193467e0985CAD1747d077dfc0723]",
        "[16186000000000000000000, 10062500000000000000000, 4915000000000000000000, 710000000000000000000, 626562500000000000000, 440000000000000000000, 244000000000000000000, 200000000000000000000, 105000000000000000000, 100000000000000000000, 50000000000000000000, 49000000000000000000, 31250000000000000000, 30000000000000000000, 25400000000000000000, 25000000000000000000, 12500000000000000000, 12125000000000000000, 10000000000000000000, 8000000000000000000, 5000000000000000000, 5000000000000000000, 3750000000000000000, 3650000000000000000, 2500000000000000000, 2000000000000000000, 2000000000000000000, 1487500000000000000, 1250000000000000000, 1250000000000000000, 1250000000000000000, 1250000000000000000, 1000000000000000000, 1000000000000000000, 1000000000000000000, 1000000000000000000]",
        "true"
      ],
      "transaction": {
        "from": "0x3e88e60894d081b27d180fcadd524365a3de7dd4",
        "to": "0x0cea072f4490faa57fca58aa9339d4b71210bcd4",
        "gas": "0x628cd3",
        "value": "0x0",
        "input": "0xf815f3e2000000000000000000000000000000000000000000000000000000000000006000000000000000000000000000000000000000000000000000000000000005000000000000000000000000000000000000000000000000000000000000000001000000000000000000000000000000000000000000000000000000000000002400000000000000000000000082368563257b056ae3d5eb9434c8aa4e0fa3526e000000000000000000000000e5ce4cf297919e96adf2d32b05a93c42a36013bd0000000000000000000000001bdb97985913d699b0fbd1aacf96d1f855d9e1d0000000000000000000000000ec5397a61bd8de1b0ab8719a9e897eec67bad5c2000000000000000000000000ebcc98573c3cd9b5b61900d1304da938b5036a0d00000000000000000000000067a5a9e9a0a6cfb6a73442b9811b141ea875d3b7000000000000000000000000cc4d262a477e8d1df5a85b00b230376697f774bd00000000000000000000000081542000e115f4632e6dd41f0d0e1c1ac777f9e9000000000000000000000000e8989b32996cb079823bc43c6d0d160aaf30cb7d0000000000000000000000006e043e68f0d67b2fdcbaf50b14ba50c94a83578c000000000000000000000000faf790ff539471763da851d63ad1a47d0f95f2a6000000000000000000000000439be9be6f5009577503bfee25367a5fd36d76df000000000000000000000000af5ae7cdaff6f1f457bc88f0989c0af7f583ab43000000000000000000000000a32851095944385b930713885f2af518e0b7e45c00000000000000000000000028f0ee52a63d57f494d7968dbcf66156afaef3de00000000000000000000000035434690bd439c8936e94b148246ae208dfc985100000000000000000000000003cbd99f5a7c39c7499273abb8363b0372cc7930000000000000000000000000d4d3e342902766344075d06c94391e61a9bb7e600000000000000000000000008b376f5e02090499c2c4fbd900e1bc18ef4961d40000000000000000000000003f6a905ff080c3e0a6307af4cfe9842ad87ebceb0000000000000000000000000d81acc4a7f0b48874147ef7073ebc1bb3d2a7af000000000000000000000000fb59b257af5518787e32d8dd1a8cf0de13393385000000000000000000000000d42cf8d4f72a6b26e13efe43a198aaf05cb835ae0000000000000000000000003e03b0593e125666ba4b7479186b20fbd4146df30000000000000000000000006501b7a416ed4d861129a4b2efa90b364d4e776c0000000000000000000000009a3b020a09a5ee27ce172336ae406dc01e4950bf000000000000000000000000a9e94416aa43913c8e779cf356bc0c6a250ea6bf0000000000000000000000003dac0bddfa0f9b3d86031a0bfbf7804030ab83b2000000000000000000000000061bc6f643038e4d6561af4ebbc0b127cc5316cf000000000000000000000000c3d5cdc556bf7a012039194a5575486c212164a900000000000000000000000046ba2ebde072bea26fa4b54eec6b6c39b5fec10e000000000000000000000000fb2afe0ba538f839d093197c1c324ab3bc73d53f0000000000000000000000006405f47be0d616e7f59749cdaf8e8b180caa18cb0000000000000000000000003bd358b35b6ff3cadf01ac118b3d21ee62e56c0c000000000000000000000000eee9ef09b9d9de0b8aa47a781ba7acf87818c05f00000000000000000000000012f6471bf62193467e0985cad1747d077dfc0723000000000000000000000000000000000000000000000000000000000000002400000000000000000000000000000000000000000000036d71df9ae588a800000000000000000000000000000000000000000000000002217d3d6497102a000000000000000000000000000000000000000000000000010a7153bb36c4ec00000000000000000000000000000000000000000000000000267d3ab6423f580000000000000000000000000000000000000000000000000021f74d2a1460b04000000000000000000000000000000000000000000000000017da3a04c7b3e0000000000000000000000000000000000000000000000000000d3a2e233b8b50000000000000000000000000000000000000000000000000000ad78ebc5ac6200000000000000000000000000000000000000000000000000005b12aefafa80400000000000000000000000000000000000000000000000000056bc75e2d63100000000000000000000000000000000000000000000000000002b5e3af16b1880000000000000000000000000000000000000000000000000002a802f8630a240000000000000000000000000000000000000000000000000001b1ae4d6e2ef50000000000000000000000000000000000000000000000000001a055690d9db80000000000000000000000000000000000000000000000000001607eed6cceec00000000000000000000000000000000000000000000000000015af1d78b58c40000000000000000000000000000000000000000000000000000ad78ebc5ac620000000000000000000000000000000000000000000000000000a844a7424d9c80000000000000000000000000000000000000000000000000008ac7230489e800000000000000000000000000000000000000000000000000006f05b59d3b2000000000000000000000000000000000000000000000000000004563918244f400000000000000000000000000000000000000000000000000004563918244f40000000000000000000000000000000000000000000000000000340aad21b3b7000000000000000000000000000000000000000000000000000032a767a9562d000000000000000000000000000000000000000000000000000022b1c8c1227a00000000000000000000000000000000000000000000000000001bc16d674ec800000000000000000000000000000000000000000000000000001bc16d674ec8000000000000000000000000000000000000000000000000000014a4a95e6f64c0000000000000000000000000000000000000000000000000001158e460913d00000000000000000000000000000000000000000000000000001158e460913d00000000000000000000000000000000000000000000000000001158e460913d00000000000000000000000000000000000000000000000000001158e460913d00000000000000000000000000000000000000000000000000000de0b6b3a76400000000000000000000000000000000000000000000000000000de0b6b3a76400000000000000000000000000000000000000000000000000000de0b6b3a76400000000000000000000000000000000000000000000000000000de0b6b3a7640000",
        "nonce": "0x5a",
        "chainId": "0xa4b1"
      },
      "additionalContracts": [],
      "isFixedGasLimit": false
    }
  ],
  "receipts": [
    {
      "status": "0x1",
      "cumulativeGasUsed": "0x3c4c00",
      "logs": [
        {
          "address": "0x19d4b337b77b04256668679159e0b78a42fb0a1a",
          "topics": [
            "0xddf252ad1be2c89b69c2b068fc378daa952ba7f163c4a11628f55a4df523b3ef",
            "0x0000000000000000000000000000000000000000000000000000000000000000",
            "0x0000000000000000000000003e88e60894d081b27d180fcadd524365a3de7dd4"
          ],
          "data": "0x00000000000000000000000000000000000000000000072c76004ceb22f88000",
          "blockHash": "0xb741a645536f54cd85f701396a8d5afab7a2869e6d7e69d224f4e9623026ea5a",
          "blockNumber": "0x11df978e",
          "transactionHash": "0xbe68c6673a5210c1c87706cc16e44917cbec0d99bd58ecd912be06aee224d109",
          "transactionIndex": "0xa",
          "logIndex": "0x15",
          "removed": false
        }
      ],
      "logsBloom": "0x00000000000000000000000000000000000000000000020000000000000008000000000000000000000000200000000000000000000000000000000000000000000000000000000000000008000000000000000000000000000000000000000000000000020000000000000000000800000000000000000000000010000000000000000000000000000000000000000000000000000000000000000000000010000000000000000000000000000000000000400100000000000000000000000000000002000000000000000000000000000000000000000000000000000020000000000000000000000000000000000000000000000000000000000000000000",
      "type": "0x2",
      "transactionHash": "0xbe68c6673a5210c1c87706cc16e44917cbec0d99bd58ecd912be06aee224d109",
      "transactionIndex": "0xa",
      "blockHash": "0xb741a645536f54cd85f701396a8d5afab7a2869e6d7e69d224f4e9623026ea5a",
      "blockNumber": "0x11df978e",
      "gasUsed": "0x46d0c",
      "effectiveGasPrice": "0x989680",
      "from": "0x3e88e60894d081b27d180fcadd524365a3de7dd4",
      "to": "0x19d4b337b77b04256668679159e0b78a42fb0a1a",
      "contractAddress": null,
      "gasUsedForL1": "0x399e9",
      "l1BlockNumber": "0x14b5fe2"
    },
    {
      "status": "0x1",
      "cumulativeGasUsed": "0x48c27f",
      "logs": [
        {
          "address": "0x19d4b337b77b04256668679159e0b78a42fb0a1a",
          "topics": [
            "0x8c5be1e5ebec7d5bd14f71427d1e84f3dd0314c0f7b2291e5b200ac8c7c3b925",
            "0x0000000000000000000000003e88e60894d081b27d180fcadd524365a3de7dd4",
            "0x0000000000000000000000000cea072f4490faa57fca58aa9339d4b71210bcd4"
          ],
          "data": "0x00000000000000000000000000000000000000000000072c76004ceb22f88000",
          "blockHash": "0x62b17d8e8dd307041bece04fa783cebe90436d76e3849ef4d992de2a62a5f407",
          "blockNumber": "0x11df9795",
          "transactionHash": "0x5c7bf78a7c0a73b9f52780660e0b64bde3a0cb864c3a7ad41abffe89a96545a4",
          "transactionIndex": "0x9",
          "logIndex": "0x14",
          "removed": false
        }
      ],
      "logsBloom": "0x00000000000000000000000000000000000000000000020000000040000008000000000000000000000000200000000000000000000000000000000000200000000000000000000000000000000000000000000000000000000000000000000000000000000000000000000000000000000000000000000000000000000000000000000000000000040000000000000000000000000000000000000000000010020000000000000000000000000000000000400100000000000000000008000000000000000000000000000000000000000000000000000000000000000000000010000000000000000000000000000000000000000000000000000000000000",
      "type": "0x2",
      "transactionHash": "0x5c7bf78a7c0a73b9f52780660e0b64bde3a0cb864c3a7ad41abffe89a96545a4",
      "transactionIndex": "0x9",
      "blockHash": "0x62b17d8e8dd307041bece04fa783cebe90436d76e3849ef4d992de2a62a5f407",
      "blockNumber": "0x11df9795",
      "gasUsed": "0x51cd2",
      "effectiveGasPrice": "0x989680",
      "from": "0x3e88e60894d081b27d180fcadd524365a3de7dd4",
      "to": "0x19d4b337b77b04256668679159e0b78a42fb0a1a",
      "contractAddress": null,
      "gasUsedForL1": "0x46779",
      "l1BlockNumber": "0x14b5fe2"
    },
    {
      "status": "0x1",
      "cumulativeGasUsed": "0x97614c",
      "logs": [
        {
          "address": "0x19d4b337b77b04256668679159e0b78a42fb0a1a",
          "topics": [
            "0xddf252ad1be2c89b69c2b068fc378daa952ba7f163c4a11628f55a4df523b3ef",
            "0x0000000000000000000000003e88e60894d081b27d180fcadd524365a3de7dd4",
            "0x0000000000000000000000000cea072f4490faa57fca58aa9339d4b71210bcd4"
          ],
          "data": "0x00000000000000000000000000000000000000000000036d71df9ae588a80000",
          "blockHash": "0xe9434879ca31b3f3c43eef4d6f0ab45ec581d032f97867367c9089b3e89ef5b4",
          "blockNumber": "0x11df979e",
          "transactionHash": "0x6737f97dbe4b438c21060c0d694f92981e2789320540d319069d1895b7f50eb3",
          "transactionIndex": "0x7",
          "logIndex": "0x3",
          "removed": false
        },
        {
          "address": "0x0cea072f4490faa57fca58aa9339d4b71210bcd4",
          "topics": [
            "0xddf252ad1be2c89b69c2b068fc378daa952ba7f163c4a11628f55a4df523b3ef",
            "0x0000000000000000000000000000000000000000000000000000000000000000",
            "0x00000000000000000000000083834a1d647e84402e76dd542ad95103ae6bf478"
          ],
          "data": "0x00000000000000000000000000000000000000000000036d71df9ae588a80000",
          "blockHash": "0xe9434879ca31b3f3c43eef4d6f0ab45ec581d032f97867367c9089b3e89ef5b4",
          "blockNumber": "0x11df979e",
          "transactionHash": "0x6737f97dbe4b438c21060c0d694f92981e2789320540d319069d1895b7f50eb3",
          "transactionIndex": "0x7",
          "logIndex": "0x4",
          "removed": false
        },
        {
          "address": "0x83834a1d647e84402e76dd542ad95103ae6bf478",
          "topics": [
            "0x0ba848deafd25d212eb636f60dd87bf55ab0fd85c23e43a1ec8b4fc01e3bfc85",
            "0x00000000000000000000000082368563257b056ae3d5eb9434c8aa4e0fa3526e",
            "0x00000000000000000000000000000000000000000000036d71df9ae588a80000"
          ],
          "data": "0x",
          "blockHash": "0xe9434879ca31b3f3c43eef4d6f0ab45ec581d032f97867367c9089b3e89ef5b4",
          "blockNumber": "0x11df979e",
          "transactionHash": "0x6737f97dbe4b438c21060c0d694f92981e2789320540d319069d1895b7f50eb3",
          "transactionIndex": "0x7",
          "logIndex": "0x5",
          "removed": false
        },
        {
          "address": "0x1fd3964089c4e3e9ec0cdd32d8a41005cf5e133c",
          "topics": [
            "0x51163a5fd2826e69ff9354aa4104e8882a895188adabe2cc25515372bfd9be88",
            "0x00000000000000000000000082368563257b056ae3d5eb9434c8aa4e0fa3526e"
          ],
          "data": "0x4da305c100000000000000000000000000000000000000000000000000000000",
          "blockHash": "0xe9434879ca31b3f3c43eef4d6f0ab45ec581d032f97867367c9089b3e89ef5b4",
          "blockNumber": "0x11df979e",
          "transactionHash": "0x6737f97dbe4b438c21060c0d694f92981e2789320540d319069d1895b7f50eb3",
          "transactionIndex": "0x7",
          "logIndex": "0x6",
          "removed": false
        },
        {
          "address": "0x0cea072f4490faa57fca58aa9339d4b71210bcd4",
          "topics": [
            "0x2eefbcc6809174727cb788be082c392be6c822829c56ab5eb44d528e9d9f37f9",
            "0x00000000000000000000000082368563257b056ae3d5eb9434c8aa4e0fa3526e",
            "0x00000000000000000000000000000000000000000000036d71df9ae588a80000"
          ],
          "data": "0x",
          "blockHash": "0xe9434879ca31b3f3c43eef4d6f0ab45ec581d032f97867367c9089b3e89ef5b4",
          "blockNumber": "0x11df979e",
          "transactionHash": "0x6737f97dbe4b438c21060c0d694f92981e2789320540d319069d1895b7f50eb3",
          "transactionIndex": "0x7",
          "logIndex": "0x7",
          "removed": false
        },
        {
          "address": "0x19d4b337b77b04256668679159e0b78a42fb0a1a",
          "topics": [
            "0xddf252ad1be2c89b69c2b068fc378daa952ba7f163c4a11628f55a4df523b3ef",
            "0x0000000000000000000000003e88e60894d081b27d180fcadd524365a3de7dd4",
            "0x0000000000000000000000000cea072f4490faa57fca58aa9339d4b71210bcd4"
          ],
          "data": "0x0000000000000000000000000000000000000000000002217d3d6497102a0000",
          "blockHash": "0xe9434879ca31b3f3c43eef4d6f0ab45ec581d032f97867367c9089b3e89ef5b4",
          "blockNumber": "0x11df979e",
          "transactionHash": "0x6737f97dbe4b438c21060c0d694f92981e2789320540d319069d1895b7f50eb3",
          "transactionIndex": "0x7",
          "logIndex": "0x8",
          "removed": false
        },
        {
          "address": "0x0cea072f4490faa57fca58aa9339d4b71210bcd4",
          "topics": [
            "0xddf252ad1be2c89b69c2b068fc378daa952ba7f163c4a11628f55a4df523b3ef",
            "0x0000000000000000000000000000000000000000000000000000000000000000",
            "0x00000000000000000000000083834a1d647e84402e76dd542ad95103ae6bf478"
          ],
          "data": "0x0000000000000000000000000000000000000000000002217d3d6497102a0000",
          "blockHash": "0xe9434879ca31b3f3c43eef4d6f0ab45ec581d032f97867367c9089b3e89ef5b4",
          "blockNumber": "0x11df979e",
          "transactionHash": "0x6737f97dbe4b438c21060c0d694f92981e2789320540d319069d1895b7f50eb3",
          "transactionIndex": "0x7",
          "logIndex": "0x9",
          "removed": false
        },
        {
          "address": "0x83834a1d647e84402e76dd542ad95103ae6bf478",
          "topics": [
            "0x0ba848deafd25d212eb636f60dd87bf55ab0fd85c23e43a1ec8b4fc01e3bfc85",
            "0x000000000000000000000000e5ce4cf297919e96adf2d32b05a93c42a36013bd",
            "0x0000000000000000000000000000000000000000000002217d3d6497102a0000"
          ],
          "data": "0x",
          "blockHash": "0xe9434879ca31b3f3c43eef4d6f0ab45ec581d032f97867367c9089b3e89ef5b4",
          "blockNumber": "0x11df979e",
          "transactionHash": "0x6737f97dbe4b438c21060c0d694f92981e2789320540d319069d1895b7f50eb3",
          "transactionIndex": "0x7",
          "logIndex": "0xa",
          "removed": false
        },
        {
          "address": "0x1fd3964089c4e3e9ec0cdd32d8a41005cf5e133c",
          "topics": [
            "0x51163a5fd2826e69ff9354aa4104e8882a895188adabe2cc25515372bfd9be88",
            "0x000000000000000000000000e5ce4cf297919e96adf2d32b05a93c42a36013bd"
          ],
          "data": "0x4da305c100000000000000000000000000000000000000000000000000000000",
          "blockHash": "0xe9434879ca31b3f3c43eef4d6f0ab45ec581d032f97867367c9089b3e89ef5b4",
          "blockNumber": "0x11df979e",
          "transactionHash": "0x6737f97dbe4b438c21060c0d694f92981e2789320540d319069d1895b7f50eb3",
          "transactionIndex": "0x7",
          "logIndex": "0xb",
          "removed": false
        },
        {
          "address": "0x0cea072f4490faa57fca58aa9339d4b71210bcd4",
          "topics": [
            "0x2eefbcc6809174727cb788be082c392be6c822829c56ab5eb44d528e9d9f37f9",
            "0x000000000000000000000000e5ce4cf297919e96adf2d32b05a93c42a36013bd",
            "0x0000000000000000000000000000000000000000000002217d3d6497102a0000"
          ],
          "data": "0x",
          "blockHash": "0xe9434879ca31b3f3c43eef4d6f0ab45ec581d032f97867367c9089b3e89ef5b4",
          "blockNumber": "0x11df979e",
          "transactionHash": "0x6737f97dbe4b438c21060c0d694f92981e2789320540d319069d1895b7f50eb3",
          "transactionIndex": "0x7",
          "logIndex": "0xc",
          "removed": false
        },
        {
          "address": "0x19d4b337b77b04256668679159e0b78a42fb0a1a",
          "topics": [
            "0xddf252ad1be2c89b69c2b068fc378daa952ba7f163c4a11628f55a4df523b3ef",
            "0x0000000000000000000000003e88e60894d081b27d180fcadd524365a3de7dd4",
            "0x0000000000000000000000000cea072f4490faa57fca58aa9339d4b71210bcd4"
          ],
          "data": "0x00000000000000000000000000000000000000000000010a7153bb36c4ec0000",
          "blockHash": "0xe9434879ca31b3f3c43eef4d6f0ab45ec581d032f97867367c9089b3e89ef5b4",
          "blockNumber": "0x11df979e",
          "transactionHash": "0x6737f97dbe4b438c21060c0d694f92981e2789320540d319069d1895b7f50eb3",
          "transactionIndex": "0x7",
          "logIndex": "0xd",
          "removed": false
        },
        {
          "address": "0x0cea072f4490faa57fca58aa9339d4b71210bcd4",
          "topics": [
            "0xddf252ad1be2c89b69c2b068fc378daa952ba7f163c4a11628f55a4df523b3ef",
            "0x0000000000000000000000000000000000000000000000000000000000000000",
            "0x00000000000000000000000083834a1d647e84402e76dd542ad95103ae6bf478"
          ],
          "data": "0x00000000000000000000000000000000000000000000010a7153bb36c4ec0000",
          "blockHash": "0xe9434879ca31b3f3c43eef4d6f0ab45ec581d032f97867367c9089b3e89ef5b4",
          "blockNumber": "0x11df979e",
          "transactionHash": "0x6737f97dbe4b438c21060c0d694f92981e2789320540d319069d1895b7f50eb3",
          "transactionIndex": "0x7",
          "logIndex": "0xe",
          "removed": false
        },
        {
          "address": "0x83834a1d647e84402e76dd542ad95103ae6bf478",
          "topics": [
            "0x0ba848deafd25d212eb636f60dd87bf55ab0fd85c23e43a1ec8b4fc01e3bfc85",
            "0x0000000000000000000000001bdb97985913d699b0fbd1aacf96d1f855d9e1d0",
            "0x00000000000000000000000000000000000000000000010a7153bb36c4ec0000"
          ],
          "data": "0x",
          "blockHash": "0xe9434879ca31b3f3c43eef4d6f0ab45ec581d032f97867367c9089b3e89ef5b4",
          "blockNumber": "0x11df979e",
          "transactionHash": "0x6737f97dbe4b438c21060c0d694f92981e2789320540d319069d1895b7f50eb3",
          "transactionIndex": "0x7",
          "logIndex": "0xf",
          "removed": false
        },
        {
          "address": "0x1fd3964089c4e3e9ec0cdd32d8a41005cf5e133c",
          "topics": [
            "0x51163a5fd2826e69ff9354aa4104e8882a895188adabe2cc25515372bfd9be88",
            "0x0000000000000000000000001bdb97985913d699b0fbd1aacf96d1f855d9e1d0"
          ],
          "data": "0x4da305c100000000000000000000000000000000000000000000000000000000",
          "blockHash": "0xe9434879ca31b3f3c43eef4d6f0ab45ec581d032f97867367c9089b3e89ef5b4",
          "blockNumber": "0x11df979e",
          "transactionHash": "0x6737f97dbe4b438c21060c0d694f92981e2789320540d319069d1895b7f50eb3",
          "transactionIndex": "0x7",
          "logIndex": "0x10",
          "removed": false
        },
        {
          "address": "0x0cea072f4490faa57fca58aa9339d4b71210bcd4",
          "topics": [
            "0x2eefbcc6809174727cb788be082c392be6c822829c56ab5eb44d528e9d9f37f9",
            "0x0000000000000000000000001bdb97985913d699b0fbd1aacf96d1f855d9e1d0",
            "0x00000000000000000000000000000000000000000000010a7153bb36c4ec0000"
          ],
          "data": "0x",
          "blockHash": "0xe9434879ca31b3f3c43eef4d6f0ab45ec581d032f97867367c9089b3e89ef5b4",
          "blockNumber": "0x11df979e",
          "transactionHash": "0x6737f97dbe4b438c21060c0d694f92981e2789320540d319069d1895b7f50eb3",
          "transactionIndex": "0x7",
          "logIndex": "0x11",
          "removed": false
        },
        {
          "address": "0x19d4b337b77b04256668679159e0b78a42fb0a1a",
          "topics": [
            "0xddf252ad1be2c89b69c2b068fc378daa952ba7f163c4a11628f55a4df523b3ef",
            "0x0000000000000000000000003e88e60894d081b27d180fcadd524365a3de7dd4",
            "0x0000000000000000000000000cea072f4490faa57fca58aa9339d4b71210bcd4"
          ],
          "data": "0x0000000000000000000000000000000000000000000000267d3ab6423f580000",
          "blockHash": "0xe9434879ca31b3f3c43eef4d6f0ab45ec581d032f97867367c9089b3e89ef5b4",
          "blockNumber": "0x11df979e",
          "transactionHash": "0x6737f97dbe4b438c21060c0d694f92981e2789320540d319069d1895b7f50eb3",
          "transactionIndex": "0x7",
          "logIndex": "0x12",
          "removed": false
        },
        {
          "address": "0x0cea072f4490faa57fca58aa9339d4b71210bcd4",
          "topics": [
            "0xddf252ad1be2c89b69c2b068fc378daa952ba7f163c4a11628f55a4df523b3ef",
            "0x0000000000000000000000000000000000000000000000000000000000000000",
            "0x00000000000000000000000083834a1d647e84402e76dd542ad95103ae6bf478"
          ],
          "data": "0x0000000000000000000000000000000000000000000000267d3ab6423f580000",
          "blockHash": "0xe9434879ca31b3f3c43eef4d6f0ab45ec581d032f97867367c9089b3e89ef5b4",
          "blockNumber": "0x11df979e",
          "transactionHash": "0x6737f97dbe4b438c21060c0d694f92981e2789320540d319069d1895b7f50eb3",
          "transactionIndex": "0x7",
          "logIndex": "0x13",
          "removed": false
        },
        {
          "address": "0x83834a1d647e84402e76dd542ad95103ae6bf478",
          "topics": [
            "0x0ba848deafd25d212eb636f60dd87bf55ab0fd85c23e43a1ec8b4fc01e3bfc85",
            "0x000000000000000000000000ec5397a61bd8de1b0ab8719a9e897eec67bad5c2",
            "0x0000000000000000000000000000000000000000000000267d3ab6423f580000"
          ],
          "data": "0x",
          "blockHash": "0xe9434879ca31b3f3c43eef4d6f0ab45ec581d032f97867367c9089b3e89ef5b4",
          "blockNumber": "0x11df979e",
          "transactionHash": "0x6737f97dbe4b438c21060c0d694f92981e2789320540d319069d1895b7f50eb3",
          "transactionIndex": "0x7",
          "logIndex": "0x14",
          "removed": false
        },
        {
          "address": "0x1fd3964089c4e3e9ec0cdd32d8a41005cf5e133c",
          "topics": [
            "0x51163a5fd2826e69ff9354aa4104e8882a895188adabe2cc25515372bfd9be88",
            "0x000000000000000000000000ec5397a61bd8de1b0ab8719a9e897eec67bad5c2"
          ],
          "data": "0x4da305c100000000000000000000000000000000000000000000000000000000",
          "blockHash": "0xe9434879ca31b3f3c43eef4d6f0ab45ec581d032f97867367c9089b3e89ef5b4",
          "blockNumber": "0x11df979e",
          "transactionHash": "0x6737f97dbe4b438c21060c0d694f92981e2789320540d319069d1895b7f50eb3",
          "transactionIndex": "0x7",
          "logIndex": "0x15",
          "removed": false
        },
        {
          "address": "0x0cea072f4490faa57fca58aa9339d4b71210bcd4",
          "topics": [
            "0x2eefbcc6809174727cb788be082c392be6c822829c56ab5eb44d528e9d9f37f9",
            "0x000000000000000000000000ec5397a61bd8de1b0ab8719a9e897eec67bad5c2",
            "0x0000000000000000000000000000000000000000000000267d3ab6423f580000"
          ],
          "data": "0x",
          "blockHash": "0xe9434879ca31b3f3c43eef4d6f0ab45ec581d032f97867367c9089b3e89ef5b4",
          "blockNumber": "0x11df979e",
          "transactionHash": "0x6737f97dbe4b438c21060c0d694f92981e2789320540d319069d1895b7f50eb3",
          "transactionIndex": "0x7",
          "logIndex": "0x16",
          "removed": false
        },
        {
          "address": "0x19d4b337b77b04256668679159e0b78a42fb0a1a",
          "topics": [
            "0xddf252ad1be2c89b69c2b068fc378daa952ba7f163c4a11628f55a4df523b3ef",
            "0x0000000000000000000000003e88e60894d081b27d180fcadd524365a3de7dd4",
            "0x0000000000000000000000000cea072f4490faa57fca58aa9339d4b71210bcd4"
          ],
          "data": "0x000000000000000000000000000000000000000000000021f74d2a1460b04000",
          "blockHash": "0xe9434879ca31b3f3c43eef4d6f0ab45ec581d032f97867367c9089b3e89ef5b4",
          "blockNumber": "0x11df979e",
          "transactionHash": "0x6737f97dbe4b438c21060c0d694f92981e2789320540d319069d1895b7f50eb3",
          "transactionIndex": "0x7",
          "logIndex": "0x17",
          "removed": false
        },
        {
          "address": "0x0cea072f4490faa57fca58aa9339d4b71210bcd4",
          "topics": [
            "0xddf252ad1be2c89b69c2b068fc378daa952ba7f163c4a11628f55a4df523b3ef",
            "0x0000000000000000000000000000000000000000000000000000000000000000",
            "0x00000000000000000000000083834a1d647e84402e76dd542ad95103ae6bf478"
          ],
          "data": "0x000000000000000000000000000000000000000000000021f74d2a1460b04000",
          "blockHash": "0xe9434879ca31b3f3c43eef4d6f0ab45ec581d032f97867367c9089b3e89ef5b4",
          "blockNumber": "0x11df979e",
          "transactionHash": "0x6737f97dbe4b438c21060c0d694f92981e2789320540d319069d1895b7f50eb3",
          "transactionIndex": "0x7",
          "logIndex": "0x18",
          "removed": false
        },
        {
          "address": "0x83834a1d647e84402e76dd542ad95103ae6bf478",
          "topics": [
            "0x0ba848deafd25d212eb636f60dd87bf55ab0fd85c23e43a1ec8b4fc01e3bfc85",
            "0x000000000000000000000000ebcc98573c3cd9b5b61900d1304da938b5036a0d",
            "0x000000000000000000000000000000000000000000000021f74d2a1460b04000"
          ],
          "data": "0x",
          "blockHash": "0xe9434879ca31b3f3c43eef4d6f0ab45ec581d032f97867367c9089b3e89ef5b4",
          "blockNumber": "0x11df979e",
          "transactionHash": "0x6737f97dbe4b438c21060c0d694f92981e2789320540d319069d1895b7f50eb3",
          "transactionIndex": "0x7",
          "logIndex": "0x19",
          "removed": false
        },
        {
          "address": "0x1fd3964089c4e3e9ec0cdd32d8a41005cf5e133c",
          "topics": [
            "0x51163a5fd2826e69ff9354aa4104e8882a895188adabe2cc25515372bfd9be88",
            "0x000000000000000000000000ebcc98573c3cd9b5b61900d1304da938b5036a0d"
          ],
          "data": "0x4da305c100000000000000000000000000000000000000000000000000000000",
          "blockHash": "0xe9434879ca31b3f3c43eef4d6f0ab45ec581d032f97867367c9089b3e89ef5b4",
          "blockNumber": "0x11df979e",
          "transactionHash": "0x6737f97dbe4b438c21060c0d694f92981e2789320540d319069d1895b7f50eb3",
          "transactionIndex": "0x7",
          "logIndex": "0x1a",
          "removed": false
        },
        {
          "address": "0x0cea072f4490faa57fca58aa9339d4b71210bcd4",
          "topics": [
            "0x2eefbcc6809174727cb788be082c392be6c822829c56ab5eb44d528e9d9f37f9",
            "0x000000000000000000000000ebcc98573c3cd9b5b61900d1304da938b5036a0d",
            "0x000000000000000000000000000000000000000000000021f74d2a1460b04000"
          ],
          "data": "0x",
          "blockHash": "0xe9434879ca31b3f3c43eef4d6f0ab45ec581d032f97867367c9089b3e89ef5b4",
          "blockNumber": "0x11df979e",
          "transactionHash": "0x6737f97dbe4b438c21060c0d694f92981e2789320540d319069d1895b7f50eb3",
          "transactionIndex": "0x7",
          "logIndex": "0x1b",
          "removed": false
        },
        {
          "address": "0x19d4b337b77b04256668679159e0b78a42fb0a1a",
          "topics": [
            "0xddf252ad1be2c89b69c2b068fc378daa952ba7f163c4a11628f55a4df523b3ef",
            "0x0000000000000000000000003e88e60894d081b27d180fcadd524365a3de7dd4",
            "0x0000000000000000000000000cea072f4490faa57fca58aa9339d4b71210bcd4"
          ],
          "data": "0x000000000000000000000000000000000000000000000017da3a04c7b3e00000",
          "blockHash": "0xe9434879ca31b3f3c43eef4d6f0ab45ec581d032f97867367c9089b3e89ef5b4",
          "blockNumber": "0x11df979e",
          "transactionHash": "0x6737f97dbe4b438c21060c0d694f92981e2789320540d319069d1895b7f50eb3",
          "transactionIndex": "0x7",
          "logIndex": "0x1c",
          "removed": false
        },
        {
          "address": "0x0cea072f4490faa57fca58aa9339d4b71210bcd4",
          "topics": [
            "0xddf252ad1be2c89b69c2b068fc378daa952ba7f163c4a11628f55a4df523b3ef",
            "0x0000000000000000000000000000000000000000000000000000000000000000",
            "0x00000000000000000000000083834a1d647e84402e76dd542ad95103ae6bf478"
          ],
          "data": "0x000000000000000000000000000000000000000000000017da3a04c7b3e00000",
          "blockHash": "0xe9434879ca31b3f3c43eef4d6f0ab45ec581d032f97867367c9089b3e89ef5b4",
          "blockNumber": "0x11df979e",
          "transactionHash": "0x6737f97dbe4b438c21060c0d694f92981e2789320540d319069d1895b7f50eb3",
          "transactionIndex": "0x7",
          "logIndex": "0x1d",
          "removed": false
        },
        {
          "address": "0x83834a1d647e84402e76dd542ad95103ae6bf478",
          "topics": [
            "0x0ba848deafd25d212eb636f60dd87bf55ab0fd85c23e43a1ec8b4fc01e3bfc85",
            "0x00000000000000000000000067a5a9e9a0a6cfb6a73442b9811b141ea875d3b7",
            "0x000000000000000000000000000000000000000000000017da3a04c7b3e00000"
          ],
          "data": "0x",
          "blockHash": "0xe9434879ca31b3f3c43eef4d6f0ab45ec581d032f97867367c9089b3e89ef5b4",
          "blockNumber": "0x11df979e",
          "transactionHash": "0x6737f97dbe4b438c21060c0d694f92981e2789320540d319069d1895b7f50eb3",
          "transactionIndex": "0x7",
          "logIndex": "0x1e",
          "removed": false
        },
        {
          "address": "0x1fd3964089c4e3e9ec0cdd32d8a41005cf5e133c",
          "topics": [
            "0x51163a5fd2826e69ff9354aa4104e8882a895188adabe2cc25515372bfd9be88",
            "0x00000000000000000000000067a5a9e9a0a6cfb6a73442b9811b141ea875d3b7"
          ],
          "data": "0x4da305c100000000000000000000000000000000000000000000000000000000",
          "blockHash": "0xe9434879ca31b3f3c43eef4d6f0ab45ec581d032f97867367c9089b3e89ef5b4",
          "blockNumber": "0x11df979e",
          "transactionHash": "0x6737f97dbe4b438c21060c0d694f92981e2789320540d319069d1895b7f50eb3",
          "transactionIndex": "0x7",
          "logIndex": "0x1f",
          "removed": false
        },
        {
          "address": "0x0cea072f4490faa57fca58aa9339d4b71210bcd4",
          "topics": [
            "0x2eefbcc6809174727cb788be082c392be6c822829c56ab5eb44d528e9d9f37f9",
            "0x00000000000000000000000067a5a9e9a0a6cfb6a73442b9811b141ea875d3b7",
            "0x000000000000000000000000000000000000000000000017da3a04c7b3e00000"
          ],
          "data": "0x",
          "blockHash": "0xe9434879ca31b3f3c43eef4d6f0ab45ec581d032f97867367c9089b3e89ef5b4",
          "blockNumber": "0x11df979e",
          "transactionHash": "0x6737f97dbe4b438c21060c0d694f92981e2789320540d319069d1895b7f50eb3",
          "transactionIndex": "0x7",
          "logIndex": "0x20",
          "removed": false
        },
        {
          "address": "0x19d4b337b77b04256668679159e0b78a42fb0a1a",
          "topics": [
            "0xddf252ad1be2c89b69c2b068fc378daa952ba7f163c4a11628f55a4df523b3ef",
            "0x0000000000000000000000003e88e60894d081b27d180fcadd524365a3de7dd4",
            "0x0000000000000000000000000cea072f4490faa57fca58aa9339d4b71210bcd4"
          ],
          "data": "0x00000000000000000000000000000000000000000000000d3a2e233b8b500000",
          "blockHash": "0xe9434879ca31b3f3c43eef4d6f0ab45ec581d032f97867367c9089b3e89ef5b4",
          "blockNumber": "0x11df979e",
          "transactionHash": "0x6737f97dbe4b438c21060c0d694f92981e2789320540d319069d1895b7f50eb3",
          "transactionIndex": "0x7",
          "logIndex": "0x21",
          "removed": false
        },
        {
          "address": "0x0cea072f4490faa57fca58aa9339d4b71210bcd4",
          "topics": [
            "0xddf252ad1be2c89b69c2b068fc378daa952ba7f163c4a11628f55a4df523b3ef",
            "0x0000000000000000000000000000000000000000000000000000000000000000",
            "0x00000000000000000000000083834a1d647e84402e76dd542ad95103ae6bf478"
          ],
          "data": "0x00000000000000000000000000000000000000000000000d3a2e233b8b500000",
          "blockHash": "0xe9434879ca31b3f3c43eef4d6f0ab45ec581d032f97867367c9089b3e89ef5b4",
          "blockNumber": "0x11df979e",
          "transactionHash": "0x6737f97dbe4b438c21060c0d694f92981e2789320540d319069d1895b7f50eb3",
          "transactionIndex": "0x7",
          "logIndex": "0x22",
          "removed": false
        },
        {
          "address": "0x83834a1d647e84402e76dd542ad95103ae6bf478",
          "topics": [
            "0x0ba848deafd25d212eb636f60dd87bf55ab0fd85c23e43a1ec8b4fc01e3bfc85",
            "0x000000000000000000000000cc4d262a477e8d1df5a85b00b230376697f774bd",
            "0x00000000000000000000000000000000000000000000000d3a2e233b8b500000"
          ],
          "data": "0x",
          "blockHash": "0xe9434879ca31b3f3c43eef4d6f0ab45ec581d032f97867367c9089b3e89ef5b4",
          "blockNumber": "0x11df979e",
          "transactionHash": "0x6737f97dbe4b438c21060c0d694f92981e2789320540d319069d1895b7f50eb3",
          "transactionIndex": "0x7",
          "logIndex": "0x23",
          "removed": false
        },
        {
          "address": "0x1fd3964089c4e3e9ec0cdd32d8a41005cf5e133c",
          "topics": [
            "0x51163a5fd2826e69ff9354aa4104e8882a895188adabe2cc25515372bfd9be88",
            "0x000000000000000000000000cc4d262a477e8d1df5a85b00b230376697f774bd"
          ],
          "data": "0x4da305c100000000000000000000000000000000000000000000000000000000",
          "blockHash": "0xe9434879ca31b3f3c43eef4d6f0ab45ec581d032f97867367c9089b3e89ef5b4",
          "blockNumber": "0x11df979e",
          "transactionHash": "0x6737f97dbe4b438c21060c0d694f92981e2789320540d319069d1895b7f50eb3",
          "transactionIndex": "0x7",
          "logIndex": "0x24",
          "removed": false
        },
        {
          "address": "0x0cea072f4490faa57fca58aa9339d4b71210bcd4",
          "topics": [
            "0x2eefbcc6809174727cb788be082c392be6c822829c56ab5eb44d528e9d9f37f9",
            "0x000000000000000000000000cc4d262a477e8d1df5a85b00b230376697f774bd",
            "0x00000000000000000000000000000000000000000000000d3a2e233b8b500000"
          ],
          "data": "0x",
          "blockHash": "0xe9434879ca31b3f3c43eef4d6f0ab45ec581d032f97867367c9089b3e89ef5b4",
          "blockNumber": "0x11df979e",
          "transactionHash": "0x6737f97dbe4b438c21060c0d694f92981e2789320540d319069d1895b7f50eb3",
          "transactionIndex": "0x7",
          "logIndex": "0x25",
          "removed": false
        },
        {
          "address": "0x19d4b337b77b04256668679159e0b78a42fb0a1a",
          "topics": [
            "0xddf252ad1be2c89b69c2b068fc378daa952ba7f163c4a11628f55a4df523b3ef",
            "0x0000000000000000000000003e88e60894d081b27d180fcadd524365a3de7dd4",
            "0x0000000000000000000000000cea072f4490faa57fca58aa9339d4b71210bcd4"
          ],
          "data": "0x00000000000000000000000000000000000000000000000ad78ebc5ac6200000",
          "blockHash": "0xe9434879ca31b3f3c43eef4d6f0ab45ec581d032f97867367c9089b3e89ef5b4",
          "blockNumber": "0x11df979e",
          "transactionHash": "0x6737f97dbe4b438c21060c0d694f92981e2789320540d319069d1895b7f50eb3",
          "transactionIndex": "0x7",
          "logIndex": "0x26",
          "removed": false
        },
        {
          "address": "0x0cea072f4490faa57fca58aa9339d4b71210bcd4",
          "topics": [
            "0xddf252ad1be2c89b69c2b068fc378daa952ba7f163c4a11628f55a4df523b3ef",
            "0x0000000000000000000000000000000000000000000000000000000000000000",
            "0x00000000000000000000000083834a1d647e84402e76dd542ad95103ae6bf478"
          ],
          "data": "0x00000000000000000000000000000000000000000000000ad78ebc5ac6200000",
          "blockHash": "0xe9434879ca31b3f3c43eef4d6f0ab45ec581d032f97867367c9089b3e89ef5b4",
          "blockNumber": "0x11df979e",
          "transactionHash": "0x6737f97dbe4b438c21060c0d694f92981e2789320540d319069d1895b7f50eb3",
          "transactionIndex": "0x7",
          "logIndex": "0x27",
          "removed": false
        },
        {
          "address": "0x83834a1d647e84402e76dd542ad95103ae6bf478",
          "topics": [
            "0x0ba848deafd25d212eb636f60dd87bf55ab0fd85c23e43a1ec8b4fc01e3bfc85",
            "0x00000000000000000000000081542000e115f4632e6dd41f0d0e1c1ac777f9e9",
            "0x00000000000000000000000000000000000000000000000ad78ebc5ac6200000"
          ],
          "data": "0x",
          "blockHash": "0xe9434879ca31b3f3c43eef4d6f0ab45ec581d032f97867367c9089b3e89ef5b4",
          "blockNumber": "0x11df979e",
          "transactionHash": "0x6737f97dbe4b438c21060c0d694f92981e2789320540d319069d1895b7f50eb3",
          "transactionIndex": "0x7",
          "logIndex": "0x28",
          "removed": false
        },
        {
          "address": "0x1fd3964089c4e3e9ec0cdd32d8a41005cf5e133c",
          "topics": [
            "0x51163a5fd2826e69ff9354aa4104e8882a895188adabe2cc25515372bfd9be88",
            "0x00000000000000000000000081542000e115f4632e6dd41f0d0e1c1ac777f9e9"
          ],
          "data": "0x4da305c100000000000000000000000000000000000000000000000000000000",
          "blockHash": "0xe9434879ca31b3f3c43eef4d6f0ab45ec581d032f97867367c9089b3e89ef5b4",
          "blockNumber": "0x11df979e",
          "transactionHash": "0x6737f97dbe4b438c21060c0d694f92981e2789320540d319069d1895b7f50eb3",
          "transactionIndex": "0x7",
          "logIndex": "0x29",
          "removed": false
        },
        {
          "address": "0x0cea072f4490faa57fca58aa9339d4b71210bcd4",
          "topics": [
            "0x2eefbcc6809174727cb788be082c392be6c822829c56ab5eb44d528e9d9f37f9",
            "0x00000000000000000000000081542000e115f4632e6dd41f0d0e1c1ac777f9e9",
            "0x00000000000000000000000000000000000000000000000ad78ebc5ac6200000"
          ],
          "data": "0x",
          "blockHash": "0xe9434879ca31b3f3c43eef4d6f0ab45ec581d032f97867367c9089b3e89ef5b4",
          "blockNumber": "0x11df979e",
          "transactionHash": "0x6737f97dbe4b438c21060c0d694f92981e2789320540d319069d1895b7f50eb3",
          "transactionIndex": "0x7",
          "logIndex": "0x2a",
          "removed": false
        },
        {
          "address": "0x19d4b337b77b04256668679159e0b78a42fb0a1a",
          "topics": [
            "0xddf252ad1be2c89b69c2b068fc378daa952ba7f163c4a11628f55a4df523b3ef",
            "0x0000000000000000000000003e88e60894d081b27d180fcadd524365a3de7dd4",
            "0x0000000000000000000000000cea072f4490faa57fca58aa9339d4b71210bcd4"
          ],
          "data": "0x000000000000000000000000000000000000000000000005b12aefafa8040000",
          "blockHash": "0xe9434879ca31b3f3c43eef4d6f0ab45ec581d032f97867367c9089b3e89ef5b4",
          "blockNumber": "0x11df979e",
          "transactionHash": "0x6737f97dbe4b438c21060c0d694f92981e2789320540d319069d1895b7f50eb3",
          "transactionIndex": "0x7",
          "logIndex": "0x2b",
          "removed": false
        },
        {
          "address": "0x0cea072f4490faa57fca58aa9339d4b71210bcd4",
          "topics": [
            "0xddf252ad1be2c89b69c2b068fc378daa952ba7f163c4a11628f55a4df523b3ef",
            "0x0000000000000000000000000000000000000000000000000000000000000000",
            "0x00000000000000000000000083834a1d647e84402e76dd542ad95103ae6bf478"
          ],
          "data": "0x000000000000000000000000000000000000000000000005b12aefafa8040000",
          "blockHash": "0xe9434879ca31b3f3c43eef4d6f0ab45ec581d032f97867367c9089b3e89ef5b4",
          "blockNumber": "0x11df979e",
          "transactionHash": "0x6737f97dbe4b438c21060c0d694f92981e2789320540d319069d1895b7f50eb3",
          "transactionIndex": "0x7",
          "logIndex": "0x2c",
          "removed": false
        },
        {
          "address": "0x83834a1d647e84402e76dd542ad95103ae6bf478",
          "topics": [
            "0x0ba848deafd25d212eb636f60dd87bf55ab0fd85c23e43a1ec8b4fc01e3bfc85",
            "0x000000000000000000000000e8989b32996cb079823bc43c6d0d160aaf30cb7d",
            "0x000000000000000000000000000000000000000000000005b12aefafa8040000"
          ],
          "data": "0x",
          "blockHash": "0xe9434879ca31b3f3c43eef4d6f0ab45ec581d032f97867367c9089b3e89ef5b4",
          "blockNumber": "0x11df979e",
          "transactionHash": "0x6737f97dbe4b438c21060c0d694f92981e2789320540d319069d1895b7f50eb3",
          "transactionIndex": "0x7",
          "logIndex": "0x2d",
          "removed": false
        },
        {
          "address": "0x1fd3964089c4e3e9ec0cdd32d8a41005cf5e133c",
          "topics": [
            "0x51163a5fd2826e69ff9354aa4104e8882a895188adabe2cc25515372bfd9be88",
            "0x000000000000000000000000e8989b32996cb079823bc43c6d0d160aaf30cb7d"
          ],
          "data": "0x4da305c100000000000000000000000000000000000000000000000000000000",
          "blockHash": "0xe9434879ca31b3f3c43eef4d6f0ab45ec581d032f97867367c9089b3e89ef5b4",
          "blockNumber": "0x11df979e",
          "transactionHash": "0x6737f97dbe4b438c21060c0d694f92981e2789320540d319069d1895b7f50eb3",
          "transactionIndex": "0x7",
          "logIndex": "0x2e",
          "removed": false
        },
        {
          "address": "0x0cea072f4490faa57fca58aa9339d4b71210bcd4",
          "topics": [
            "0x2eefbcc6809174727cb788be082c392be6c822829c56ab5eb44d528e9d9f37f9",
            "0x000000000000000000000000e8989b32996cb079823bc43c6d0d160aaf30cb7d",
            "0x000000000000000000000000000000000000000000000005b12aefafa8040000"
          ],
          "data": "0x",
          "blockHash": "0xe9434879ca31b3f3c43eef4d6f0ab45ec581d032f97867367c9089b3e89ef5b4",
          "blockNumber": "0x11df979e",
          "transactionHash": "0x6737f97dbe4b438c21060c0d694f92981e2789320540d319069d1895b7f50eb3",
          "transactionIndex": "0x7",
          "logIndex": "0x2f",
          "removed": false
        },
        {
          "address": "0x19d4b337b77b04256668679159e0b78a42fb0a1a",
          "topics": [
            "0xddf252ad1be2c89b69c2b068fc378daa952ba7f163c4a11628f55a4df523b3ef",
            "0x0000000000000000000000003e88e60894d081b27d180fcadd524365a3de7dd4",
            "0x0000000000000000000000000cea072f4490faa57fca58aa9339d4b71210bcd4"
          ],
          "data": "0x0000000000000000000000000000000000000000000000056bc75e2d63100000",
          "blockHash": "0xe9434879ca31b3f3c43eef4d6f0ab45ec581d032f97867367c9089b3e89ef5b4",
          "blockNumber": "0x11df979e",
          "transactionHash": "0x6737f97dbe4b438c21060c0d694f92981e2789320540d319069d1895b7f50eb3",
          "transactionIndex": "0x7",
          "logIndex": "0x30",
          "removed": false
        },
        {
          "address": "0x0cea072f4490faa57fca58aa9339d4b71210bcd4",
          "topics": [
            "0xddf252ad1be2c89b69c2b068fc378daa952ba7f163c4a11628f55a4df523b3ef",
            "0x0000000000000000000000000000000000000000000000000000000000000000",
            "0x00000000000000000000000083834a1d647e84402e76dd542ad95103ae6bf478"
          ],
          "data": "0x0000000000000000000000000000000000000000000000056bc75e2d63100000",
          "blockHash": "0xe9434879ca31b3f3c43eef4d6f0ab45ec581d032f97867367c9089b3e89ef5b4",
          "blockNumber": "0x11df979e",
          "transactionHash": "0x6737f97dbe4b438c21060c0d694f92981e2789320540d319069d1895b7f50eb3",
          "transactionIndex": "0x7",
          "logIndex": "0x31",
          "removed": false
        },
        {
          "address": "0x83834a1d647e84402e76dd542ad95103ae6bf478",
          "topics": [
            "0x0ba848deafd25d212eb636f60dd87bf55ab0fd85c23e43a1ec8b4fc01e3bfc85",
            "0x0000000000000000000000006e043e68f0d67b2fdcbaf50b14ba50c94a83578c",
            "0x0000000000000000000000000000000000000000000000056bc75e2d63100000"
          ],
          "data": "0x",
          "blockHash": "0xe9434879ca31b3f3c43eef4d6f0ab45ec581d032f97867367c9089b3e89ef5b4",
          "blockNumber": "0x11df979e",
          "transactionHash": "0x6737f97dbe4b438c21060c0d694f92981e2789320540d319069d1895b7f50eb3",
          "transactionIndex": "0x7",
          "logIndex": "0x32",
          "removed": false
        },
        {
          "address": "0x1fd3964089c4e3e9ec0cdd32d8a41005cf5e133c",
          "topics": [
            "0x51163a5fd2826e69ff9354aa4104e8882a895188adabe2cc25515372bfd9be88",
            "0x0000000000000000000000006e043e68f0d67b2fdcbaf50b14ba50c94a83578c"
          ],
          "data": "0x4da305c100000000000000000000000000000000000000000000000000000000",
          "blockHash": "0xe9434879ca31b3f3c43eef4d6f0ab45ec581d032f97867367c9089b3e89ef5b4",
          "blockNumber": "0x11df979e",
          "transactionHash": "0x6737f97dbe4b438c21060c0d694f92981e2789320540d319069d1895b7f50eb3",
          "transactionIndex": "0x7",
          "logIndex": "0x33",
          "removed": false
        },
        {
          "address": "0x0cea072f4490faa57fca58aa9339d4b71210bcd4",
          "topics": [
            "0x2eefbcc6809174727cb788be082c392be6c822829c56ab5eb44d528e9d9f37f9",
            "0x0000000000000000000000006e043e68f0d67b2fdcbaf50b14ba50c94a83578c",
            "0x0000000000000000000000000000000000000000000000056bc75e2d63100000"
          ],
          "data": "0x",
          "blockHash": "0xe9434879ca31b3f3c43eef4d6f0ab45ec581d032f97867367c9089b3e89ef5b4",
          "blockNumber": "0x11df979e",
          "transactionHash": "0x6737f97dbe4b438c21060c0d694f92981e2789320540d319069d1895b7f50eb3",
          "transactionIndex": "0x7",
          "logIndex": "0x34",
          "removed": false
        },
        {
          "address": "0x19d4b337b77b04256668679159e0b78a42fb0a1a",
          "topics": [
            "0xddf252ad1be2c89b69c2b068fc378daa952ba7f163c4a11628f55a4df523b3ef",
            "0x0000000000000000000000003e88e60894d081b27d180fcadd524365a3de7dd4",
            "0x0000000000000000000000000cea072f4490faa57fca58aa9339d4b71210bcd4"
          ],
          "data": "0x000000000000000000000000000000000000000000000002b5e3af16b1880000",
          "blockHash": "0xe9434879ca31b3f3c43eef4d6f0ab45ec581d032f97867367c9089b3e89ef5b4",
          "blockNumber": "0x11df979e",
          "transactionHash": "0x6737f97dbe4b438c21060c0d694f92981e2789320540d319069d1895b7f50eb3",
          "transactionIndex": "0x7",
          "logIndex": "0x35",
          "removed": false
        },
        {
          "address": "0x0cea072f4490faa57fca58aa9339d4b71210bcd4",
          "topics": [
            "0xddf252ad1be2c89b69c2b068fc378daa952ba7f163c4a11628f55a4df523b3ef",
            "0x0000000000000000000000000000000000000000000000000000000000000000",
            "0x00000000000000000000000083834a1d647e84402e76dd542ad95103ae6bf478"
          ],
          "data": "0x000000000000000000000000000000000000000000000002b5e3af16b1880000",
          "blockHash": "0xe9434879ca31b3f3c43eef4d6f0ab45ec581d032f97867367c9089b3e89ef5b4",
          "blockNumber": "0x11df979e",
          "transactionHash": "0x6737f97dbe4b438c21060c0d694f92981e2789320540d319069d1895b7f50eb3",
          "transactionIndex": "0x7",
          "logIndex": "0x36",
          "removed": false
        },
        {
          "address": "0x83834a1d647e84402e76dd542ad95103ae6bf478",
          "topics": [
            "0x0ba848deafd25d212eb636f60dd87bf55ab0fd85c23e43a1ec8b4fc01e3bfc85",
            "0x000000000000000000000000faf790ff539471763da851d63ad1a47d0f95f2a6",
            "0x000000000000000000000000000000000000000000000002b5e3af16b1880000"
          ],
          "data": "0x",
          "blockHash": "0xe9434879ca31b3f3c43eef4d6f0ab45ec581d032f97867367c9089b3e89ef5b4",
          "blockNumber": "0x11df979e",
          "transactionHash": "0x6737f97dbe4b438c21060c0d694f92981e2789320540d319069d1895b7f50eb3",
          "transactionIndex": "0x7",
          "logIndex": "0x37",
          "removed": false
        },
        {
          "address": "0x1fd3964089c4e3e9ec0cdd32d8a41005cf5e133c",
          "topics": [
            "0x51163a5fd2826e69ff9354aa4104e8882a895188adabe2cc25515372bfd9be88",
            "0x000000000000000000000000faf790ff539471763da851d63ad1a47d0f95f2a6"
          ],
          "data": "0x4da305c100000000000000000000000000000000000000000000000000000000",
          "blockHash": "0xe9434879ca31b3f3c43eef4d6f0ab45ec581d032f97867367c9089b3e89ef5b4",
          "blockNumber": "0x11df979e",
          "transactionHash": "0x6737f97dbe4b438c21060c0d694f92981e2789320540d319069d1895b7f50eb3",
          "transactionIndex": "0x7",
          "logIndex": "0x38",
          "removed": false
        },
        {
          "address": "0x0cea072f4490faa57fca58aa9339d4b71210bcd4",
          "topics": [
            "0x2eefbcc6809174727cb788be082c392be6c822829c56ab5eb44d528e9d9f37f9",
            "0x000000000000000000000000faf790ff539471763da851d63ad1a47d0f95f2a6",
            "0x000000000000000000000000000000000000000000000002b5e3af16b1880000"
          ],
          "data": "0x",
          "blockHash": "0xe9434879ca31b3f3c43eef4d6f0ab45ec581d032f97867367c9089b3e89ef5b4",
          "blockNumber": "0x11df979e",
          "transactionHash": "0x6737f97dbe4b438c21060c0d694f92981e2789320540d319069d1895b7f50eb3",
          "transactionIndex": "0x7",
          "logIndex": "0x39",
          "removed": false
        },
        {
          "address": "0x19d4b337b77b04256668679159e0b78a42fb0a1a",
          "topics": [
            "0xddf252ad1be2c89b69c2b068fc378daa952ba7f163c4a11628f55a4df523b3ef",
            "0x0000000000000000000000003e88e60894d081b27d180fcadd524365a3de7dd4",
            "0x0000000000000000000000000cea072f4490faa57fca58aa9339d4b71210bcd4"
          ],
          "data": "0x000000000000000000000000000000000000000000000002a802f8630a240000",
          "blockHash": "0xe9434879ca31b3f3c43eef4d6f0ab45ec581d032f97867367c9089b3e89ef5b4",
          "blockNumber": "0x11df979e",
          "transactionHash": "0x6737f97dbe4b438c21060c0d694f92981e2789320540d319069d1895b7f50eb3",
          "transactionIndex": "0x7",
          "logIndex": "0x3a",
          "removed": false
        },
        {
          "address": "0x0cea072f4490faa57fca58aa9339d4b71210bcd4",
          "topics": [
            "0xddf252ad1be2c89b69c2b068fc378daa952ba7f163c4a11628f55a4df523b3ef",
            "0x0000000000000000000000000000000000000000000000000000000000000000",
            "0x00000000000000000000000083834a1d647e84402e76dd542ad95103ae6bf478"
          ],
          "data": "0x000000000000000000000000000000000000000000000002a802f8630a240000",
          "blockHash": "0xe9434879ca31b3f3c43eef4d6f0ab45ec581d032f97867367c9089b3e89ef5b4",
          "blockNumber": "0x11df979e",
          "transactionHash": "0x6737f97dbe4b438c21060c0d694f92981e2789320540d319069d1895b7f50eb3",
          "transactionIndex": "0x7",
          "logIndex": "0x3b",
          "removed": false
        },
        {
          "address": "0x83834a1d647e84402e76dd542ad95103ae6bf478",
          "topics": [
            "0x0ba848deafd25d212eb636f60dd87bf55ab0fd85c23e43a1ec8b4fc01e3bfc85",
            "0x000000000000000000000000439be9be6f5009577503bfee25367a5fd36d76df",
            "0x000000000000000000000000000000000000000000000002a802f8630a240000"
          ],
          "data": "0x",
          "blockHash": "0xe9434879ca31b3f3c43eef4d6f0ab45ec581d032f97867367c9089b3e89ef5b4",
          "blockNumber": "0x11df979e",
          "transactionHash": "0x6737f97dbe4b438c21060c0d694f92981e2789320540d319069d1895b7f50eb3",
          "transactionIndex": "0x7",
          "logIndex": "0x3c",
          "removed": false
        },
        {
          "address": "0x1fd3964089c4e3e9ec0cdd32d8a41005cf5e133c",
          "topics": [
            "0x51163a5fd2826e69ff9354aa4104e8882a895188adabe2cc25515372bfd9be88",
            "0x000000000000000000000000439be9be6f5009577503bfee25367a5fd36d76df"
          ],
          "data": "0x4da305c100000000000000000000000000000000000000000000000000000000",
          "blockHash": "0xe9434879ca31b3f3c43eef4d6f0ab45ec581d032f97867367c9089b3e89ef5b4",
          "blockNumber": "0x11df979e",
          "transactionHash": "0x6737f97dbe4b438c21060c0d694f92981e2789320540d319069d1895b7f50eb3",
          "transactionIndex": "0x7",
          "logIndex": "0x3d",
          "removed": false
        },
        {
          "address": "0x0cea072f4490faa57fca58aa9339d4b71210bcd4",
          "topics": [
            "0x2eefbcc6809174727cb788be082c392be6c822829c56ab5eb44d528e9d9f37f9",
            "0x000000000000000000000000439be9be6f5009577503bfee25367a5fd36d76df",
            "0x000000000000000000000000000000000000000000000002a802f8630a240000"
          ],
          "data": "0x",
          "blockHash": "0xe9434879ca31b3f3c43eef4d6f0ab45ec581d032f97867367c9089b3e89ef5b4",
          "blockNumber": "0x11df979e",
          "transactionHash": "0x6737f97dbe4b438c21060c0d694f92981e2789320540d319069d1895b7f50eb3",
          "transactionIndex": "0x7",
          "logIndex": "0x3e",
          "removed": false
        },
        {
          "address": "0x19d4b337b77b04256668679159e0b78a42fb0a1a",
          "topics": [
            "0xddf252ad1be2c89b69c2b068fc378daa952ba7f163c4a11628f55a4df523b3ef",
            "0x0000000000000000000000003e88e60894d081b27d180fcadd524365a3de7dd4",
            "0x0000000000000000000000000cea072f4490faa57fca58aa9339d4b71210bcd4"
          ],
          "data": "0x000000000000000000000000000000000000000000000001b1ae4d6e2ef50000",
          "blockHash": "0xe9434879ca31b3f3c43eef4d6f0ab45ec581d032f97867367c9089b3e89ef5b4",
          "blockNumber": "0x11df979e",
          "transactionHash": "0x6737f97dbe4b438c21060c0d694f92981e2789320540d319069d1895b7f50eb3",
          "transactionIndex": "0x7",
          "logIndex": "0x3f",
          "removed": false
        },
        {
          "address": "0x0cea072f4490faa57fca58aa9339d4b71210bcd4",
          "topics": [
            "0xddf252ad1be2c89b69c2b068fc378daa952ba7f163c4a11628f55a4df523b3ef",
            "0x0000000000000000000000000000000000000000000000000000000000000000",
            "0x00000000000000000000000083834a1d647e84402e76dd542ad95103ae6bf478"
          ],
          "data": "0x000000000000000000000000000000000000000000000001b1ae4d6e2ef50000",
          "blockHash": "0xe9434879ca31b3f3c43eef4d6f0ab45ec581d032f97867367c9089b3e89ef5b4",
          "blockNumber": "0x11df979e",
          "transactionHash": "0x6737f97dbe4b438c21060c0d694f92981e2789320540d319069d1895b7f50eb3",
          "transactionIndex": "0x7",
          "logIndex": "0x40",
          "removed": false
        },
        {
          "address": "0x83834a1d647e84402e76dd542ad95103ae6bf478",
          "topics": [
            "0x0ba848deafd25d212eb636f60dd87bf55ab0fd85c23e43a1ec8b4fc01e3bfc85",
            "0x000000000000000000000000af5ae7cdaff6f1f457bc88f0989c0af7f583ab43",
            "0x000000000000000000000000000000000000000000000001b1ae4d6e2ef50000"
          ],
          "data": "0x",
          "blockHash": "0xe9434879ca31b3f3c43eef4d6f0ab45ec581d032f97867367c9089b3e89ef5b4",
          "blockNumber": "0x11df979e",
          "transactionHash": "0x6737f97dbe4b438c21060c0d694f92981e2789320540d319069d1895b7f50eb3",
          "transactionIndex": "0x7",
          "logIndex": "0x41",
          "removed": false
        },
        {
          "address": "0x1fd3964089c4e3e9ec0cdd32d8a41005cf5e133c",
          "topics": [
            "0x51163a5fd2826e69ff9354aa4104e8882a895188adabe2cc25515372bfd9be88",
            "0x000000000000000000000000af5ae7cdaff6f1f457bc88f0989c0af7f583ab43"
          ],
          "data": "0x4da305c100000000000000000000000000000000000000000000000000000000",
          "blockHash": "0xe9434879ca31b3f3c43eef4d6f0ab45ec581d032f97867367c9089b3e89ef5b4",
          "blockNumber": "0x11df979e",
          "transactionHash": "0x6737f97dbe4b438c21060c0d694f92981e2789320540d319069d1895b7f50eb3",
          "transactionIndex": "0x7",
          "logIndex": "0x42",
          "removed": false
        },
        {
          "address": "0x0cea072f4490faa57fca58aa9339d4b71210bcd4",
          "topics": [
            "0x2eefbcc6809174727cb788be082c392be6c822829c56ab5eb44d528e9d9f37f9",
            "0x000000000000000000000000af5ae7cdaff6f1f457bc88f0989c0af7f583ab43",
            "0x000000000000000000000000000000000000000000000001b1ae4d6e2ef50000"
          ],
          "data": "0x",
          "blockHash": "0xe9434879ca31b3f3c43eef4d6f0ab45ec581d032f97867367c9089b3e89ef5b4",
          "blockNumber": "0x11df979e",
          "transactionHash": "0x6737f97dbe4b438c21060c0d694f92981e2789320540d319069d1895b7f50eb3",
          "transactionIndex": "0x7",
          "logIndex": "0x43",
          "removed": false
        },
        {
          "address": "0x19d4b337b77b04256668679159e0b78a42fb0a1a",
          "topics": [
            "0xddf252ad1be2c89b69c2b068fc378daa952ba7f163c4a11628f55a4df523b3ef",
            "0x0000000000000000000000003e88e60894d081b27d180fcadd524365a3de7dd4",
            "0x0000000000000000000000000cea072f4490faa57fca58aa9339d4b71210bcd4"
          ],
          "data": "0x000000000000000000000000000000000000000000000001a055690d9db80000",
          "blockHash": "0xe9434879ca31b3f3c43eef4d6f0ab45ec581d032f97867367c9089b3e89ef5b4",
          "blockNumber": "0x11df979e",
          "transactionHash": "0x6737f97dbe4b438c21060c0d694f92981e2789320540d319069d1895b7f50eb3",
          "transactionIndex": "0x7",
          "logIndex": "0x44",
          "removed": false
        },
        {
          "address": "0x0cea072f4490faa57fca58aa9339d4b71210bcd4",
          "topics": [
            "0xddf252ad1be2c89b69c2b068fc378daa952ba7f163c4a11628f55a4df523b3ef",
            "0x0000000000000000000000000000000000000000000000000000000000000000",
            "0x00000000000000000000000083834a1d647e84402e76dd542ad95103ae6bf478"
          ],
          "data": "0x000000000000000000000000000000000000000000000001a055690d9db80000",
          "blockHash": "0xe9434879ca31b3f3c43eef4d6f0ab45ec581d032f97867367c9089b3e89ef5b4",
          "blockNumber": "0x11df979e",
          "transactionHash": "0x6737f97dbe4b438c21060c0d694f92981e2789320540d319069d1895b7f50eb3",
          "transactionIndex": "0x7",
          "logIndex": "0x45",
          "removed": false
        },
        {
          "address": "0x83834a1d647e84402e76dd542ad95103ae6bf478",
          "topics": [
            "0x0ba848deafd25d212eb636f60dd87bf55ab0fd85c23e43a1ec8b4fc01e3bfc85",
            "0x000000000000000000000000a32851095944385b930713885f2af518e0b7e45c",
            "0x000000000000000000000000000000000000000000000001a055690d9db80000"
          ],
          "data": "0x",
          "blockHash": "0xe9434879ca31b3f3c43eef4d6f0ab45ec581d032f97867367c9089b3e89ef5b4",
          "blockNumber": "0x11df979e",
          "transactionHash": "0x6737f97dbe4b438c21060c0d694f92981e2789320540d319069d1895b7f50eb3",
          "transactionIndex": "0x7",
          "logIndex": "0x46",
          "removed": false
        },
        {
          "address": "0x1fd3964089c4e3e9ec0cdd32d8a41005cf5e133c",
          "topics": [
            "0x51163a5fd2826e69ff9354aa4104e8882a895188adabe2cc25515372bfd9be88",
            "0x000000000000000000000000a32851095944385b930713885f2af518e0b7e45c"
          ],
          "data": "0x4da305c100000000000000000000000000000000000000000000000000000000",
          "blockHash": "0xe9434879ca31b3f3c43eef4d6f0ab45ec581d032f97867367c9089b3e89ef5b4",
          "blockNumber": "0x11df979e",
          "transactionHash": "0x6737f97dbe4b438c21060c0d694f92981e2789320540d319069d1895b7f50eb3",
          "transactionIndex": "0x7",
          "logIndex": "0x47",
          "removed": false
        },
        {
          "address": "0x0cea072f4490faa57fca58aa9339d4b71210bcd4",
          "topics": [
            "0x2eefbcc6809174727cb788be082c392be6c822829c56ab5eb44d528e9d9f37f9",
            "0x000000000000000000000000a32851095944385b930713885f2af518e0b7e45c",
            "0x000000000000000000000000000000000000000000000001a055690d9db80000"
          ],
          "data": "0x",
          "blockHash": "0xe9434879ca31b3f3c43eef4d6f0ab45ec581d032f97867367c9089b3e89ef5b4",
          "blockNumber": "0x11df979e",
          "transactionHash": "0x6737f97dbe4b438c21060c0d694f92981e2789320540d319069d1895b7f50eb3",
          "transactionIndex": "0x7",
          "logIndex": "0x48",
          "removed": false
        },
        {
          "address": "0x19d4b337b77b04256668679159e0b78a42fb0a1a",
          "topics": [
            "0xddf252ad1be2c89b69c2b068fc378daa952ba7f163c4a11628f55a4df523b3ef",
            "0x0000000000000000000000003e88e60894d081b27d180fcadd524365a3de7dd4",
            "0x0000000000000000000000000cea072f4490faa57fca58aa9339d4b71210bcd4"
          ],
          "data": "0x000000000000000000000000000000000000000000000001607eed6cceec0000",
          "blockHash": "0xe9434879ca31b3f3c43eef4d6f0ab45ec581d032f97867367c9089b3e89ef5b4",
          "blockNumber": "0x11df979e",
          "transactionHash": "0x6737f97dbe4b438c21060c0d694f92981e2789320540d319069d1895b7f50eb3",
          "transactionIndex": "0x7",
          "logIndex": "0x49",
          "removed": false
        },
        {
          "address": "0x0cea072f4490faa57fca58aa9339d4b71210bcd4",
          "topics": [
            "0xddf252ad1be2c89b69c2b068fc378daa952ba7f163c4a11628f55a4df523b3ef",
            "0x0000000000000000000000000000000000000000000000000000000000000000",
            "0x00000000000000000000000083834a1d647e84402e76dd542ad95103ae6bf478"
          ],
          "data": "0x000000000000000000000000000000000000000000000001607eed6cceec0000",
          "blockHash": "0xe9434879ca31b3f3c43eef4d6f0ab45ec581d032f97867367c9089b3e89ef5b4",
          "blockNumber": "0x11df979e",
          "transactionHash": "0x6737f97dbe4b438c21060c0d694f92981e2789320540d319069d1895b7f50eb3",
          "transactionIndex": "0x7",
          "logIndex": "0x4a",
          "removed": false
        },
        {
          "address": "0x83834a1d647e84402e76dd542ad95103ae6bf478",
          "topics": [
            "0x0ba848deafd25d212eb636f60dd87bf55ab0fd85c23e43a1ec8b4fc01e3bfc85",
            "0x00000000000000000000000028f0ee52a63d57f494d7968dbcf66156afaef3de",
            "0x000000000000000000000000000000000000000000000001607eed6cceec0000"
          ],
          "data": "0x",
          "blockHash": "0xe9434879ca31b3f3c43eef4d6f0ab45ec581d032f97867367c9089b3e89ef5b4",
          "blockNumber": "0x11df979e",
          "transactionHash": "0x6737f97dbe4b438c21060c0d694f92981e2789320540d319069d1895b7f50eb3",
          "transactionIndex": "0x7",
          "logIndex": "0x4b",
          "removed": false
        },
        {
          "address": "0x1fd3964089c4e3e9ec0cdd32d8a41005cf5e133c",
          "topics": [
            "0x51163a5fd2826e69ff9354aa4104e8882a895188adabe2cc25515372bfd9be88",
            "0x00000000000000000000000028f0ee52a63d57f494d7968dbcf66156afaef3de"
          ],
          "data": "0x4da305c100000000000000000000000000000000000000000000000000000000",
          "blockHash": "0xe9434879ca31b3f3c43eef4d6f0ab45ec581d032f97867367c9089b3e89ef5b4",
          "blockNumber": "0x11df979e",
          "transactionHash": "0x6737f97dbe4b438c21060c0d694f92981e2789320540d319069d1895b7f50eb3",
          "transactionIndex": "0x7",
          "logIndex": "0x4c",
          "removed": false
        },
        {
          "address": "0x0cea072f4490faa57fca58aa9339d4b71210bcd4",
          "topics": [
            "0x2eefbcc6809174727cb788be082c392be6c822829c56ab5eb44d528e9d9f37f9",
            "0x00000000000000000000000028f0ee52a63d57f494d7968dbcf66156afaef3de",
            "0x000000000000000000000000000000000000000000000001607eed6cceec0000"
          ],
          "data": "0x",
          "blockHash": "0xe9434879ca31b3f3c43eef4d6f0ab45ec581d032f97867367c9089b3e89ef5b4",
          "blockNumber": "0x11df979e",
          "transactionHash": "0x6737f97dbe4b438c21060c0d694f92981e2789320540d319069d1895b7f50eb3",
          "transactionIndex": "0x7",
          "logIndex": "0x4d",
          "removed": false
        },
        {
          "address": "0x19d4b337b77b04256668679159e0b78a42fb0a1a",
          "topics": [
            "0xddf252ad1be2c89b69c2b068fc378daa952ba7f163c4a11628f55a4df523b3ef",
            "0x0000000000000000000000003e88e60894d081b27d180fcadd524365a3de7dd4",
            "0x0000000000000000000000000cea072f4490faa57fca58aa9339d4b71210bcd4"
          ],
          "data": "0x0000000000000000000000000000000000000000000000015af1d78b58c40000",
          "blockHash": "0xe9434879ca31b3f3c43eef4d6f0ab45ec581d032f97867367c9089b3e89ef5b4",
          "blockNumber": "0x11df979e",
          "transactionHash": "0x6737f97dbe4b438c21060c0d694f92981e2789320540d319069d1895b7f50eb3",
          "transactionIndex": "0x7",
          "logIndex": "0x4e",
          "removed": false
        },
        {
          "address": "0x0cea072f4490faa57fca58aa9339d4b71210bcd4",
          "topics": [
            "0xddf252ad1be2c89b69c2b068fc378daa952ba7f163c4a11628f55a4df523b3ef",
            "0x0000000000000000000000000000000000000000000000000000000000000000",
            "0x00000000000000000000000083834a1d647e84402e76dd542ad95103ae6bf478"
          ],
          "data": "0x0000000000000000000000000000000000000000000000015af1d78b58c40000",
          "blockHash": "0xe9434879ca31b3f3c43eef4d6f0ab45ec581d032f97867367c9089b3e89ef5b4",
          "blockNumber": "0x11df979e",
          "transactionHash": "0x6737f97dbe4b438c21060c0d694f92981e2789320540d319069d1895b7f50eb3",
          "transactionIndex": "0x7",
          "logIndex": "0x4f",
          "removed": false
        },
        {
          "address": "0x83834a1d647e84402e76dd542ad95103ae6bf478",
          "topics": [
            "0x0ba848deafd25d212eb636f60dd87bf55ab0fd85c23e43a1ec8b4fc01e3bfc85",
            "0x00000000000000000000000035434690bd439c8936e94b148246ae208dfc9851",
            "0x0000000000000000000000000000000000000000000000015af1d78b58c40000"
          ],
          "data": "0x",
          "blockHash": "0xe9434879ca31b3f3c43eef4d6f0ab45ec581d032f97867367c9089b3e89ef5b4",
          "blockNumber": "0x11df979e",
          "transactionHash": "0x6737f97dbe4b438c21060c0d694f92981e2789320540d319069d1895b7f50eb3",
          "transactionIndex": "0x7",
          "logIndex": "0x50",
          "removed": false
        },
        {
          "address": "0x1fd3964089c4e3e9ec0cdd32d8a41005cf5e133c",
          "topics": [
            "0x51163a5fd2826e69ff9354aa4104e8882a895188adabe2cc25515372bfd9be88",
            "0x00000000000000000000000035434690bd439c8936e94b148246ae208dfc9851"
          ],
          "data": "0x4da305c100000000000000000000000000000000000000000000000000000000",
          "blockHash": "0xe9434879ca31b3f3c43eef4d6f0ab45ec581d032f97867367c9089b3e89ef5b4",
          "blockNumber": "0x11df979e",
          "transactionHash": "0x6737f97dbe4b438c21060c0d694f92981e2789320540d319069d1895b7f50eb3",
          "transactionIndex": "0x7",
          "logIndex": "0x51",
          "removed": false
        },
        {
          "address": "0x0cea072f4490faa57fca58aa9339d4b71210bcd4",
          "topics": [
            "0x2eefbcc6809174727cb788be082c392be6c822829c56ab5eb44d528e9d9f37f9",
            "0x00000000000000000000000035434690bd439c8936e94b148246ae208dfc9851",
            "0x0000000000000000000000000000000000000000000000015af1d78b58c40000"
          ],
          "data": "0x",
          "blockHash": "0xe9434879ca31b3f3c43eef4d6f0ab45ec581d032f97867367c9089b3e89ef5b4",
          "blockNumber": "0x11df979e",
          "transactionHash": "0x6737f97dbe4b438c21060c0d694f92981e2789320540d319069d1895b7f50eb3",
          "transactionIndex": "0x7",
          "logIndex": "0x52",
          "removed": false
        },
        {
          "address": "0x19d4b337b77b04256668679159e0b78a42fb0a1a",
          "topics": [
            "0xddf252ad1be2c89b69c2b068fc378daa952ba7f163c4a11628f55a4df523b3ef",
            "0x0000000000000000000000003e88e60894d081b27d180fcadd524365a3de7dd4",
            "0x0000000000000000000000000cea072f4490faa57fca58aa9339d4b71210bcd4"
          ],
          "data": "0x000000000000000000000000000000000000000000000000ad78ebc5ac620000",
          "blockHash": "0xe9434879ca31b3f3c43eef4d6f0ab45ec581d032f97867367c9089b3e89ef5b4",
          "blockNumber": "0x11df979e",
          "transactionHash": "0x6737f97dbe4b438c21060c0d694f92981e2789320540d319069d1895b7f50eb3",
          "transactionIndex": "0x7",
          "logIndex": "0x53",
          "removed": false
        },
        {
          "address": "0x0cea072f4490faa57fca58aa9339d4b71210bcd4",
          "topics": [
            "0xddf252ad1be2c89b69c2b068fc378daa952ba7f163c4a11628f55a4df523b3ef",
            "0x0000000000000000000000000000000000000000000000000000000000000000",
            "0x00000000000000000000000083834a1d647e84402e76dd542ad95103ae6bf478"
          ],
          "data": "0x000000000000000000000000000000000000000000000000ad78ebc5ac620000",
          "blockHash": "0xe9434879ca31b3f3c43eef4d6f0ab45ec581d032f97867367c9089b3e89ef5b4",
          "blockNumber": "0x11df979e",
          "transactionHash": "0x6737f97dbe4b438c21060c0d694f92981e2789320540d319069d1895b7f50eb3",
          "transactionIndex": "0x7",
          "logIndex": "0x54",
          "removed": false
        },
        {
          "address": "0x83834a1d647e84402e76dd542ad95103ae6bf478",
          "topics": [
            "0x0ba848deafd25d212eb636f60dd87bf55ab0fd85c23e43a1ec8b4fc01e3bfc85",
            "0x00000000000000000000000003cbd99f5a7c39c7499273abb8363b0372cc7930",
            "0x000000000000000000000000000000000000000000000000ad78ebc5ac620000"
          ],
          "data": "0x",
          "blockHash": "0xe9434879ca31b3f3c43eef4d6f0ab45ec581d032f97867367c9089b3e89ef5b4",
          "blockNumber": "0x11df979e",
          "transactionHash": "0x6737f97dbe4b438c21060c0d694f92981e2789320540d319069d1895b7f50eb3",
          "transactionIndex": "0x7",
          "logIndex": "0x55",
          "removed": false
        },
        {
          "address": "0x1fd3964089c4e3e9ec0cdd32d8a41005cf5e133c",
          "topics": [
            "0x51163a5fd2826e69ff9354aa4104e8882a895188adabe2cc25515372bfd9be88",
            "0x00000000000000000000000003cbd99f5a7c39c7499273abb8363b0372cc7930"
          ],
          "data": "0x4da305c100000000000000000000000000000000000000000000000000000000",
          "blockHash": "0xe9434879ca31b3f3c43eef4d6f0ab45ec581d032f97867367c9089b3e89ef5b4",
          "blockNumber": "0x11df979e",
          "transactionHash": "0x6737f97dbe4b438c21060c0d694f92981e2789320540d319069d1895b7f50eb3",
          "transactionIndex": "0x7",
          "logIndex": "0x56",
          "removed": false
        },
        {
          "address": "0x0cea072f4490faa57fca58aa9339d4b71210bcd4",
          "topics": [
            "0x2eefbcc6809174727cb788be082c392be6c822829c56ab5eb44d528e9d9f37f9",
            "0x00000000000000000000000003cbd99f5a7c39c7499273abb8363b0372cc7930",
            "0x000000000000000000000000000000000000000000000000ad78ebc5ac620000"
          ],
          "data": "0x",
          "blockHash": "0xe9434879ca31b3f3c43eef4d6f0ab45ec581d032f97867367c9089b3e89ef5b4",
          "blockNumber": "0x11df979e",
          "transactionHash": "0x6737f97dbe4b438c21060c0d694f92981e2789320540d319069d1895b7f50eb3",
          "transactionIndex": "0x7",
          "logIndex": "0x57",
          "removed": false
        },
        {
          "address": "0x19d4b337b77b04256668679159e0b78a42fb0a1a",
          "topics": [
            "0xddf252ad1be2c89b69c2b068fc378daa952ba7f163c4a11628f55a4df523b3ef",
            "0x0000000000000000000000003e88e60894d081b27d180fcadd524365a3de7dd4",
            "0x0000000000000000000000000cea072f4490faa57fca58aa9339d4b71210bcd4"
          ],
          "data": "0x000000000000000000000000000000000000000000000000a844a7424d9c8000",
          "blockHash": "0xe9434879ca31b3f3c43eef4d6f0ab45ec581d032f97867367c9089b3e89ef5b4",
          "blockNumber": "0x11df979e",
          "transactionHash": "0x6737f97dbe4b438c21060c0d694f92981e2789320540d319069d1895b7f50eb3",
          "transactionIndex": "0x7",
          "logIndex": "0x58",
          "removed": false
        },
        {
          "address": "0x0cea072f4490faa57fca58aa9339d4b71210bcd4",
          "topics": [
            "0xddf252ad1be2c89b69c2b068fc378daa952ba7f163c4a11628f55a4df523b3ef",
            "0x0000000000000000000000000000000000000000000000000000000000000000",
            "0x00000000000000000000000083834a1d647e84402e76dd542ad95103ae6bf478"
          ],
          "data": "0x000000000000000000000000000000000000000000000000a844a7424d9c8000",
          "blockHash": "0xe9434879ca31b3f3c43eef4d6f0ab45ec581d032f97867367c9089b3e89ef5b4",
          "blockNumber": "0x11df979e",
          "transactionHash": "0x6737f97dbe4b438c21060c0d694f92981e2789320540d319069d1895b7f50eb3",
          "transactionIndex": "0x7",
          "logIndex": "0x59",
          "removed": false
        },
        {
          "address": "0x83834a1d647e84402e76dd542ad95103ae6bf478",
          "topics": [
            "0x0ba848deafd25d212eb636f60dd87bf55ab0fd85c23e43a1ec8b4fc01e3bfc85",
            "0x000000000000000000000000d4d3e342902766344075d06c94391e61a9bb7e60",
            "0x000000000000000000000000000000000000000000000000a844a7424d9c8000"
          ],
          "data": "0x",
          "blockHash": "0xe9434879ca31b3f3c43eef4d6f0ab45ec581d032f97867367c9089b3e89ef5b4",
          "blockNumber": "0x11df979e",
          "transactionHash": "0x6737f97dbe4b438c21060c0d694f92981e2789320540d319069d1895b7f50eb3",
          "transactionIndex": "0x7",
          "logIndex": "0x5a",
          "removed": false
        },
        {
          "address": "0x1fd3964089c4e3e9ec0cdd32d8a41005cf5e133c",
          "topics": [
            "0x51163a5fd2826e69ff9354aa4104e8882a895188adabe2cc25515372bfd9be88",
            "0x000000000000000000000000d4d3e342902766344075d06c94391e61a9bb7e60"
          ],
          "data": "0x4da305c100000000000000000000000000000000000000000000000000000000",
          "blockHash": "0xe9434879ca31b3f3c43eef4d6f0ab45ec581d032f97867367c9089b3e89ef5b4",
          "blockNumber": "0x11df979e",
          "transactionHash": "0x6737f97dbe4b438c21060c0d694f92981e2789320540d319069d1895b7f50eb3",
          "transactionIndex": "0x7",
          "logIndex": "0x5b",
          "removed": false
        },
        {
          "address": "0x0cea072f4490faa57fca58aa9339d4b71210bcd4",
          "topics": [
            "0x2eefbcc6809174727cb788be082c392be6c822829c56ab5eb44d528e9d9f37f9",
            "0x000000000000000000000000d4d3e342902766344075d06c94391e61a9bb7e60",
            "0x000000000000000000000000000000000000000000000000a844a7424d9c8000"
          ],
          "data": "0x",
          "blockHash": "0xe9434879ca31b3f3c43eef4d6f0ab45ec581d032f97867367c9089b3e89ef5b4",
          "blockNumber": "0x11df979e",
          "transactionHash": "0x6737f97dbe4b438c21060c0d694f92981e2789320540d319069d1895b7f50eb3",
          "transactionIndex": "0x7",
          "logIndex": "0x5c",
          "removed": false
        },
        {
          "address": "0x19d4b337b77b04256668679159e0b78a42fb0a1a",
          "topics": [
            "0xddf252ad1be2c89b69c2b068fc378daa952ba7f163c4a11628f55a4df523b3ef",
            "0x0000000000000000000000003e88e60894d081b27d180fcadd524365a3de7dd4",
            "0x0000000000000000000000000cea072f4490faa57fca58aa9339d4b71210bcd4"
          ],
          "data": "0x0000000000000000000000000000000000000000000000008ac7230489e80000",
          "blockHash": "0xe9434879ca31b3f3c43eef4d6f0ab45ec581d032f97867367c9089b3e89ef5b4",
          "blockNumber": "0x11df979e",
          "transactionHash": "0x6737f97dbe4b438c21060c0d694f92981e2789320540d319069d1895b7f50eb3",
          "transactionIndex": "0x7",
          "logIndex": "0x5d",
          "removed": false
        },
        {
          "address": "0x0cea072f4490faa57fca58aa9339d4b71210bcd4",
          "topics": [
            "0xddf252ad1be2c89b69c2b068fc378daa952ba7f163c4a11628f55a4df523b3ef",
            "0x0000000000000000000000000000000000000000000000000000000000000000",
            "0x00000000000000000000000083834a1d647e84402e76dd542ad95103ae6bf478"
          ],
          "data": "0x0000000000000000000000000000000000000000000000008ac7230489e80000",
          "blockHash": "0xe9434879ca31b3f3c43eef4d6f0ab45ec581d032f97867367c9089b3e89ef5b4",
          "blockNumber": "0x11df979e",
          "transactionHash": "0x6737f97dbe4b438c21060c0d694f92981e2789320540d319069d1895b7f50eb3",
          "transactionIndex": "0x7",
          "logIndex": "0x5e",
          "removed": false
        },
        {
          "address": "0x83834a1d647e84402e76dd542ad95103ae6bf478",
          "topics": [
            "0x0ba848deafd25d212eb636f60dd87bf55ab0fd85c23e43a1ec8b4fc01e3bfc85",
            "0x0000000000000000000000008b376f5e02090499c2c4fbd900e1bc18ef4961d4",
            "0x0000000000000000000000000000000000000000000000008ac7230489e80000"
          ],
          "data": "0x",
          "blockHash": "0xe9434879ca31b3f3c43eef4d6f0ab45ec581d032f97867367c9089b3e89ef5b4",
          "blockNumber": "0x11df979e",
          "transactionHash": "0x6737f97dbe4b438c21060c0d694f92981e2789320540d319069d1895b7f50eb3",
          "transactionIndex": "0x7",
          "logIndex": "0x5f",
          "removed": false
        },
        {
          "address": "0x1fd3964089c4e3e9ec0cdd32d8a41005cf5e133c",
          "topics": [
            "0x51163a5fd2826e69ff9354aa4104e8882a895188adabe2cc25515372bfd9be88",
            "0x0000000000000000000000008b376f5e02090499c2c4fbd900e1bc18ef4961d4"
          ],
          "data": "0x4da305c100000000000000000000000000000000000000000000000000000000",
          "blockHash": "0xe9434879ca31b3f3c43eef4d6f0ab45ec581d032f97867367c9089b3e89ef5b4",
          "blockNumber": "0x11df979e",
          "transactionHash": "0x6737f97dbe4b438c21060c0d694f92981e2789320540d319069d1895b7f50eb3",
          "transactionIndex": "0x7",
          "logIndex": "0x60",
          "removed": false
        },
        {
          "address": "0x0cea072f4490faa57fca58aa9339d4b71210bcd4",
          "topics": [
            "0x2eefbcc6809174727cb788be082c392be6c822829c56ab5eb44d528e9d9f37f9",
            "0x0000000000000000000000008b376f5e02090499c2c4fbd900e1bc18ef4961d4",
            "0x0000000000000000000000000000000000000000000000008ac7230489e80000"
          ],
          "data": "0x",
          "blockHash": "0xe9434879ca31b3f3c43eef4d6f0ab45ec581d032f97867367c9089b3e89ef5b4",
          "blockNumber": "0x11df979e",
          "transactionHash": "0x6737f97dbe4b438c21060c0d694f92981e2789320540d319069d1895b7f50eb3",
          "transactionIndex": "0x7",
          "logIndex": "0x61",
          "removed": false
        },
        {
          "address": "0x19d4b337b77b04256668679159e0b78a42fb0a1a",
          "topics": [
            "0xddf252ad1be2c89b69c2b068fc378daa952ba7f163c4a11628f55a4df523b3ef",
            "0x0000000000000000000000003e88e60894d081b27d180fcadd524365a3de7dd4",
            "0x0000000000000000000000000cea072f4490faa57fca58aa9339d4b71210bcd4"
          ],
          "data": "0x0000000000000000000000000000000000000000000000006f05b59d3b200000",
          "blockHash": "0xe9434879ca31b3f3c43eef4d6f0ab45ec581d032f97867367c9089b3e89ef5b4",
          "blockNumber": "0x11df979e",
          "transactionHash": "0x6737f97dbe4b438c21060c0d694f92981e2789320540d319069d1895b7f50eb3",
          "transactionIndex": "0x7",
          "logIndex": "0x62",
          "removed": false
        },
        {
          "address": "0x0cea072f4490faa57fca58aa9339d4b71210bcd4",
          "topics": [
            "0xddf252ad1be2c89b69c2b068fc378daa952ba7f163c4a11628f55a4df523b3ef",
            "0x0000000000000000000000000000000000000000000000000000000000000000",
            "0x00000000000000000000000083834a1d647e84402e76dd542ad95103ae6bf478"
          ],
          "data": "0x0000000000000000000000000000000000000000000000006f05b59d3b200000",
          "blockHash": "0xe9434879ca31b3f3c43eef4d6f0ab45ec581d032f97867367c9089b3e89ef5b4",
          "blockNumber": "0x11df979e",
          "transactionHash": "0x6737f97dbe4b438c21060c0d694f92981e2789320540d319069d1895b7f50eb3",
          "transactionIndex": "0x7",
          "logIndex": "0x63",
          "removed": false
        },
        {
          "address": "0x83834a1d647e84402e76dd542ad95103ae6bf478",
          "topics": [
            "0x0ba848deafd25d212eb636f60dd87bf55ab0fd85c23e43a1ec8b4fc01e3bfc85",
            "0x0000000000000000000000003f6a905ff080c3e0a6307af4cfe9842ad87ebceb",
            "0x0000000000000000000000000000000000000000000000006f05b59d3b200000"
          ],
          "data": "0x",
          "blockHash": "0xe9434879ca31b3f3c43eef4d6f0ab45ec581d032f97867367c9089b3e89ef5b4",
          "blockNumber": "0x11df979e",
          "transactionHash": "0x6737f97dbe4b438c21060c0d694f92981e2789320540d319069d1895b7f50eb3",
          "transactionIndex": "0x7",
          "logIndex": "0x64",
          "removed": false
        },
        {
          "address": "0x1fd3964089c4e3e9ec0cdd32d8a41005cf5e133c",
          "topics": [
            "0x51163a5fd2826e69ff9354aa4104e8882a895188adabe2cc25515372bfd9be88",
            "0x0000000000000000000000003f6a905ff080c3e0a6307af4cfe9842ad87ebceb"
          ],
          "data": "0x4da305c100000000000000000000000000000000000000000000000000000000",
          "blockHash": "0xe9434879ca31b3f3c43eef4d6f0ab45ec581d032f97867367c9089b3e89ef5b4",
          "blockNumber": "0x11df979e",
          "transactionHash": "0x6737f97dbe4b438c21060c0d694f92981e2789320540d319069d1895b7f50eb3",
          "transactionIndex": "0x7",
          "logIndex": "0x65",
          "removed": false
        },
        {
          "address": "0x0cea072f4490faa57fca58aa9339d4b71210bcd4",
          "topics": [
            "0x2eefbcc6809174727cb788be082c392be6c822829c56ab5eb44d528e9d9f37f9",
            "0x0000000000000000000000003f6a905ff080c3e0a6307af4cfe9842ad87ebceb",
            "0x0000000000000000000000000000000000000000000000006f05b59d3b200000"
          ],
          "data": "0x",
          "blockHash": "0xe9434879ca31b3f3c43eef4d6f0ab45ec581d032f97867367c9089b3e89ef5b4",
          "blockNumber": "0x11df979e",
          "transactionHash": "0x6737f97dbe4b438c21060c0d694f92981e2789320540d319069d1895b7f50eb3",
          "transactionIndex": "0x7",
          "logIndex": "0x66",
          "removed": false
        },
        {
          "address": "0x19d4b337b77b04256668679159e0b78a42fb0a1a",
          "topics": [
            "0xddf252ad1be2c89b69c2b068fc378daa952ba7f163c4a11628f55a4df523b3ef",
            "0x0000000000000000000000003e88e60894d081b27d180fcadd524365a3de7dd4",
            "0x0000000000000000000000000cea072f4490faa57fca58aa9339d4b71210bcd4"
          ],
          "data": "0x0000000000000000000000000000000000000000000000004563918244f40000",
          "blockHash": "0xe9434879ca31b3f3c43eef4d6f0ab45ec581d032f97867367c9089b3e89ef5b4",
          "blockNumber": "0x11df979e",
          "transactionHash": "0x6737f97dbe4b438c21060c0d694f92981e2789320540d319069d1895b7f50eb3",
          "transactionIndex": "0x7",
          "logIndex": "0x67",
          "removed": false
        },
        {
          "address": "0x0cea072f4490faa57fca58aa9339d4b71210bcd4",
          "topics": [
            "0xddf252ad1be2c89b69c2b068fc378daa952ba7f163c4a11628f55a4df523b3ef",
            "0x0000000000000000000000000000000000000000000000000000000000000000",
            "0x00000000000000000000000083834a1d647e84402e76dd542ad95103ae6bf478"
          ],
          "data": "0x0000000000000000000000000000000000000000000000004563918244f40000",
          "blockHash": "0xe9434879ca31b3f3c43eef4d6f0ab45ec581d032f97867367c9089b3e89ef5b4",
          "blockNumber": "0x11df979e",
          "transactionHash": "0x6737f97dbe4b438c21060c0d694f92981e2789320540d319069d1895b7f50eb3",
          "transactionIndex": "0x7",
          "logIndex": "0x68",
          "removed": false
        },
        {
          "address": "0x83834a1d647e84402e76dd542ad95103ae6bf478",
          "topics": [
            "0x0ba848deafd25d212eb636f60dd87bf55ab0fd85c23e43a1ec8b4fc01e3bfc85",
            "0x0000000000000000000000000d81acc4a7f0b48874147ef7073ebc1bb3d2a7af",
            "0x0000000000000000000000000000000000000000000000004563918244f40000"
          ],
          "data": "0x",
          "blockHash": "0xe9434879ca31b3f3c43eef4d6f0ab45ec581d032f97867367c9089b3e89ef5b4",
          "blockNumber": "0x11df979e",
          "transactionHash": "0x6737f97dbe4b438c21060c0d694f92981e2789320540d319069d1895b7f50eb3",
          "transactionIndex": "0x7",
          "logIndex": "0x69",
          "removed": false
        },
        {
          "address": "0x1fd3964089c4e3e9ec0cdd32d8a41005cf5e133c",
          "topics": [
            "0x51163a5fd2826e69ff9354aa4104e8882a895188adabe2cc25515372bfd9be88",
            "0x0000000000000000000000000d81acc4a7f0b48874147ef7073ebc1bb3d2a7af"
          ],
          "data": "0x4da305c100000000000000000000000000000000000000000000000000000000",
          "blockHash": "0xe9434879ca31b3f3c43eef4d6f0ab45ec581d032f97867367c9089b3e89ef5b4",
          "blockNumber": "0x11df979e",
          "transactionHash": "0x6737f97dbe4b438c21060c0d694f92981e2789320540d319069d1895b7f50eb3",
          "transactionIndex": "0x7",
          "logIndex": "0x6a",
          "removed": false
        },
        {
          "address": "0x0cea072f4490faa57fca58aa9339d4b71210bcd4",
          "topics": [
            "0x2eefbcc6809174727cb788be082c392be6c822829c56ab5eb44d528e9d9f37f9",
            "0x0000000000000000000000000d81acc4a7f0b48874147ef7073ebc1bb3d2a7af",
            "0x0000000000000000000000000000000000000000000000004563918244f40000"
          ],
          "data": "0x",
          "blockHash": "0xe9434879ca31b3f3c43eef4d6f0ab45ec581d032f97867367c9089b3e89ef5b4",
          "blockNumber": "0x11df979e",
          "transactionHash": "0x6737f97dbe4b438c21060c0d694f92981e2789320540d319069d1895b7f50eb3",
          "transactionIndex": "0x7",
          "logIndex": "0x6b",
          "removed": false
        },
        {
          "address": "0x19d4b337b77b04256668679159e0b78a42fb0a1a",
          "topics": [
            "0xddf252ad1be2c89b69c2b068fc378daa952ba7f163c4a11628f55a4df523b3ef",
            "0x0000000000000000000000003e88e60894d081b27d180fcadd524365a3de7dd4",
            "0x0000000000000000000000000cea072f4490faa57fca58aa9339d4b71210bcd4"
          ],
          "data": "0x0000000000000000000000000000000000000000000000004563918244f40000",
          "blockHash": "0xe9434879ca31b3f3c43eef4d6f0ab45ec581d032f97867367c9089b3e89ef5b4",
          "blockNumber": "0x11df979e",
          "transactionHash": "0x6737f97dbe4b438c21060c0d694f92981e2789320540d319069d1895b7f50eb3",
          "transactionIndex": "0x7",
          "logIndex": "0x6c",
          "removed": false
        },
        {
          "address": "0x0cea072f4490faa57fca58aa9339d4b71210bcd4",
          "topics": [
            "0xddf252ad1be2c89b69c2b068fc378daa952ba7f163c4a11628f55a4df523b3ef",
            "0x0000000000000000000000000000000000000000000000000000000000000000",
            "0x00000000000000000000000083834a1d647e84402e76dd542ad95103ae6bf478"
          ],
          "data": "0x0000000000000000000000000000000000000000000000004563918244f40000",
          "blockHash": "0xe9434879ca31b3f3c43eef4d6f0ab45ec581d032f97867367c9089b3e89ef5b4",
          "blockNumber": "0x11df979e",
          "transactionHash": "0x6737f97dbe4b438c21060c0d694f92981e2789320540d319069d1895b7f50eb3",
          "transactionIndex": "0x7",
          "logIndex": "0x6d",
          "removed": false
        },
        {
          "address": "0x83834a1d647e84402e76dd542ad95103ae6bf478",
          "topics": [
            "0x0ba848deafd25d212eb636f60dd87bf55ab0fd85c23e43a1ec8b4fc01e3bfc85",
            "0x000000000000000000000000fb59b257af5518787e32d8dd1a8cf0de13393385",
            "0x0000000000000000000000000000000000000000000000004563918244f40000"
          ],
          "data": "0x",
          "blockHash": "0xe9434879ca31b3f3c43eef4d6f0ab45ec581d032f97867367c9089b3e89ef5b4",
          "blockNumber": "0x11df979e",
          "transactionHash": "0x6737f97dbe4b438c21060c0d694f92981e2789320540d319069d1895b7f50eb3",
          "transactionIndex": "0x7",
          "logIndex": "0x6e",
          "removed": false
        },
        {
          "address": "0x1fd3964089c4e3e9ec0cdd32d8a41005cf5e133c",
          "topics": [
            "0x51163a5fd2826e69ff9354aa4104e8882a895188adabe2cc25515372bfd9be88",
            "0x000000000000000000000000fb59b257af5518787e32d8dd1a8cf0de13393385"
          ],
          "data": "0x4da305c100000000000000000000000000000000000000000000000000000000",
          "blockHash": "0xe9434879ca31b3f3c43eef4d6f0ab45ec581d032f97867367c9089b3e89ef5b4",
          "blockNumber": "0x11df979e",
          "transactionHash": "0x6737f97dbe4b438c21060c0d694f92981e2789320540d319069d1895b7f50eb3",
          "transactionIndex": "0x7",
          "logIndex": "0x6f",
          "removed": false
        },
        {
          "address": "0x0cea072f4490faa57fca58aa9339d4b71210bcd4",
          "topics": [
            "0x2eefbcc6809174727cb788be082c392be6c822829c56ab5eb44d528e9d9f37f9",
            "0x000000000000000000000000fb59b257af5518787e32d8dd1a8cf0de13393385",
            "0x0000000000000000000000000000000000000000000000004563918244f40000"
          ],
          "data": "0x",
          "blockHash": "0xe9434879ca31b3f3c43eef4d6f0ab45ec581d032f97867367c9089b3e89ef5b4",
          "blockNumber": "0x11df979e",
          "transactionHash": "0x6737f97dbe4b438c21060c0d694f92981e2789320540d319069d1895b7f50eb3",
          "transactionIndex": "0x7",
          "logIndex": "0x70",
          "removed": false
        },
        {
          "address": "0x19d4b337b77b04256668679159e0b78a42fb0a1a",
          "topics": [
            "0xddf252ad1be2c89b69c2b068fc378daa952ba7f163c4a11628f55a4df523b3ef",
            "0x0000000000000000000000003e88e60894d081b27d180fcadd524365a3de7dd4",
            "0x0000000000000000000000000cea072f4490faa57fca58aa9339d4b71210bcd4"
          ],
          "data": "0x000000000000000000000000000000000000000000000000340aad21b3b70000",
          "blockHash": "0xe9434879ca31b3f3c43eef4d6f0ab45ec581d032f97867367c9089b3e89ef5b4",
          "blockNumber": "0x11df979e",
          "transactionHash": "0x6737f97dbe4b438c21060c0d694f92981e2789320540d319069d1895b7f50eb3",
          "transactionIndex": "0x7",
          "logIndex": "0x71",
          "removed": false
        },
        {
          "address": "0x0cea072f4490faa57fca58aa9339d4b71210bcd4",
          "topics": [
            "0xddf252ad1be2c89b69c2b068fc378daa952ba7f163c4a11628f55a4df523b3ef",
            "0x0000000000000000000000000000000000000000000000000000000000000000",
            "0x00000000000000000000000083834a1d647e84402e76dd542ad95103ae6bf478"
          ],
          "data": "0x000000000000000000000000000000000000000000000000340aad21b3b70000",
          "blockHash": "0xe9434879ca31b3f3c43eef4d6f0ab45ec581d032f97867367c9089b3e89ef5b4",
          "blockNumber": "0x11df979e",
          "transactionHash": "0x6737f97dbe4b438c21060c0d694f92981e2789320540d319069d1895b7f50eb3",
          "transactionIndex": "0x7",
          "logIndex": "0x72",
          "removed": false
        },
        {
          "address": "0x83834a1d647e84402e76dd542ad95103ae6bf478",
          "topics": [
            "0x0ba848deafd25d212eb636f60dd87bf55ab0fd85c23e43a1ec8b4fc01e3bfc85",
            "0x000000000000000000000000d42cf8d4f72a6b26e13efe43a198aaf05cb835ae",
            "0x000000000000000000000000000000000000000000000000340aad21b3b70000"
          ],
          "data": "0x",
          "blockHash": "0xe9434879ca31b3f3c43eef4d6f0ab45ec581d032f97867367c9089b3e89ef5b4",
          "blockNumber": "0x11df979e",
          "transactionHash": "0x6737f97dbe4b438c21060c0d694f92981e2789320540d319069d1895b7f50eb3",
          "transactionIndex": "0x7",
          "logIndex": "0x73",
          "removed": false
        },
        {
          "address": "0x1fd3964089c4e3e9ec0cdd32d8a41005cf5e133c",
          "topics": [
            "0x51163a5fd2826e69ff9354aa4104e8882a895188adabe2cc25515372bfd9be88",
            "0x000000000000000000000000d42cf8d4f72a6b26e13efe43a198aaf05cb835ae"
          ],
          "data": "0x4da305c100000000000000000000000000000000000000000000000000000000",
          "blockHash": "0xe9434879ca31b3f3c43eef4d6f0ab45ec581d032f97867367c9089b3e89ef5b4",
          "blockNumber": "0x11df979e",
          "transactionHash": "0x6737f97dbe4b438c21060c0d694f92981e2789320540d319069d1895b7f50eb3",
          "transactionIndex": "0x7",
          "logIndex": "0x74",
          "removed": false
        },
        {
          "address": "0x0cea072f4490faa57fca58aa9339d4b71210bcd4",
          "topics": [
            "0x2eefbcc6809174727cb788be082c392be6c822829c56ab5eb44d528e9d9f37f9",
            "0x000000000000000000000000d42cf8d4f72a6b26e13efe43a198aaf05cb835ae",
            "0x000000000000000000000000000000000000000000000000340aad21b3b70000"
          ],
          "data": "0x",
          "blockHash": "0xe9434879ca31b3f3c43eef4d6f0ab45ec581d032f97867367c9089b3e89ef5b4",
          "blockNumber": "0x11df979e",
          "transactionHash": "0x6737f97dbe4b438c21060c0d694f92981e2789320540d319069d1895b7f50eb3",
          "transactionIndex": "0x7",
          "logIndex": "0x75",
          "removed": false
        },
        {
          "address": "0x19d4b337b77b04256668679159e0b78a42fb0a1a",
          "topics": [
            "0xddf252ad1be2c89b69c2b068fc378daa952ba7f163c4a11628f55a4df523b3ef",
            "0x0000000000000000000000003e88e60894d081b27d180fcadd524365a3de7dd4",
            "0x0000000000000000000000000cea072f4490faa57fca58aa9339d4b71210bcd4"
          ],
          "data": "0x00000000000000000000000000000000000000000000000032a767a9562d0000",
          "blockHash": "0xe9434879ca31b3f3c43eef4d6f0ab45ec581d032f97867367c9089b3e89ef5b4",
          "blockNumber": "0x11df979e",
          "transactionHash": "0x6737f97dbe4b438c21060c0d694f92981e2789320540d319069d1895b7f50eb3",
          "transactionIndex": "0x7",
          "logIndex": "0x76",
          "removed": false
        },
        {
          "address": "0x0cea072f4490faa57fca58aa9339d4b71210bcd4",
          "topics": [
            "0xddf252ad1be2c89b69c2b068fc378daa952ba7f163c4a11628f55a4df523b3ef",
            "0x0000000000000000000000000000000000000000000000000000000000000000",
            "0x00000000000000000000000083834a1d647e84402e76dd542ad95103ae6bf478"
          ],
          "data": "0x00000000000000000000000000000000000000000000000032a767a9562d0000",
          "blockHash": "0xe9434879ca31b3f3c43eef4d6f0ab45ec581d032f97867367c9089b3e89ef5b4",
          "blockNumber": "0x11df979e",
          "transactionHash": "0x6737f97dbe4b438c21060c0d694f92981e2789320540d319069d1895b7f50eb3",
          "transactionIndex": "0x7",
          "logIndex": "0x77",
          "removed": false
        },
        {
          "address": "0x83834a1d647e84402e76dd542ad95103ae6bf478",
          "topics": [
            "0x0ba848deafd25d212eb636f60dd87bf55ab0fd85c23e43a1ec8b4fc01e3bfc85",
            "0x0000000000000000000000003e03b0593e125666ba4b7479186b20fbd4146df3",
            "0x00000000000000000000000000000000000000000000000032a767a9562d0000"
          ],
          "data": "0x",
          "blockHash": "0xe9434879ca31b3f3c43eef4d6f0ab45ec581d032f97867367c9089b3e89ef5b4",
          "blockNumber": "0x11df979e",
          "transactionHash": "0x6737f97dbe4b438c21060c0d694f92981e2789320540d319069d1895b7f50eb3",
          "transactionIndex": "0x7",
          "logIndex": "0x78",
          "removed": false
        },
        {
          "address": "0x1fd3964089c4e3e9ec0cdd32d8a41005cf5e133c",
          "topics": [
            "0x51163a5fd2826e69ff9354aa4104e8882a895188adabe2cc25515372bfd9be88",
            "0x0000000000000000000000003e03b0593e125666ba4b7479186b20fbd4146df3"
          ],
          "data": "0x4da305c100000000000000000000000000000000000000000000000000000000",
          "blockHash": "0xe9434879ca31b3f3c43eef4d6f0ab45ec581d032f97867367c9089b3e89ef5b4",
          "blockNumber": "0x11df979e",
          "transactionHash": "0x6737f97dbe4b438c21060c0d694f92981e2789320540d319069d1895b7f50eb3",
          "transactionIndex": "0x7",
          "logIndex": "0x79",
          "removed": false
        },
        {
          "address": "0x0cea072f4490faa57fca58aa9339d4b71210bcd4",
          "topics": [
            "0x2eefbcc6809174727cb788be082c392be6c822829c56ab5eb44d528e9d9f37f9",
            "0x0000000000000000000000003e03b0593e125666ba4b7479186b20fbd4146df3",
            "0x00000000000000000000000000000000000000000000000032a767a9562d0000"
          ],
          "data": "0x",
          "blockHash": "0xe9434879ca31b3f3c43eef4d6f0ab45ec581d032f97867367c9089b3e89ef5b4",
          "blockNumber": "0x11df979e",
          "transactionHash": "0x6737f97dbe4b438c21060c0d694f92981e2789320540d319069d1895b7f50eb3",
          "transactionIndex": "0x7",
          "logIndex": "0x7a",
          "removed": false
        },
        {
          "address": "0x19d4b337b77b04256668679159e0b78a42fb0a1a",
          "topics": [
            "0xddf252ad1be2c89b69c2b068fc378daa952ba7f163c4a11628f55a4df523b3ef",
            "0x0000000000000000000000003e88e60894d081b27d180fcadd524365a3de7dd4",
            "0x0000000000000000000000000cea072f4490faa57fca58aa9339d4b71210bcd4"
          ],
          "data": "0x00000000000000000000000000000000000000000000000022b1c8c1227a0000",
          "blockHash": "0xe9434879ca31b3f3c43eef4d6f0ab45ec581d032f97867367c9089b3e89ef5b4",
          "blockNumber": "0x11df979e",
          "transactionHash": "0x6737f97dbe4b438c21060c0d694f92981e2789320540d319069d1895b7f50eb3",
          "transactionIndex": "0x7",
          "logIndex": "0x7b",
          "removed": false
        },
        {
          "address": "0x0cea072f4490faa57fca58aa9339d4b71210bcd4",
          "topics": [
            "0xddf252ad1be2c89b69c2b068fc378daa952ba7f163c4a11628f55a4df523b3ef",
            "0x0000000000000000000000000000000000000000000000000000000000000000",
            "0x00000000000000000000000083834a1d647e84402e76dd542ad95103ae6bf478"
          ],
          "data": "0x00000000000000000000000000000000000000000000000022b1c8c1227a0000",
          "blockHash": "0xe9434879ca31b3f3c43eef4d6f0ab45ec581d032f97867367c9089b3e89ef5b4",
          "blockNumber": "0x11df979e",
          "transactionHash": "0x6737f97dbe4b438c21060c0d694f92981e2789320540d319069d1895b7f50eb3",
          "transactionIndex": "0x7",
          "logIndex": "0x7c",
          "removed": false
        },
        {
          "address": "0x83834a1d647e84402e76dd542ad95103ae6bf478",
          "topics": [
            "0x0ba848deafd25d212eb636f60dd87bf55ab0fd85c23e43a1ec8b4fc01e3bfc85",
            "0x0000000000000000000000006501b7a416ed4d861129a4b2efa90b364d4e776c",
            "0x00000000000000000000000000000000000000000000000022b1c8c1227a0000"
          ],
          "data": "0x",
          "blockHash": "0xe9434879ca31b3f3c43eef4d6f0ab45ec581d032f97867367c9089b3e89ef5b4",
          "blockNumber": "0x11df979e",
          "transactionHash": "0x6737f97dbe4b438c21060c0d694f92981e2789320540d319069d1895b7f50eb3",
          "transactionIndex": "0x7",
          "logIndex": "0x7d",
          "removed": false
        },
        {
          "address": "0x1fd3964089c4e3e9ec0cdd32d8a41005cf5e133c",
          "topics": [
            "0x51163a5fd2826e69ff9354aa4104e8882a895188adabe2cc25515372bfd9be88",
            "0x0000000000000000000000006501b7a416ed4d861129a4b2efa90b364d4e776c"
          ],
          "data": "0x4da305c100000000000000000000000000000000000000000000000000000000",
          "blockHash": "0xe9434879ca31b3f3c43eef4d6f0ab45ec581d032f97867367c9089b3e89ef5b4",
          "blockNumber": "0x11df979e",
          "transactionHash": "0x6737f97dbe4b438c21060c0d694f92981e2789320540d319069d1895b7f50eb3",
          "transactionIndex": "0x7",
          "logIndex": "0x7e",
          "removed": false
        },
        {
          "address": "0x0cea072f4490faa57fca58aa9339d4b71210bcd4",
          "topics": [
            "0x2eefbcc6809174727cb788be082c392be6c822829c56ab5eb44d528e9d9f37f9",
            "0x0000000000000000000000006501b7a416ed4d861129a4b2efa90b364d4e776c",
            "0x00000000000000000000000000000000000000000000000022b1c8c1227a0000"
          ],
          "data": "0x",
          "blockHash": "0xe9434879ca31b3f3c43eef4d6f0ab45ec581d032f97867367c9089b3e89ef5b4",
          "blockNumber": "0x11df979e",
          "transactionHash": "0x6737f97dbe4b438c21060c0d694f92981e2789320540d319069d1895b7f50eb3",
          "transactionIndex": "0x7",
          "logIndex": "0x7f",
          "removed": false
        },
        {
          "address": "0x19d4b337b77b04256668679159e0b78a42fb0a1a",
          "topics": [
            "0xddf252ad1be2c89b69c2b068fc378daa952ba7f163c4a11628f55a4df523b3ef",
            "0x0000000000000000000000003e88e60894d081b27d180fcadd524365a3de7dd4",
            "0x0000000000000000000000000cea072f4490faa57fca58aa9339d4b71210bcd4"
          ],
          "data": "0x0000000000000000000000000000000000000000000000001bc16d674ec80000",
          "blockHash": "0xe9434879ca31b3f3c43eef4d6f0ab45ec581d032f97867367c9089b3e89ef5b4",
          "blockNumber": "0x11df979e",
          "transactionHash": "0x6737f97dbe4b438c21060c0d694f92981e2789320540d319069d1895b7f50eb3",
          "transactionIndex": "0x7",
          "logIndex": "0x80",
          "removed": false
        },
        {
          "address": "0x0cea072f4490faa57fca58aa9339d4b71210bcd4",
          "topics": [
            "0xddf252ad1be2c89b69c2b068fc378daa952ba7f163c4a11628f55a4df523b3ef",
            "0x0000000000000000000000000000000000000000000000000000000000000000",
            "0x00000000000000000000000083834a1d647e84402e76dd542ad95103ae6bf478"
          ],
          "data": "0x0000000000000000000000000000000000000000000000001bc16d674ec80000",
          "blockHash": "0xe9434879ca31b3f3c43eef4d6f0ab45ec581d032f97867367c9089b3e89ef5b4",
          "blockNumber": "0x11df979e",
          "transactionHash": "0x6737f97dbe4b438c21060c0d694f92981e2789320540d319069d1895b7f50eb3",
          "transactionIndex": "0x7",
          "logIndex": "0x81",
          "removed": false
        },
        {
          "address": "0x83834a1d647e84402e76dd542ad95103ae6bf478",
          "topics": [
            "0x0ba848deafd25d212eb636f60dd87bf55ab0fd85c23e43a1ec8b4fc01e3bfc85",
            "0x0000000000000000000000009a3b020a09a5ee27ce172336ae406dc01e4950bf",
            "0x0000000000000000000000000000000000000000000000001bc16d674ec80000"
          ],
          "data": "0x",
          "blockHash": "0xe9434879ca31b3f3c43eef4d6f0ab45ec581d032f97867367c9089b3e89ef5b4",
          "blockNumber": "0x11df979e",
          "transactionHash": "0x6737f97dbe4b438c21060c0d694f92981e2789320540d319069d1895b7f50eb3",
          "transactionIndex": "0x7",
          "logIndex": "0x82",
          "removed": false
        },
        {
          "address": "0x1fd3964089c4e3e9ec0cdd32d8a41005cf5e133c",
          "topics": [
            "0x51163a5fd2826e69ff9354aa4104e8882a895188adabe2cc25515372bfd9be88",
            "0x0000000000000000000000009a3b020a09a5ee27ce172336ae406dc01e4950bf"
          ],
          "data": "0x4da305c100000000000000000000000000000000000000000000000000000000",
          "blockHash": "0xe9434879ca31b3f3c43eef4d6f0ab45ec581d032f97867367c9089b3e89ef5b4",
          "blockNumber": "0x11df979e",
          "transactionHash": "0x6737f97dbe4b438c21060c0d694f92981e2789320540d319069d1895b7f50eb3",
          "transactionIndex": "0x7",
          "logIndex": "0x83",
          "removed": false
        },
        {
          "address": "0x0cea072f4490faa57fca58aa9339d4b71210bcd4",
          "topics": [
            "0x2eefbcc6809174727cb788be082c392be6c822829c56ab5eb44d528e9d9f37f9",
            "0x0000000000000000000000009a3b020a09a5ee27ce172336ae406dc01e4950bf",
            "0x0000000000000000000000000000000000000000000000001bc16d674ec80000"
          ],
          "data": "0x",
          "blockHash": "0xe9434879ca31b3f3c43eef4d6f0ab45ec581d032f97867367c9089b3e89ef5b4",
          "blockNumber": "0x11df979e",
          "transactionHash": "0x6737f97dbe4b438c21060c0d694f92981e2789320540d319069d1895b7f50eb3",
          "transactionIndex": "0x7",
          "logIndex": "0x84",
          "removed": false
        },
        {
          "address": "0x19d4b337b77b04256668679159e0b78a42fb0a1a",
          "topics": [
            "0xddf252ad1be2c89b69c2b068fc378daa952ba7f163c4a11628f55a4df523b3ef",
            "0x0000000000000000000000003e88e60894d081b27d180fcadd524365a3de7dd4",
            "0x0000000000000000000000000cea072f4490faa57fca58aa9339d4b71210bcd4"
          ],
          "data": "0x0000000000000000000000000000000000000000000000001bc16d674ec80000",
          "blockHash": "0xe9434879ca31b3f3c43eef4d6f0ab45ec581d032f97867367c9089b3e89ef5b4",
          "blockNumber": "0x11df979e",
          "transactionHash": "0x6737f97dbe4b438c21060c0d694f92981e2789320540d319069d1895b7f50eb3",
          "transactionIndex": "0x7",
          "logIndex": "0x85",
          "removed": false
        },
        {
          "address": "0x0cea072f4490faa57fca58aa9339d4b71210bcd4",
          "topics": [
            "0xddf252ad1be2c89b69c2b068fc378daa952ba7f163c4a11628f55a4df523b3ef",
            "0x0000000000000000000000000000000000000000000000000000000000000000",
            "0x00000000000000000000000083834a1d647e84402e76dd542ad95103ae6bf478"
          ],
          "data": "0x0000000000000000000000000000000000000000000000001bc16d674ec80000",
          "blockHash": "0xe9434879ca31b3f3c43eef4d6f0ab45ec581d032f97867367c9089b3e89ef5b4",
          "blockNumber": "0x11df979e",
          "transactionHash": "0x6737f97dbe4b438c21060c0d694f92981e2789320540d319069d1895b7f50eb3",
          "transactionIndex": "0x7",
          "logIndex": "0x86",
          "removed": false
        },
        {
          "address": "0x83834a1d647e84402e76dd542ad95103ae6bf478",
          "topics": [
            "0x0ba848deafd25d212eb636f60dd87bf55ab0fd85c23e43a1ec8b4fc01e3bfc85",
            "0x000000000000000000000000a9e94416aa43913c8e779cf356bc0c6a250ea6bf",
            "0x0000000000000000000000000000000000000000000000001bc16d674ec80000"
          ],
          "data": "0x",
          "blockHash": "0xe9434879ca31b3f3c43eef4d6f0ab45ec581d032f97867367c9089b3e89ef5b4",
          "blockNumber": "0x11df979e",
          "transactionHash": "0x6737f97dbe4b438c21060c0d694f92981e2789320540d319069d1895b7f50eb3",
          "transactionIndex": "0x7",
          "logIndex": "0x87",
          "removed": false
        },
        {
          "address": "0x1fd3964089c4e3e9ec0cdd32d8a41005cf5e133c",
          "topics": [
            "0x51163a5fd2826e69ff9354aa4104e8882a895188adabe2cc25515372bfd9be88",
            "0x000000000000000000000000a9e94416aa43913c8e779cf356bc0c6a250ea6bf"
          ],
          "data": "0x4da305c100000000000000000000000000000000000000000000000000000000",
          "blockHash": "0xe9434879ca31b3f3c43eef4d6f0ab45ec581d032f97867367c9089b3e89ef5b4",
          "blockNumber": "0x11df979e",
          "transactionHash": "0x6737f97dbe4b438c21060c0d694f92981e2789320540d319069d1895b7f50eb3",
          "transactionIndex": "0x7",
          "logIndex": "0x88",
          "removed": false
        },
        {
          "address": "0x0cea072f4490faa57fca58aa9339d4b71210bcd4",
          "topics": [
            "0x2eefbcc6809174727cb788be082c392be6c822829c56ab5eb44d528e9d9f37f9",
            "0x000000000000000000000000a9e94416aa43913c8e779cf356bc0c6a250ea6bf",
            "0x0000000000000000000000000000000000000000000000001bc16d674ec80000"
          ],
          "data": "0x",
          "blockHash": "0xe9434879ca31b3f3c43eef4d6f0ab45ec581d032f97867367c9089b3e89ef5b4",
          "blockNumber": "0x11df979e",
          "transactionHash": "0x6737f97dbe4b438c21060c0d694f92981e2789320540d319069d1895b7f50eb3",
          "transactionIndex": "0x7",
          "logIndex": "0x89",
          "removed": false
        },
        {
          "address": "0x19d4b337b77b04256668679159e0b78a42fb0a1a",
          "topics": [
            "0xddf252ad1be2c89b69c2b068fc378daa952ba7f163c4a11628f55a4df523b3ef",
            "0x0000000000000000000000003e88e60894d081b27d180fcadd524365a3de7dd4",
            "0x0000000000000000000000000cea072f4490faa57fca58aa9339d4b71210bcd4"
          ],
          "data": "0x00000000000000000000000000000000000000000000000014a4a95e6f64c000",
          "blockHash": "0xe9434879ca31b3f3c43eef4d6f0ab45ec581d032f97867367c9089b3e89ef5b4",
          "blockNumber": "0x11df979e",
          "transactionHash": "0x6737f97dbe4b438c21060c0d694f92981e2789320540d319069d1895b7f50eb3",
          "transactionIndex": "0x7",
          "logIndex": "0x8a",
          "removed": false
        },
        {
          "address": "0x0cea072f4490faa57fca58aa9339d4b71210bcd4",
          "topics": [
            "0xddf252ad1be2c89b69c2b068fc378daa952ba7f163c4a11628f55a4df523b3ef",
            "0x0000000000000000000000000000000000000000000000000000000000000000",
            "0x00000000000000000000000083834a1d647e84402e76dd542ad95103ae6bf478"
          ],
          "data": "0x00000000000000000000000000000000000000000000000014a4a95e6f64c000",
          "blockHash": "0xe9434879ca31b3f3c43eef4d6f0ab45ec581d032f97867367c9089b3e89ef5b4",
          "blockNumber": "0x11df979e",
          "transactionHash": "0x6737f97dbe4b438c21060c0d694f92981e2789320540d319069d1895b7f50eb3",
          "transactionIndex": "0x7",
          "logIndex": "0x8b",
          "removed": false
        },
        {
          "address": "0x83834a1d647e84402e76dd542ad95103ae6bf478",
          "topics": [
            "0x0ba848deafd25d212eb636f60dd87bf55ab0fd85c23e43a1ec8b4fc01e3bfc85",
            "0x0000000000000000000000003dac0bddfa0f9b3d86031a0bfbf7804030ab83b2",
            "0x00000000000000000000000000000000000000000000000014a4a95e6f64c000"
          ],
          "data": "0x",
          "blockHash": "0xe9434879ca31b3f3c43eef4d6f0ab45ec581d032f97867367c9089b3e89ef5b4",
          "blockNumber": "0x11df979e",
          "transactionHash": "0x6737f97dbe4b438c21060c0d694f92981e2789320540d319069d1895b7f50eb3",
          "transactionIndex": "0x7",
          "logIndex": "0x8c",
          "removed": false
        },
        {
          "address": "0x1fd3964089c4e3e9ec0cdd32d8a41005cf5e133c",
          "topics": [
            "0x51163a5fd2826e69ff9354aa4104e8882a895188adabe2cc25515372bfd9be88",
            "0x0000000000000000000000003dac0bddfa0f9b3d86031a0bfbf7804030ab83b2"
          ],
          "data": "0x4da305c100000000000000000000000000000000000000000000000000000000",
          "blockHash": "0xe9434879ca31b3f3c43eef4d6f0ab45ec581d032f97867367c9089b3e89ef5b4",
          "blockNumber": "0x11df979e",
          "transactionHash": "0x6737f97dbe4b438c21060c0d694f92981e2789320540d319069d1895b7f50eb3",
          "transactionIndex": "0x7",
          "logIndex": "0x8d",
          "removed": false
        },
        {
          "address": "0x0cea072f4490faa57fca58aa9339d4b71210bcd4",
          "topics": [
            "0x2eefbcc6809174727cb788be082c392be6c822829c56ab5eb44d528e9d9f37f9",
            "0x0000000000000000000000003dac0bddfa0f9b3d86031a0bfbf7804030ab83b2",
            "0x00000000000000000000000000000000000000000000000014a4a95e6f64c000"
          ],
          "data": "0x",
          "blockHash": "0xe9434879ca31b3f3c43eef4d6f0ab45ec581d032f97867367c9089b3e89ef5b4",
          "blockNumber": "0x11df979e",
          "transactionHash": "0x6737f97dbe4b438c21060c0d694f92981e2789320540d319069d1895b7f50eb3",
          "transactionIndex": "0x7",
          "logIndex": "0x8e",
          "removed": false
        },
        {
          "address": "0x19d4b337b77b04256668679159e0b78a42fb0a1a",
          "topics": [
            "0xddf252ad1be2c89b69c2b068fc378daa952ba7f163c4a11628f55a4df523b3ef",
            "0x0000000000000000000000003e88e60894d081b27d180fcadd524365a3de7dd4",
            "0x0000000000000000000000000cea072f4490faa57fca58aa9339d4b71210bcd4"
          ],
          "data": "0x0000000000000000000000000000000000000000000000001158e460913d0000",
          "blockHash": "0xe9434879ca31b3f3c43eef4d6f0ab45ec581d032f97867367c9089b3e89ef5b4",
          "blockNumber": "0x11df979e",
          "transactionHash": "0x6737f97dbe4b438c21060c0d694f92981e2789320540d319069d1895b7f50eb3",
          "transactionIndex": "0x7",
          "logIndex": "0x8f",
          "removed": false
        },
        {
          "address": "0x0cea072f4490faa57fca58aa9339d4b71210bcd4",
          "topics": [
            "0xddf252ad1be2c89b69c2b068fc378daa952ba7f163c4a11628f55a4df523b3ef",
            "0x0000000000000000000000000000000000000000000000000000000000000000",
            "0x00000000000000000000000083834a1d647e84402e76dd542ad95103ae6bf478"
          ],
          "data": "0x0000000000000000000000000000000000000000000000001158e460913d0000",
          "blockHash": "0xe9434879ca31b3f3c43eef4d6f0ab45ec581d032f97867367c9089b3e89ef5b4",
          "blockNumber": "0x11df979e",
          "transactionHash": "0x6737f97dbe4b438c21060c0d694f92981e2789320540d319069d1895b7f50eb3",
          "transactionIndex": "0x7",
          "logIndex": "0x90",
          "removed": false
        },
        {
          "address": "0x83834a1d647e84402e76dd542ad95103ae6bf478",
          "topics": [
            "0x0ba848deafd25d212eb636f60dd87bf55ab0fd85c23e43a1ec8b4fc01e3bfc85",
            "0x000000000000000000000000061bc6f643038e4d6561af4ebbc0b127cc5316cf",
            "0x0000000000000000000000000000000000000000000000001158e460913d0000"
          ],
          "data": "0x",
          "blockHash": "0xe9434879ca31b3f3c43eef4d6f0ab45ec581d032f97867367c9089b3e89ef5b4",
          "blockNumber": "0x11df979e",
          "transactionHash": "0x6737f97dbe4b438c21060c0d694f92981e2789320540d319069d1895b7f50eb3",
          "transactionIndex": "0x7",
          "logIndex": "0x91",
          "removed": false
        },
        {
          "address": "0x1fd3964089c4e3e9ec0cdd32d8a41005cf5e133c",
          "topics": [
            "0x51163a5fd2826e69ff9354aa4104e8882a895188adabe2cc25515372bfd9be88",
            "0x000000000000000000000000061bc6f643038e4d6561af4ebbc0b127cc5316cf"
          ],
          "data": "0x4da305c100000000000000000000000000000000000000000000000000000000",
          "blockHash": "0xe9434879ca31b3f3c43eef4d6f0ab45ec581d032f97867367c9089b3e89ef5b4",
          "blockNumber": "0x11df979e",
          "transactionHash": "0x6737f97dbe4b438c21060c0d694f92981e2789320540d319069d1895b7f50eb3",
          "transactionIndex": "0x7",
          "logIndex": "0x92",
          "removed": false
        },
        {
          "address": "0x0cea072f4490faa57fca58aa9339d4b71210bcd4",
          "topics": [
            "0x2eefbcc6809174727cb788be082c392be6c822829c56ab5eb44d528e9d9f37f9",
            "0x000000000000000000000000061bc6f643038e4d6561af4ebbc0b127cc5316cf",
            "0x0000000000000000000000000000000000000000000000001158e460913d0000"
          ],
          "data": "0x",
          "blockHash": "0xe9434879ca31b3f3c43eef4d6f0ab45ec581d032f97867367c9089b3e89ef5b4",
          "blockNumber": "0x11df979e",
          "transactionHash": "0x6737f97dbe4b438c21060c0d694f92981e2789320540d319069d1895b7f50eb3",
          "transactionIndex": "0x7",
          "logIndex": "0x93",
          "removed": false
        },
        {
          "address": "0x19d4b337b77b04256668679159e0b78a42fb0a1a",
          "topics": [
            "0xddf252ad1be2c89b69c2b068fc378daa952ba7f163c4a11628f55a4df523b3ef",
            "0x0000000000000000000000003e88e60894d081b27d180fcadd524365a3de7dd4",
            "0x0000000000000000000000000cea072f4490faa57fca58aa9339d4b71210bcd4"
          ],
          "data": "0x0000000000000000000000000000000000000000000000001158e460913d0000",
          "blockHash": "0xe9434879ca31b3f3c43eef4d6f0ab45ec581d032f97867367c9089b3e89ef5b4",
          "blockNumber": "0x11df979e",
          "transactionHash": "0x6737f97dbe4b438c21060c0d694f92981e2789320540d319069d1895b7f50eb3",
          "transactionIndex": "0x7",
          "logIndex": "0x94",
          "removed": false
        },
        {
          "address": "0x0cea072f4490faa57fca58aa9339d4b71210bcd4",
          "topics": [
            "0xddf252ad1be2c89b69c2b068fc378daa952ba7f163c4a11628f55a4df523b3ef",
            "0x0000000000000000000000000000000000000000000000000000000000000000",
            "0x00000000000000000000000083834a1d647e84402e76dd542ad95103ae6bf478"
          ],
          "data": "0x0000000000000000000000000000000000000000000000001158e460913d0000",
          "blockHash": "0xe9434879ca31b3f3c43eef4d6f0ab45ec581d032f97867367c9089b3e89ef5b4",
          "blockNumber": "0x11df979e",
          "transactionHash": "0x6737f97dbe4b438c21060c0d694f92981e2789320540d319069d1895b7f50eb3",
          "transactionIndex": "0x7",
          "logIndex": "0x95",
          "removed": false
        },
        {
          "address": "0x83834a1d647e84402e76dd542ad95103ae6bf478",
          "topics": [
            "0x0ba848deafd25d212eb636f60dd87bf55ab0fd85c23e43a1ec8b4fc01e3bfc85",
            "0x000000000000000000000000c3d5cdc556bf7a012039194a5575486c212164a9",
            "0x0000000000000000000000000000000000000000000000001158e460913d0000"
          ],
          "data": "0x",
          "blockHash": "0xe9434879ca31b3f3c43eef4d6f0ab45ec581d032f97867367c9089b3e89ef5b4",
          "blockNumber": "0x11df979e",
          "transactionHash": "0x6737f97dbe4b438c21060c0d694f92981e2789320540d319069d1895b7f50eb3",
          "transactionIndex": "0x7",
          "logIndex": "0x96",
          "removed": false
        },
        {
          "address": "0x1fd3964089c4e3e9ec0cdd32d8a41005cf5e133c",
          "topics": [
            "0x51163a5fd2826e69ff9354aa4104e8882a895188adabe2cc25515372bfd9be88",
            "0x000000000000000000000000c3d5cdc556bf7a012039194a5575486c212164a9"
          ],
          "data": "0x4da305c100000000000000000000000000000000000000000000000000000000",
          "blockHash": "0xe9434879ca31b3f3c43eef4d6f0ab45ec581d032f97867367c9089b3e89ef5b4",
          "blockNumber": "0x11df979e",
          "transactionHash": "0x6737f97dbe4b438c21060c0d694f92981e2789320540d319069d1895b7f50eb3",
          "transactionIndex": "0x7",
          "logIndex": "0x97",
          "removed": false
        },
        {
          "address": "0x0cea072f4490faa57fca58aa9339d4b71210bcd4",
          "topics": [
            "0x2eefbcc6809174727cb788be082c392be6c822829c56ab5eb44d528e9d9f37f9",
            "0x000000000000000000000000c3d5cdc556bf7a012039194a5575486c212164a9",
            "0x0000000000000000000000000000000000000000000000001158e460913d0000"
          ],
          "data": "0x",
          "blockHash": "0xe9434879ca31b3f3c43eef4d6f0ab45ec581d032f97867367c9089b3e89ef5b4",
          "blockNumber": "0x11df979e",
          "transactionHash": "0x6737f97dbe4b438c21060c0d694f92981e2789320540d319069d1895b7f50eb3",
          "transactionIndex": "0x7",
          "logIndex": "0x98",
          "removed": false
        },
        {
          "address": "0x19d4b337b77b04256668679159e0b78a42fb0a1a",
          "topics": [
            "0xddf252ad1be2c89b69c2b068fc378daa952ba7f163c4a11628f55a4df523b3ef",
            "0x0000000000000000000000003e88e60894d081b27d180fcadd524365a3de7dd4",
            "0x0000000000000000000000000cea072f4490faa57fca58aa9339d4b71210bcd4"
          ],
          "data": "0x0000000000000000000000000000000000000000000000001158e460913d0000",
          "blockHash": "0xe9434879ca31b3f3c43eef4d6f0ab45ec581d032f97867367c9089b3e89ef5b4",
          "blockNumber": "0x11df979e",
          "transactionHash": "0x6737f97dbe4b438c21060c0d694f92981e2789320540d319069d1895b7f50eb3",
          "transactionIndex": "0x7",
          "logIndex": "0x99",
          "removed": false
        },
        {
          "address": "0x0cea072f4490faa57fca58aa9339d4b71210bcd4",
          "topics": [
            "0xddf252ad1be2c89b69c2b068fc378daa952ba7f163c4a11628f55a4df523b3ef",
            "0x0000000000000000000000000000000000000000000000000000000000000000",
            "0x00000000000000000000000083834a1d647e84402e76dd542ad95103ae6bf478"
          ],
          "data": "0x0000000000000000000000000000000000000000000000001158e460913d0000",
          "blockHash": "0xe9434879ca31b3f3c43eef4d6f0ab45ec581d032f97867367c9089b3e89ef5b4",
          "blockNumber": "0x11df979e",
          "transactionHash": "0x6737f97dbe4b438c21060c0d694f92981e2789320540d319069d1895b7f50eb3",
          "transactionIndex": "0x7",
          "logIndex": "0x9a",
          "removed": false
        },
        {
          "address": "0x83834a1d647e84402e76dd542ad95103ae6bf478",
          "topics": [
            "0x0ba848deafd25d212eb636f60dd87bf55ab0fd85c23e43a1ec8b4fc01e3bfc85",
            "0x00000000000000000000000046ba2ebde072bea26fa4b54eec6b6c39b5fec10e",
            "0x0000000000000000000000000000000000000000000000001158e460913d0000"
          ],
          "data": "0x",
          "blockHash": "0xe9434879ca31b3f3c43eef4d6f0ab45ec581d032f97867367c9089b3e89ef5b4",
          "blockNumber": "0x11df979e",
          "transactionHash": "0x6737f97dbe4b438c21060c0d694f92981e2789320540d319069d1895b7f50eb3",
          "transactionIndex": "0x7",
          "logIndex": "0x9b",
          "removed": false
        },
        {
          "address": "0x1fd3964089c4e3e9ec0cdd32d8a41005cf5e133c",
          "topics": [
            "0x51163a5fd2826e69ff9354aa4104e8882a895188adabe2cc25515372bfd9be88",
            "0x00000000000000000000000046ba2ebde072bea26fa4b54eec6b6c39b5fec10e"
          ],
          "data": "0x4da305c100000000000000000000000000000000000000000000000000000000",
          "blockHash": "0xe9434879ca31b3f3c43eef4d6f0ab45ec581d032f97867367c9089b3e89ef5b4",
          "blockNumber": "0x11df979e",
          "transactionHash": "0x6737f97dbe4b438c21060c0d694f92981e2789320540d319069d1895b7f50eb3",
          "transactionIndex": "0x7",
          "logIndex": "0x9c",
          "removed": false
        },
        {
          "address": "0x0cea072f4490faa57fca58aa9339d4b71210bcd4",
          "topics": [
            "0x2eefbcc6809174727cb788be082c392be6c822829c56ab5eb44d528e9d9f37f9",
            "0x00000000000000000000000046ba2ebde072bea26fa4b54eec6b6c39b5fec10e",
            "0x0000000000000000000000000000000000000000000000001158e460913d0000"
          ],
          "data": "0x",
          "blockHash": "0xe9434879ca31b3f3c43eef4d6f0ab45ec581d032f97867367c9089b3e89ef5b4",
          "blockNumber": "0x11df979e",
          "transactionHash": "0x6737f97dbe4b438c21060c0d694f92981e2789320540d319069d1895b7f50eb3",
          "transactionIndex": "0x7",
          "logIndex": "0x9d",
          "removed": false
        },
        {
          "address": "0x19d4b337b77b04256668679159e0b78a42fb0a1a",
          "topics": [
            "0xddf252ad1be2c89b69c2b068fc378daa952ba7f163c4a11628f55a4df523b3ef",
            "0x0000000000000000000000003e88e60894d081b27d180fcadd524365a3de7dd4",
            "0x0000000000000000000000000cea072f4490faa57fca58aa9339d4b71210bcd4"
          ],
          "data": "0x0000000000000000000000000000000000000000000000001158e460913d0000",
          "blockHash": "0xe9434879ca31b3f3c43eef4d6f0ab45ec581d032f97867367c9089b3e89ef5b4",
          "blockNumber": "0x11df979e",
          "transactionHash": "0x6737f97dbe4b438c21060c0d694f92981e2789320540d319069d1895b7f50eb3",
          "transactionIndex": "0x7",
          "logIndex": "0x9e",
          "removed": false
        },
        {
          "address": "0x0cea072f4490faa57fca58aa9339d4b71210bcd4",
          "topics": [
            "0xddf252ad1be2c89b69c2b068fc378daa952ba7f163c4a11628f55a4df523b3ef",
            "0x0000000000000000000000000000000000000000000000000000000000000000",
            "0x00000000000000000000000083834a1d647e84402e76dd542ad95103ae6bf478"
          ],
          "data": "0x0000000000000000000000000000000000000000000000001158e460913d0000",
          "blockHash": "0xe9434879ca31b3f3c43eef4d6f0ab45ec581d032f97867367c9089b3e89ef5b4",
          "blockNumber": "0x11df979e",
          "transactionHash": "0x6737f97dbe4b438c21060c0d694f92981e2789320540d319069d1895b7f50eb3",
          "transactionIndex": "0x7",
          "logIndex": "0x9f",
          "removed": false
        },
        {
          "address": "0x83834a1d647e84402e76dd542ad95103ae6bf478",
          "topics": [
            "0x0ba848deafd25d212eb636f60dd87bf55ab0fd85c23e43a1ec8b4fc01e3bfc85",
            "0x000000000000000000000000fb2afe0ba538f839d093197c1c324ab3bc73d53f",
            "0x0000000000000000000000000000000000000000000000001158e460913d0000"
          ],
          "data": "0x",
          "blockHash": "0xe9434879ca31b3f3c43eef4d6f0ab45ec581d032f97867367c9089b3e89ef5b4",
          "blockNumber": "0x11df979e",
          "transactionHash": "0x6737f97dbe4b438c21060c0d694f92981e2789320540d319069d1895b7f50eb3",
          "transactionIndex": "0x7",
          "logIndex": "0xa0",
          "removed": false
        },
        {
          "address": "0x1fd3964089c4e3e9ec0cdd32d8a41005cf5e133c",
          "topics": [
            "0x51163a5fd2826e69ff9354aa4104e8882a895188adabe2cc25515372bfd9be88",
            "0x000000000000000000000000fb2afe0ba538f839d093197c1c324ab3bc73d53f"
          ],
          "data": "0x4da305c100000000000000000000000000000000000000000000000000000000",
          "blockHash": "0xe9434879ca31b3f3c43eef4d6f0ab45ec581d032f97867367c9089b3e89ef5b4",
          "blockNumber": "0x11df979e",
          "transactionHash": "0x6737f97dbe4b438c21060c0d694f92981e2789320540d319069d1895b7f50eb3",
          "transactionIndex": "0x7",
          "logIndex": "0xa1",
          "removed": false
        },
        {
          "address": "0x0cea072f4490faa57fca58aa9339d4b71210bcd4",
          "topics": [
            "0x2eefbcc6809174727cb788be082c392be6c822829c56ab5eb44d528e9d9f37f9",
            "0x000000000000000000000000fb2afe0ba538f839d093197c1c324ab3bc73d53f",
            "0x0000000000000000000000000000000000000000000000001158e460913d0000"
          ],
          "data": "0x",
          "blockHash": "0xe9434879ca31b3f3c43eef4d6f0ab45ec581d032f97867367c9089b3e89ef5b4",
          "blockNumber": "0x11df979e",
          "transactionHash": "0x6737f97dbe4b438c21060c0d694f92981e2789320540d319069d1895b7f50eb3",
          "transactionIndex": "0x7",
          "logIndex": "0xa2",
          "removed": false
        },
        {
          "address": "0x19d4b337b77b04256668679159e0b78a42fb0a1a",
          "topics": [
            "0xddf252ad1be2c89b69c2b068fc378daa952ba7f163c4a11628f55a4df523b3ef",
            "0x0000000000000000000000003e88e60894d081b27d180fcadd524365a3de7dd4",
            "0x0000000000000000000000000cea072f4490faa57fca58aa9339d4b71210bcd4"
          ],
          "data": "0x0000000000000000000000000000000000000000000000000de0b6b3a7640000",
          "blockHash": "0xe9434879ca31b3f3c43eef4d6f0ab45ec581d032f97867367c9089b3e89ef5b4",
          "blockNumber": "0x11df979e",
          "transactionHash": "0x6737f97dbe4b438c21060c0d694f92981e2789320540d319069d1895b7f50eb3",
          "transactionIndex": "0x7",
          "logIndex": "0xa3",
          "removed": false
        },
        {
          "address": "0x0cea072f4490faa57fca58aa9339d4b71210bcd4",
          "topics": [
            "0xddf252ad1be2c89b69c2b068fc378daa952ba7f163c4a11628f55a4df523b3ef",
            "0x0000000000000000000000000000000000000000000000000000000000000000",
            "0x00000000000000000000000083834a1d647e84402e76dd542ad95103ae6bf478"
          ],
          "data": "0x0000000000000000000000000000000000000000000000000de0b6b3a7640000",
          "blockHash": "0xe9434879ca31b3f3c43eef4d6f0ab45ec581d032f97867367c9089b3e89ef5b4",
          "blockNumber": "0x11df979e",
          "transactionHash": "0x6737f97dbe4b438c21060c0d694f92981e2789320540d319069d1895b7f50eb3",
          "transactionIndex": "0x7",
          "logIndex": "0xa4",
          "removed": false
        },
        {
          "address": "0x83834a1d647e84402e76dd542ad95103ae6bf478",
          "topics": [
            "0x0ba848deafd25d212eb636f60dd87bf55ab0fd85c23e43a1ec8b4fc01e3bfc85",
            "0x0000000000000000000000006405f47be0d616e7f59749cdaf8e8b180caa18cb",
            "0x0000000000000000000000000000000000000000000000000de0b6b3a7640000"
          ],
          "data": "0x",
          "blockHash": "0xe9434879ca31b3f3c43eef4d6f0ab45ec581d032f97867367c9089b3e89ef5b4",
          "blockNumber": "0x11df979e",
          "transactionHash": "0x6737f97dbe4b438c21060c0d694f92981e2789320540d319069d1895b7f50eb3",
          "transactionIndex": "0x7",
          "logIndex": "0xa5",
          "removed": false
        },
        {
          "address": "0x1fd3964089c4e3e9ec0cdd32d8a41005cf5e133c",
          "topics": [
            "0x51163a5fd2826e69ff9354aa4104e8882a895188adabe2cc25515372bfd9be88",
            "0x0000000000000000000000006405f47be0d616e7f59749cdaf8e8b180caa18cb"
          ],
          "data": "0x4da305c100000000000000000000000000000000000000000000000000000000",
          "blockHash": "0xe9434879ca31b3f3c43eef4d6f0ab45ec581d032f97867367c9089b3e89ef5b4",
          "blockNumber": "0x11df979e",
          "transactionHash": "0x6737f97dbe4b438c21060c0d694f92981e2789320540d319069d1895b7f50eb3",
          "transactionIndex": "0x7",
          "logIndex": "0xa6",
          "removed": false
        },
        {
          "address": "0x0cea072f4490faa57fca58aa9339d4b71210bcd4",
          "topics": [
            "0x2eefbcc6809174727cb788be082c392be6c822829c56ab5eb44d528e9d9f37f9",
            "0x0000000000000000000000006405f47be0d616e7f59749cdaf8e8b180caa18cb",
            "0x0000000000000000000000000000000000000000000000000de0b6b3a7640000"
          ],
          "data": "0x",
          "blockHash": "0xe9434879ca31b3f3c43eef4d6f0ab45ec581d032f97867367c9089b3e89ef5b4",
          "blockNumber": "0x11df979e",
          "transactionHash": "0x6737f97dbe4b438c21060c0d694f92981e2789320540d319069d1895b7f50eb3",
          "transactionIndex": "0x7",
          "logIndex": "0xa7",
          "removed": false
        },
        {
          "address": "0x19d4b337b77b04256668679159e0b78a42fb0a1a",
          "topics": [
            "0xddf252ad1be2c89b69c2b068fc378daa952ba7f163c4a11628f55a4df523b3ef",
            "0x0000000000000000000000003e88e60894d081b27d180fcadd524365a3de7dd4",
            "0x0000000000000000000000000cea072f4490faa57fca58aa9339d4b71210bcd4"
          ],
          "data": "0x0000000000000000000000000000000000000000000000000de0b6b3a7640000",
          "blockHash": "0xe9434879ca31b3f3c43eef4d6f0ab45ec581d032f97867367c9089b3e89ef5b4",
          "blockNumber": "0x11df979e",
          "transactionHash": "0x6737f97dbe4b438c21060c0d694f92981e2789320540d319069d1895b7f50eb3",
          "transactionIndex": "0x7",
          "logIndex": "0xa8",
          "removed": false
        },
        {
          "address": "0x0cea072f4490faa57fca58aa9339d4b71210bcd4",
          "topics": [
            "0xddf252ad1be2c89b69c2b068fc378daa952ba7f163c4a11628f55a4df523b3ef",
            "0x0000000000000000000000000000000000000000000000000000000000000000",
            "0x00000000000000000000000083834a1d647e84402e76dd542ad95103ae6bf478"
          ],
          "data": "0x0000000000000000000000000000000000000000000000000de0b6b3a7640000",
          "blockHash": "0xe9434879ca31b3f3c43eef4d6f0ab45ec581d032f97867367c9089b3e89ef5b4",
          "blockNumber": "0x11df979e",
          "transactionHash": "0x6737f97dbe4b438c21060c0d694f92981e2789320540d319069d1895b7f50eb3",
          "transactionIndex": "0x7",
          "logIndex": "0xa9",
          "removed": false
        },
        {
          "address": "0x83834a1d647e84402e76dd542ad95103ae6bf478",
          "topics": [
            "0x0ba848deafd25d212eb636f60dd87bf55ab0fd85c23e43a1ec8b4fc01e3bfc85",
            "0x0000000000000000000000003bd358b35b6ff3cadf01ac118b3d21ee62e56c0c",
            "0x0000000000000000000000000000000000000000000000000de0b6b3a7640000"
          ],
          "data": "0x",
          "blockHash": "0xe9434879ca31b3f3c43eef4d6f0ab45ec581d032f97867367c9089b3e89ef5b4",
          "blockNumber": "0x11df979e",
          "transactionHash": "0x6737f97dbe4b438c21060c0d694f92981e2789320540d319069d1895b7f50eb3",
          "transactionIndex": "0x7",
          "logIndex": "0xaa",
          "removed": false
        },
        {
          "address": "0x1fd3964089c4e3e9ec0cdd32d8a41005cf5e133c",
          "topics": [
            "0x51163a5fd2826e69ff9354aa4104e8882a895188adabe2cc25515372bfd9be88",
            "0x0000000000000000000000003bd358b35b6ff3cadf01ac118b3d21ee62e56c0c"
          ],
          "data": "0x4da305c100000000000000000000000000000000000000000000000000000000",
          "blockHash": "0xe9434879ca31b3f3c43eef4d6f0ab45ec581d032f97867367c9089b3e89ef5b4",
          "blockNumber": "0x11df979e",
          "transactionHash": "0x6737f97dbe4b438c21060c0d694f92981e2789320540d319069d1895b7f50eb3",
          "transactionIndex": "0x7",
          "logIndex": "0xab",
          "removed": false
        },
        {
          "address": "0x0cea072f4490faa57fca58aa9339d4b71210bcd4",
          "topics": [
            "0x2eefbcc6809174727cb788be082c392be6c822829c56ab5eb44d528e9d9f37f9",
            "0x0000000000000000000000003bd358b35b6ff3cadf01ac118b3d21ee62e56c0c",
            "0x0000000000000000000000000000000000000000000000000de0b6b3a7640000"
          ],
          "data": "0x",
          "blockHash": "0xe9434879ca31b3f3c43eef4d6f0ab45ec581d032f97867367c9089b3e89ef5b4",
          "blockNumber": "0x11df979e",
          "transactionHash": "0x6737f97dbe4b438c21060c0d694f92981e2789320540d319069d1895b7f50eb3",
          "transactionIndex": "0x7",
          "logIndex": "0xac",
          "removed": false
        },
        {
          "address": "0x19d4b337b77b04256668679159e0b78a42fb0a1a",
          "topics": [
            "0xddf252ad1be2c89b69c2b068fc378daa952ba7f163c4a11628f55a4df523b3ef",
            "0x0000000000000000000000003e88e60894d081b27d180fcadd524365a3de7dd4",
            "0x0000000000000000000000000cea072f4490faa57fca58aa9339d4b71210bcd4"
          ],
          "data": "0x0000000000000000000000000000000000000000000000000de0b6b3a7640000",
          "blockHash": "0xe9434879ca31b3f3c43eef4d6f0ab45ec581d032f97867367c9089b3e89ef5b4",
          "blockNumber": "0x11df979e",
          "transactionHash": "0x6737f97dbe4b438c21060c0d694f92981e2789320540d319069d1895b7f50eb3",
          "transactionIndex": "0x7",
          "logIndex": "0xad",
          "removed": false
        },
        {
          "address": "0x0cea072f4490faa57fca58aa9339d4b71210bcd4",
          "topics": [
            "0xddf252ad1be2c89b69c2b068fc378daa952ba7f163c4a11628f55a4df523b3ef",
            "0x0000000000000000000000000000000000000000000000000000000000000000",
            "0x00000000000000000000000083834a1d647e84402e76dd542ad95103ae6bf478"
          ],
          "data": "0x0000000000000000000000000000000000000000000000000de0b6b3a7640000",
          "blockHash": "0xe9434879ca31b3f3c43eef4d6f0ab45ec581d032f97867367c9089b3e89ef5b4",
          "blockNumber": "0x11df979e",
          "transactionHash": "0x6737f97dbe4b438c21060c0d694f92981e2789320540d319069d1895b7f50eb3",
          "transactionIndex": "0x7",
          "logIndex": "0xae",
          "removed": false
        },
        {
          "address": "0x83834a1d647e84402e76dd542ad95103ae6bf478",
          "topics": [
            "0x0ba848deafd25d212eb636f60dd87bf55ab0fd85c23e43a1ec8b4fc01e3bfc85",
            "0x000000000000000000000000eee9ef09b9d9de0b8aa47a781ba7acf87818c05f",
            "0x0000000000000000000000000000000000000000000000000de0b6b3a7640000"
          ],
          "data": "0x",
          "blockHash": "0xe9434879ca31b3f3c43eef4d6f0ab45ec581d032f97867367c9089b3e89ef5b4",
          "blockNumber": "0x11df979e",
          "transactionHash": "0x6737f97dbe4b438c21060c0d694f92981e2789320540d319069d1895b7f50eb3",
          "transactionIndex": "0x7",
          "logIndex": "0xaf",
          "removed": false
        },
        {
          "address": "0x1fd3964089c4e3e9ec0cdd32d8a41005cf5e133c",
          "topics": [
            "0x51163a5fd2826e69ff9354aa4104e8882a895188adabe2cc25515372bfd9be88",
            "0x000000000000000000000000eee9ef09b9d9de0b8aa47a781ba7acf87818c05f"
          ],
          "data": "0x4da305c100000000000000000000000000000000000000000000000000000000",
          "blockHash": "0xe9434879ca31b3f3c43eef4d6f0ab45ec581d032f97867367c9089b3e89ef5b4",
          "blockNumber": "0x11df979e",
          "transactionHash": "0x6737f97dbe4b438c21060c0d694f92981e2789320540d319069d1895b7f50eb3",
          "transactionIndex": "0x7",
          "logIndex": "0xb0",
          "removed": false
        },
        {
          "address": "0x0cea072f4490faa57fca58aa9339d4b71210bcd4",
          "topics": [
            "0x2eefbcc6809174727cb788be082c392be6c822829c56ab5eb44d528e9d9f37f9",
            "0x000000000000000000000000eee9ef09b9d9de0b8aa47a781ba7acf87818c05f",
            "0x0000000000000000000000000000000000000000000000000de0b6b3a7640000"
          ],
          "data": "0x",
          "blockHash": "0xe9434879ca31b3f3c43eef4d6f0ab45ec581d032f97867367c9089b3e89ef5b4",
          "blockNumber": "0x11df979e",
          "transactionHash": "0x6737f97dbe4b438c21060c0d694f92981e2789320540d319069d1895b7f50eb3",
          "transactionIndex": "0x7",
          "logIndex": "0xb1",
          "removed": false
        },
        {
          "address": "0x19d4b337b77b04256668679159e0b78a42fb0a1a",
          "topics": [
            "0xddf252ad1be2c89b69c2b068fc378daa952ba7f163c4a11628f55a4df523b3ef",
            "0x0000000000000000000000003e88e60894d081b27d180fcadd524365a3de7dd4",
            "0x0000000000000000000000000cea072f4490faa57fca58aa9339d4b71210bcd4"
          ],
          "data": "0x0000000000000000000000000000000000000000000000000de0b6b3a7640000",
          "blockHash": "0xe9434879ca31b3f3c43eef4d6f0ab45ec581d032f97867367c9089b3e89ef5b4",
          "blockNumber": "0x11df979e",
          "transactionHash": "0x6737f97dbe4b438c21060c0d694f92981e2789320540d319069d1895b7f50eb3",
          "transactionIndex": "0x7",
          "logIndex": "0xb2",
          "removed": false
        },
        {
          "address": "0x0cea072f4490faa57fca58aa9339d4b71210bcd4",
          "topics": [
            "0xddf252ad1be2c89b69c2b068fc378daa952ba7f163c4a11628f55a4df523b3ef",
            "0x0000000000000000000000000000000000000000000000000000000000000000",
            "0x00000000000000000000000083834a1d647e84402e76dd542ad95103ae6bf478"
          ],
          "data": "0x0000000000000000000000000000000000000000000000000de0b6b3a7640000",
          "blockHash": "0xe9434879ca31b3f3c43eef4d6f0ab45ec581d032f97867367c9089b3e89ef5b4",
          "blockNumber": "0x11df979e",
          "transactionHash": "0x6737f97dbe4b438c21060c0d694f92981e2789320540d319069d1895b7f50eb3",
          "transactionIndex": "0x7",
          "logIndex": "0xb3",
          "removed": false
        },
        {
          "address": "0x83834a1d647e84402e76dd542ad95103ae6bf478",
          "topics": [
            "0x0ba848deafd25d212eb636f60dd87bf55ab0fd85c23e43a1ec8b4fc01e3bfc85",
            "0x00000000000000000000000012f6471bf62193467e0985cad1747d077dfc0723",
            "0x0000000000000000000000000000000000000000000000000de0b6b3a7640000"
          ],
          "data": "0x",
          "blockHash": "0xe9434879ca31b3f3c43eef4d6f0ab45ec581d032f97867367c9089b3e89ef5b4",
          "blockNumber": "0x11df979e",
          "transactionHash": "0x6737f97dbe4b438c21060c0d694f92981e2789320540d319069d1895b7f50eb3",
          "transactionIndex": "0x7",
          "logIndex": "0xb4",
          "removed": false
        },
        {
          "address": "0x1fd3964089c4e3e9ec0cdd32d8a41005cf5e133c",
          "topics": [
            "0x51163a5fd2826e69ff9354aa4104e8882a895188adabe2cc25515372bfd9be88",
            "0x00000000000000000000000012f6471bf62193467e0985cad1747d077dfc0723"
          ],
          "data": "0x4da305c100000000000000000000000000000000000000000000000000000000",
          "blockHash": "0xe9434879ca31b3f3c43eef4d6f0ab45ec581d032f97867367c9089b3e89ef5b4",
          "blockNumber": "0x11df979e",
          "transactionHash": "0x6737f97dbe4b438c21060c0d694f92981e2789320540d319069d1895b7f50eb3",
          "transactionIndex": "0x7",
          "logIndex": "0xb5",
          "removed": false
        },
        {
          "address": "0x0cea072f4490faa57fca58aa9339d4b71210bcd4",
          "topics": [
            "0x2eefbcc6809174727cb788be082c392be6c822829c56ab5eb44d528e9d9f37f9",
            "0x00000000000000000000000012f6471bf62193467e0985cad1747d077dfc0723",
            "0x0000000000000000000000000000000000000000000000000de0b6b3a7640000"
          ],
          "data": "0x",
          "blockHash": "0xe9434879ca31b3f3c43eef4d6f0ab45ec581d032f97867367c9089b3e89ef5b4",
          "blockNumber": "0x11df979e",
          "transactionHash": "0x6737f97dbe4b438c21060c0d694f92981e2789320540d319069d1895b7f50eb3",
          "transactionIndex": "0x7",
          "logIndex": "0xb6",
          "removed": false
        }
      ],
      "logsBloom": "0x0000030a06c030020000028850000001000a0001000002048420c04002000800001000200000100220040221000040228000811010010020880004004081c00001000000100401000841211802012200020000000004010004040000a20000020100000013100000a020040042c8080080e0008002200400020210380040412440000008400022040c602008000002000001000000412040c5003090081080101000000208882000080000000022518004004021000908008000000020480140001001020018060024000100c209800000008000000040000004000000002400000041002a001000840010004080405000000020081000400000400011004208",
      "type": "0x2",
      "transactionHash": "0x6737f97dbe4b438c21060c0d694f92981e2789320540d319069d1895b7f50eb3",
      "transactionIndex": "0x7",
      "blockHash": "0xe9434879ca31b3f3c43eef4d6f0ab45ec581d032f97867367c9089b3e89ef5b4",
      "blockNumber": "0x11df979e",
      "gasUsed": "0x67c26e",
      "effectiveGasPrice": "0x989680",
      "from": "0x3e88e60894d081b27d180fcadd524365a3de7dd4",
      "to": "0x0cea072f4490faa57fca58aa9339d4b71210bcd4",
      "contractAddress": null,
      "gasUsedForL1": "0x206937",
      "l1BlockNumber": "0x14b5fe2"
    }
  ],
  "libraries": [],
  "pending": [],
  "returns": {},
  "timestamp": 1737994212,
  "chain": 42161,
  "commit": "85a5338"
}