{
  "transactions": [
    {
      "hash": "0x2b74a22cd861339a77865df2ec0ce822ad83bbd1aeee717d94faae34e7cba80f",
      "transactionType": "CALL",
      "contractName": null,
      "contractAddress": "0xe32c731f4c9423e397385a0183f6eb6abe712db9",
      "function": "pause()",
      "arguments": [],
      "transaction": {
        "from": "0x3e88e60894d081b27d180fcadd524365a3de7dd4",
        "to": "0xe32c731f4c9423e397385a0183f6eb6abe712db9",
        "gas": "0x1f96a",
        "value": "0x0",
        "input": "0x8456cb59",
        "nonce": "0x1b",
        "chainId": "0xa4b1"
      },
      "additionalContracts": [],
      "isFixedGasLimit": false
    },
    {
      "hash": "0xef3b812c0824a6f4336218ea809a9d2fbdfb482af04c3bd025ef196eed477ef1",
      "transactionType": "CREATE",
      "contractName": "SafeYieldPresale",
      "contractAddress": "0x63aa64bb6dea0fee2c6a7503ea950ce39d5bbe7c",
      "function": null,
      "arguments": [
        "0x19D4b337B77b04256668679159E0b78A42fb0a1a",
        "0xaf88d065e77c8cC2239327C5EDb3A432268e5831",
        "0x184F397A215c9458264D5b2498f86eD7b048AA36",
        "1000000000000000000",
        "2000000000000000000000000",
        "800000000000000000",
        "500",
        "500",
        "0xb7eCbD7262a9250A44EaA040A2B2a184536F3861"
      ],
      "transaction": {
        "from": "0x3e88e60894d081b27d180fcadd524365a3de7dd4",
        "gas": "0x6913f7",
        "value": "0x0",
        "input": "0x60e060405234801561001057600080fd5b50604051612af2380380612af283398101604081905261002f91610289565b6000805460ff19169055338061005f57604051631e4fbdf760e01b81526000600482015260240160405180910390fd5b610068816101e1565b50846001600160801b0316866001600160801b0316111561009c57604051630e2c544560e11b815260040160405180910390fd5b6127106001600160801b0384161015806100c157506127106001600160801b03831610155b156100df576040516305570de160e41b815260040160405180910390fd5b836001600160801b0316600003610109576040516309380ced60e21b815260040160405180910390fd5b6001600160a01b038916158061012657506001600160a01b038816155b8061013857506001600160a01b038716155b8061014a57506001600160a01b038116155b1561016857604051634bae762960e11b815260040160405180910390fd5b600280546001600160a01b0319166001600160a01b0392831617905597881660a05295871660c05293909516608052600380546001600160801b03908116600160801b9482168502179091559081169481168202949094176004559083169290911602176005556001805460ff60a01b19169055610331565b600180546001600160a01b03191690556101fa816101fd565b50565b600080546001600160a01b03838116610100818102610100600160a81b0319851617855560405193049190911692909183917f8be0079c531659141344cd1fd0a4f28419497f9722a3daafe3b4186f6b6457e091a35050565b80516001600160a01b038116811461026d57600080fd5b919050565b80516001600160801b038116811461026d57600080fd5b60008060008060008060008060006101208a8c0312156102a857600080fd5b6102b18a610256565b98506102bf60208b01610256565b97506102cd60408b01610256565b96506102db60608b01610272565b95506102e960808b01610272565b94506102f760a08b01610272565b935061030560c08b01610272565b925061031360e08b01610272565b91506103226101008b01610256565b90509295985092959850929598565b60805160a05160c05161273e6103b4600039600081816102bc01528181610e2d015281816113a1015281816115c40152611c240152600081816103ae01528181610c2401528181610ffb0152611da8015260008181610353015281816107720152818161089f01528181611ddd01528181611e980152611efb015261273e6000f3fe608060405234801561001057600080fd5b50600436106102695760003560e01c8063958a4d8311610151578063c6a1d7eb116100c3578063db85776f11610087578063db85776f14610612578063e13ef79c14610625578063e30c397814610638578063e898e03d14610649578063f2fde38b1461065c578063ff8b1f491461066f57600080fd5b8063c6a1d7eb14610595578063c7a1fb36146105af578063c9da4d3a146105c1578063d39473a0146105d4578063d621fca71461060857600080fd5b8063a38b11e011610115578063a38b11e0146104b9578063a3bde6ac146104e2578063a43be57b146104f5578063a85b94a8146104fd578063b843f2aa14610517578063bfea5c481461051f57600080fd5b8063958a4d83146104545780639737b3b414610467578063996b41ec1461047a5780639fae28f61461049b578063a04c2f4a146104a357600080fd5b806347dbf8a6116101ea578063715018a6116101ae578063715018a6146103f957806379ba5097146104015780637ff9b596146104095780638456cb59146104235780638da5cb5b1461042b5780639106d7ba1461044157600080fd5b806347dbf8a6146103755780634aa730cc146103885780634b3fd05a146103a95780635c975abb146103d0578063611f64f9146103e657600080fd5b8063357d593611610231578063357d5936146102fe5780633b69d0db146103115780633eb6e846146103245780633f4ba83a1461034657806347aa4a4f1461034e57600080fd5b8063031728551461026e57806304c98b2b146102935780630cc834ad1461029d57806311eac855146102b75780631919366f146102f6575b600080fd5b610276610682565b6040516001600160801b0390911681526020015b60405180910390f35b61029b6106b4565b005b60035461027690600160801b90046001600160801b031681565b6102de7f000000000000000000000000000000000000000000000000000000000000000081565b6040516001600160a01b03909116815260200161028a565b61029b610714565b600454610276906001600160801b031681565b600554610276906001600160801b031681565b61032d61271081565b60405167ffffffffffffffff909116815260200161028a565b61029b610941565b6102de7f000000000000000000000000000000000000000000000000000000000000000081565b61029b61038336600461236a565b610953565b60015461039c90600160a01b900460ff1681565b60405161028a91906123b9565b6102de7f000000000000000000000000000000000000000000000000000000000000000081565b60005460ff16604051901515815260200161028a565b61029b6103f43660046123e1565b6109f2565b61029b610a6e565b61029b610a80565b60045461027690600160801b90046001600160801b031681565b61029b610ac9565b60005461010090046001600160a01b03166102de565b600354610276906001600160801b031681565b61029b6104623660046123fe565b610ad9565b61029b61047536600461242a565b610bbb565b61048d61048836600461245f565b610d09565b60405161028a92919061247b565b61029b610d58565b6104ab610e8f565b60405190815260200161028a565b6102766104c736600461249d565b6007602052600090815260409020546001600160801b031681565b61029b6104f036600461249d565b610ef7565b61029b610f70565b60055461027690600160801b90046001600160801b031681565b61029b610fd3565b61056661052d36600461242a565b600860205260009081526040902080546001909101546001600160a01b03909116906001600160801b0380821691600160801b90041683565b604080516001600160a01b0390941684526001600160801b03928316602085015291169082015260600161028a565b60065461027690600160801b90046001600160801b031681565b6104ab6a01a784379d99db4200000081565b600654610276906001600160801b031681565b6102766105e23660046124b8565b60096020908152600092835260408084209091529082529020546001600160801b031681565b61032d620f424081565b61027661062036600461249d565b611097565b6002546102de906001600160a01b031681565b6001546001600160a01b03166102de565b61029b61065736600461236a565b611110565b61029b61066a36600461249d565b6111a3565b61027661067d3660046123e1565b61121a565b6003546000906106af906106aa906001600160801b03166a01a784379d99db42000000612501565b611257565b905090565b6106bc61128f565b6001805460ff60a01b1916600160a01b90811791829055900460ff1660028111156106e9576106e96123a3565b6040517fa4d397a859dd375479a828cc3838355d5ad6660ba0b7f138d0ad2082dcb60f6990600090a2565b61071c6112c2565b6002600154600160a01b900460ff16600281111561073c5761073c6123a3565b1461075a5760405163e658e1e360e01b815260040160405180910390fd5b604051635dd6e49d60e11b81523360048201526000907f00000000000000000000000000000000000000000000000000000000000000006001600160a01b03169063bbadc93a90602401606060405180830381865afa1580156107c1573d6000803e3d6000fd5b505050506040513d601f19601f820116820180604052508101906107e59190612526565b5190506001600160801b03811660000361081257604051630f7ae6ad60e01b815260040160405180910390fd5b33600081815260076020908152604080832080546001600160801b031916905551919260089284926108459291016125a4565b60408051601f198184030181529181528151602092830120835290820192909252810160002060010180546001600160801b03938416600160801b02931692909217909155516335ec87e160e21b81526001600160a01b037f0000000000000000000000000000000000000000000000000000000000000000169063d7b21f84906108d6903390859060040161247b565b600060405180830381600087803b1580156108f057600080fd5b505af1158015610904573d6000803e3d6000fd5b50506040516001600160801b03841692503391507fc50115017ac2d43479a0476a6b3c0f8a2e6a1c3ca1629e8e1b009af16f6ed48b90600090a350565b61094961128f565b6109516112e6565b565b61095b61128f565b806001600160801b0316826001600160801b03161061098d57604051630e2c544560e11b815260040160405180910390fd5b600380546001600160801b03808516600160801b810292821692909217909255600480549284166001600160801b031993909316831790556040517f836e7102ea6e98a1553846122447ae1085d4138a7289c2f5a71cf8c5e215130b90600090a35050565b6109fa61128f565b806001600160801b0316600003610a24576040516309380ced60e21b815260040160405180910390fd5b600480546001600160801b03808416600160801b810291909216179091556040517f69bd318c97538d456ca1f858c2a4ac406a4c6df8a5a3f280754e78d3683f145290600090a250565b610a7661128f565b6109516000611338565b60015433906001600160a01b03168114610abd5760405163118cdaa760e01b81526001600160a01b03821660048201526024015b60405180910390fd5b610ac681611338565b50565b610ad161128f565b610951611351565b610ae16112c2565b60018054600160a01b900460ff166002811115610b0057610b006123a3565b14610b1d576040516279bba360e31b815260040160405180910390fd5b600080808080610b2e33888861138e565b94509450945094509450846001600160801b0316826001600160801b0316610b533390565b604080516001600160801b03808a168252881660208201529081018a9052606081018590526001600160a01b0391909116907f3f782848657d79cfbe98fe739dc49346b3ac3be60aea3f0c419cf76d5f4366949060800160405180910390a450505050505050565b610bc361128f565b6002600154600160a01b900460ff166002811115610be357610be36123a3565b14610c015760405163e658e1e360e01b815260040160405180910390fd5b80600003610c22576040516314de9dc960e11b815260040160405180910390fd5b7f00000000000000000000000000000000000000000000000000000000000000006001600160a01b031663a9059cbb610c696000546001600160a01b036101009091041690565b6040516001600160e01b031960e084901b1681526001600160a01b039091166004820152602481018490526044016020604051808303816000875af1158015610cb6573d6000803e3d6000fd5b505050506040513d601f19601f82011682018060405250810190610cda91906125c1565b5060405181907f876085ad2d6a5785501ca680b9b66a8376c2827633849fe004a6466d4fa63f2790600090a250565b600a6020528160005260406000208181548110610d2557600080fd5b6000918252602090912060029091020180546001909101546001600160a01b0390911692506001600160801b0316905082565b610d606112c2565b600033604051602001610d7391906125a4565b60408051601f1981840301815291815281516020928301206000818152600890935290822060018101546006805493955091936001600160801b0391821693849392610dc1918591166125e3565b82546001600160801b039182166101009390930a9283029190920219909116179055506001820180546001600160801b031916905581546001600160a01b03163314610e2057604051632cb7c1dd60e01b815260040160405180910390fd5b610e546001600160a01b037f0000000000000000000000000000000000000000000000000000000000000000163383611f8a565b6040516001600160801b0382169033907f5983193f44a16a3c2ede43327b268c93292973ff758233ece1976cdedc88ab2890600090a3505050565b336000818152600760205260408120549091906001600160801b03168203610eca57604051630f7ae6ad60e01b815260040160405180910390fd5b33604051602001610edb91906125a4565b6040516020818303038152906040528051906020012091505090565b610eff61128f565b6001600160a01b038116610f2657604051634bae762960e11b815260040160405180910390fd5b600280546001600160a01b0319166001600160a01b0383169081179091556040517f5f61c2fcf799cfe49b3c4fdf15f5ad2e9790a435c124dc01a29e6f6119dca33190600090a250565b610f7861128f565b6001805460ff60a01b1916600160a11b1790819055600160a01b900460ff166002811115610fa857610fa86123a3565b6040517fe473905949e3324e75801f68d13e761c536c0cbea4c63bcc54e970a12f648fe790600090a2565b610fdb61128f565b60405163140e25ad60e31b81526a01a784379d99db4200000060048201527f00000000000000000000000000000000000000000000000000000000000000006001600160a01b03169063a0712d6890602401600060405180830381600087803b15801561104757600080fd5b505af115801561105b573d6000803e3d6000fd5b50506040516a01a784379d99db4200000092507f57d0e1c3ff2bd8d2158d4d9a209a0250c912f7bf5fb0e941f1a9f8731bb6ff889150600090a2565b600080826040516020016110ab91906125a4565b60408051601f198184030181529181528151602092830120600081815260088452828120600101546001600160a01b038816825260079094529190912054909250611109916001600160801b03600160801b90910481169116612602565b9392505050565b61111861128f565b6127106001600160801b03831610158061113d57506127106001600160801b03821610155b1561115b576040516305570de160e41b815260040160405180910390fd5b6001600160801b03828116600160801b91831691820281176005556040517f121981fd06cbfa7f30a9b45307e1ed44f36fa4f65ac9d75e992e61dff099597490600090a35050565b6111ab61128f565b600180546001600160a01b0383166001600160a01b031990911681179091556111e26000546001600160a01b036101009091041690565b6001600160a01b03167f38d16b8cac22d99fc7c124b9cd0de2d3fa1faef420bfe791d8c362d765e2270060405160405180910390a350565b600454600090600160801b90046001600160801b0316611247836c0c9f2c9cd04674edea40000000612621565b6112519190612660565b92915050565b60006001600160801b0382111561128b576040516306dfcc6560e41b81526080600482015260248101839052604401610ab4565b5090565b6000546001600160a01b036101009091041633146109515760405163118cdaa760e01b8152336004820152602401610ab4565b60005460ff16156109515760405163d93c066560e01b815260040160405180910390fd5b6112ee611fee565b6000805460ff191690557f5db9ee0a495bf2e6ff9c91a7834c1ba4fdd244a5e8aa4e537bd38aeae4b073aa335b6040516001600160a01b03909116815260200160405180910390a1565b600180546001600160a01b0319169055610ac681612011565b6113596112c2565b6000805460ff191660011790557f62e78cea01bee320cd4e420270b5ea74000d11b0c9f74754ebdbfc544b05a25861131b3390565b6000808080806113d26001600160a01b037f00000000000000000000000000000000000000000000000000000000000000001689306001600160801b038b1661206a565b6113db8761121a565b6003549095506001600160801b03600160801b9091048116908616101561141557604051630acb5cd960e41b815260040160405180910390fd5b600061141f610682565b90506000816001600160801b031660000361144d5760405163b2d3a13160e01b815260040160405180910390fd5b816001600160801b0316876001600160801b0316106114f757600454919650869160009061149a906106aa906001600160801b0380871691620f424091600160801b9091041660016120a9565b90506114a6818b6125e3565b915088156114f5576005546000906114d090600160801b90046001600160801b0316612710612602565b90506114f16106aa6001600160801b038b81169061271090851660016120a9565b9850505b505b6004546001600160a01b038b166000908152600760205260409020546001600160801b039182169161152b918a9116612602565b6001600160801b031611156115a8576001600160a01b038a1660009081526007602052604090205460045461156c916001600160801b0390811691166125e3565b60045490975061159b906106aa906001600160801b03808b1691620f424091600160801b9091041660016120a9565b6115a5908a6125e3565b90505b6115b2818a6125e3565b98508893506115f46001600160a01b037f0000000000000000000000000000000000000000000000000000000000000000168b6001600160801b038416611f8a565b60008815611bcc5750600088815260086020526040902080546001600160a01b0316908161163557604051632cb7c1dd60e01b815260040160405180910390fd5b8b6001600160a01b0316826001600160a01b0316036116675760405163ca55bc8b60e01b815260040160405180910390fd5b600554611689906106aa906001600160801b038e8116911661271060006120a9565b6005549098506116b5906106aa906001600160801b038c811691600160801b90041661271060006120a9565b96506001600160801b0384166116cb888b612602565b6001600160801b031611156116e7576116e489856125e3565b96505b600680548991906000906117059084906001600160801b0316612602565b92506101000a8154816001600160801b0302191690836001600160801b03160217905550878160010160008282829054906101000a90046001600160801b031661174f9190612602565b92506101000a8154816001600160801b0302191690836001600160801b03160217905550868160010160108282829054906101000a90046001600160801b03166117999190612602565b82546001600160801b039182166101009390930a9283029190920219909116179055506001600160a01b0382166000908152600a602052604081205490036118b157600a6000836001600160a01b03166001600160a01b0316815260200190815260200160002060405180604001604052808e6001600160a01b031681526020018d6001600160801b0316815250908060018154018082558091505060019003906000526020600020906002020160009091909190915060008201518160000160006101000a8154816001600160a01b0302191690836001600160a01b0316021790555060208201518160010160006101000a8154816001600160801b0302191690836001600160801b031602179055505050611bca565b8b6001600160a01b0316600a6000846001600160a01b03166001600160a01b0316815260200190815260200160002060096000856001600160a01b03166001600160a01b0316815260200190815260200160002060008f6001600160a01b03166001600160a01b0316815260200190815260200160002060009054906101000a90046001600160801b03166001600160801b0316815481106119555761195561268e565b60009182526020909120600290910201546001600160a01b031614611adf57600a6000836001600160a01b03166001600160a01b031681526020019081526020016000208054905060096000846001600160a01b03166001600160a01b0316815260200190815260200160002060008e6001600160a01b03166001600160a01b0316815260200190815260200160002060006101000a8154816001600160801b0302191690836001600160801b03160217905550600a6000836001600160a01b03166001600160a01b0316815260200190815260200160002060405180604001604052808e6001600160a01b031681526020018d6001600160801b0316815250908060018154018082558091505060019003906000526020600020906002020160009091909190915060008201518160000160006101000a8154816001600160a01b0302191690836001600160a01b0316021790555060208201518160010160006101000a8154816001600160801b0302191690836001600160801b031602179055505050611bca565b8a600a6000846001600160a01b03166001600160a01b0316815260200190815260200160002060096000856001600160a01b03166001600160a01b0316815260200190815260200160002060008f6001600160a01b03166001600160a01b0316815260200190815260200160002060009054906101000a90046001600160801b03166001600160801b031681548110611b7a57611b7a61268e565b6000918252602082206001600290920201018054909190611ba59084906001600160801b0316612602565b92506101000a8154816001600160801b0302191690836001600160801b031602179055505b505b6000611bd8888c6125e3565b905080600660108282829054906101000a90046001600160801b0316611bfe9190612602565b92506101000a8154816001600160801b0302191690836001600160801b031602179055507f00000000000000000000000000000000000000000000000000000000000000006001600160a01b031663a9059cbb600260009054906101000a90046001600160a01b0316836040518363ffffffff1660e01b8152600401611c8592919061247b565b6020604051808303816000875af1158015611ca4573d6000803e3d6000fd5b505050506040513d601f19601f82011682018060405250810190611cc891906125c1565b506001600160a01b038c16600090815260076020526040812080548b9290611cfa9084906001600160801b0316612602565b92506101000a8154816001600160801b0302191690836001600160801b031602179055506000878a611d2c9190612602565b600380549192508291600090611d4c9084906001600160801b0316612602565b92506101000a8154816001600160801b0302191690836001600160801b03160217905550611d78610e8f565b6000818152600860205260409081902080546001600160a01b031916331790555163095ea7b360e01b81529096507f00000000000000000000000000000000000000000000000000000000000000006001600160a01b03169063095ea7b390611e07907f000000000000000000000000000000000000000000000000000000000000000090859060040161247b565b6020604051808303816000875af1158015611e26573d6000803e3d6000fd5b505050506040513d601f19601f82011682018060405250810190611e4a91906125c1565b506001600160a01b03831615611ef95760405163e825bba960e01b81526001600160a01b038e811660048301526001600160801b03808d16602484015285821660448401528a1660648301527f0000000000000000000000000000000000000000000000000000000000000000169063e825bba990608401600060405180830381600087803b158015611edc57600080fd5b505af1158015611ef0573d6000803e3d6000fd5b50505050611f7a565b7f00000000000000000000000000000000000000000000000000000000000000006001600160a01b03166370458d858e836040518363ffffffff1660e01b8152600401611f4792919061247b565b600060405180830381600087803b158015611f6157600080fd5b505af1158015611f75573d6000803e3d6000fd5b505050505b5050505050939792965093509350565b6040516001600160a01b03838116602483015260448201839052611fe991859182169063a9059cbb906064015b604051602081830303815290604052915060e01b6020820180516001600160e01b0383818316178352505050506120fa565b505050565b60005460ff1661095157604051638dfc202b60e01b815260040160405180910390fd5b600080546001600160a01b03838116610100818102610100600160a81b0319851617855560405193049190911692909183917f8be0079c531659141344cd1fd0a4f28419497f9722a3daafe3b4186f6b6457e091a35050565b6040516001600160a01b0384811660248301528381166044830152606482018390526120a39186918216906323b872dd90608401611fb7565b50505050565b6000806120b786868661215d565b90506120c283612221565b80156120de5750600084806120d9576120d961264a565b868809115b156120f1576120ee6001826126a4565b90505b95945050505050565b600061210f6001600160a01b0384168361224e565b9050805160001415801561213457508080602001905181019061213291906125c1565b155b15611fe957604051635274afe760e01b81526001600160a01b0384166004820152602401610ab4565b60008383028160001985870982811083820303915050806000036121945783828161218a5761218a61264a565b0492505050611109565b8084116121b45760405163227bc15360e01b815260040160405180910390fd5b6000848688096000868103871696879004966002600389028118808a02820302808a02820302808a02820302808a02820302808a02820302808a02909103029181900381900460010186841190950394909402919094039290920491909117919091029150509392505050565b60006002826003811115612237576122376123a3565b61224191906126b7565b60ff166001149050919050565b60606111098383600084600080856001600160a01b0316848660405161227491906126d9565b60006040518083038185875af1925050503d80600081146122b1576040519150601f19603f3d011682016040523d82523d6000602084013e6122b6565b606091505b50915091506122c68683836122d0565b9695505050505050565b6060826122e5576122e08261232c565b611109565b81511580156122fc57506001600160a01b0384163b155b1561232557604051639996b31560e01b81526001600160a01b0385166004820152602401610ab4565b5080611109565b80511561233c5780518082602001fd5b604051630a12f52160e11b815260040160405180910390fd5b6001600160801b0381168114610ac657600080fd5b6000806040838503121561237d57600080fd5b823561238881612355565b9150602083013561239881612355565b809150509250929050565b634e487b7160e01b600052602160045260246000fd5b60208101600383106123db57634e487b7160e01b600052602160045260246000fd5b91905290565b6000602082840312156123f357600080fd5b813561110981612355565b6000806040838503121561241157600080fd5b823561241c81612355565b946020939093013593505050565b60006020828403121561243c57600080fd5b5035919050565b80356001600160a01b038116811461245a57600080fd5b919050565b6000806040838503121561247257600080fd5b61241c83612443565b6001600160a01b039290921682526001600160801b0316602082015260400190565b6000602082840312156124af57600080fd5b61110982612443565b600080604083850312156124cb57600080fd5b6124d483612443565b91506124e260208401612443565b90509250929050565b634e487b7160e01b600052601160045260246000fd5b81810381811115611251576112516124eb565b8051600f81900b811461245a57600080fd5b6000606082840312801561253957600080fd5b506040516060810167ffffffffffffffff8111828210171561256b57634e487b7160e01b600052604160045260246000fd5b604052825161257981612355565b815261258760208401612514565b602082015261259860408401612514565b60408201529392505050565b60609190911b6bffffffffffffffffffffffff1916815260140190565b6000602082840312156125d357600080fd5b8151801515811461110957600080fd5b6001600160801b038281168282160390811115611251576112516124eb565b6001600160801b038181168382160190811115611251576112516124eb565b6001600160801b038181168382160290811690818114612643576126436124eb565b5092915050565b634e487b7160e01b600052601260045260246000fd5b60006001600160801b038316806126795761267961264a565b806001600160801b0384160491505092915050565b634e487b7160e01b600052603260045260246000fd5b80820180821115611251576112516124eb565b600060ff8316806126ca576126ca61264a565b8060ff84160691505092915050565b6000825160005b818110156126fa57602081860181015185830152016126e0565b50600092019182525091905056fea2646970667358221220023eb2cef011e68bbb453e5186d4713a6d90bd39204b8595a3289178b054618064736f6c634300081a003300000000000000000000000019d4b337b77b04256668679159e0b78a42fb0a1a000000000000000000000000af88d065e77c8cc2239327c5edb3a432268e5831000000000000000000000000184f397a215c9458264d5b2498f86ed7b048aa360000000000000000000000000000000000000000000000000de0b6b3a764000000000000000000000000000000000000000000000001a784379d99db420000000000000000000000000000000000000000000000000000000b1a2bc2ec50000000000000000000000000000000000000000000000000000000000000000001f400000000000000000000000000000000000000000000000000000000000001f4000000000000000000000000b7ecbd7262a9250a44eaa040a2b2a184536f3861",
        "nonce": "0x1c",
        "chainId": "0xa4b1"
      },
      "additionalContracts": [],
      "isFixedGasLimit": false
    },
    {
      "hash": "0x7ae3ac54065f8d09401ed91ff014411ba86ebc6e7aada1cebef8e622b5e9378c",
      "transactionType": "CALL",
      "contractName": "SafeToken",
      "contractAddress": "0x19d4b337b77b04256668679159e0b78a42fb0a1a",
      "function": "grantRole(bytes32,address)",
      "arguments": [
        "0x3c11d16cbaffd01df69ce1c404f6340ee057498f5f00246190ea54220576a848",
        "0x3e88e60894D081B27D180fcADd524365A3DE7Dd4"
      ],
      "transaction": {
        "from": "0x3e88e60894d081b27d180fcadd524365a3de7dd4",
        "to": "0x19d4b337b77b04256668679159e0b78a42fb0a1a",
        "gas": "0x312d5",
        "value": "0x0",
        "input": "0x2f2ff15d3c11d16cbaffd01df69ce1c404f6340ee057498f5f00246190ea54220576a8480000000000000000000000003e88e60894d081b27d180fcadd524365a3de7dd4",
        "nonce": "0x1d",
        "chainId": "0xa4b1"
      },
      "additionalContracts": [],
      "isFixedGasLimit": false
    },
    {
      "hash": "0x7d1480514e5eccca3855dd2a918ae153d6eb77d64f81250fc5dcad2ddfb6a6b2",
      "transactionType": "CALL",
      "contractName": "SafeToken",
      "contractAddress": "0x19d4b337b77b04256668679159e0b78a42fb0a1a",
      "function": "burn(address,uint256)",
      "arguments": [
        "0xe32C731F4c9423E397385a0183f6EB6aBE712dB9",
        "2000000000000000000000000"
      ],
      "transaction": {
        "from": "0x3e88e60894d081b27d180fcadd524365a3de7dd4",
        "to": "0x19d4b337b77b04256668679159e0b78a42fb0a1a",
        "gas": "0xac49",
        "value": "0x0",
        "input": "0x9dc29fac000000000000000000000000e32c731f4c9423e397385a0183f6eb6abe712db900000000000000000000000000000000000000000001a784379d99db42000000",
        "nonce": "0x1e",
        "chainId": "0xa4b1"
      },
      "additionalContracts": [],
      "isFixedGasLimit": false
    },
    {
      "hash": "0xfc0b1542cb08e61c32070a5084b0ce95ac8c8bf5853ebcf784779f052e6893f1",
      "transactionType": "CALL",
      "contractName": "SafeToken",
      "contractAddress": "0x19d4b337b77b04256668679159e0b78a42fb0a1a",
      "function": "renounceRole(bytes32,address)",
      "arguments": [
        "0x3c11d16cbaffd01df69ce1c404f6340ee057498f5f00246190ea54220576a848",
        "0x3e88e60894D081B27D180fcADd524365A3DE7Dd4"
      ],
      "transaction": {
        "from": "0x3e88e60894d081b27d180fcadd524365a3de7dd4",
        "to": "0x19d4b337b77b04256668679159e0b78a42fb0a1a",
        "gas": "0x28ac5",
        "value": "0x0",
        "input": "0x36568abe3c11d16cbaffd01df69ce1c404f6340ee057498f5f00246190ea54220576a8480000000000000000000000003e88e60894d081b27d180fcadd524365a3de7dd4",
        "nonce": "0x1f",
        "chainId": "0xa4b1"
      },
      "additionalContracts": [],
      "isFixedGasLimit": false
    },
    {
      "hash": "0x139e5713bbbe9b5fda6c367b3539db8c5078fd38eed4b3e245c2bc898b1df08b",
      "transactionType": "CALL",
      "contractName": "SafeToken",
      "contractAddress": "0x19d4b337b77b04256668679159e0b78a42fb0a1a",
      "function": "setAllocationLimit(address,uint256)",
      "arguments": [
        "0x63Aa64bB6dEA0FeE2C6A7503EA950Ce39D5BBE7C",
        "2000000000000000000000000"
      ],
      "transaction": {
        "from": "0x3e88e60894d081b27d180fcadd524365a3de7dd4",
        "to": "0x19d4b337b77b04256668679159e0b78a42fb0a1a",
        "gas": "0x19668",
        "value": "0x0",
        "input": "0x6f1e9c6800000000000000000000000063aa64bb6dea0fee2c6a7503ea950ce39d5bbe7c00000000000000000000000000000000000000000001a784379d99db42000000",
        "nonce": "0x20",
        "chainId": "0xa4b1"
      },
      "additionalContracts": [],
      "isFixedGasLimit": false
    },
    {
      "hash": "0xa096a98451d12c92d1929efd2cbd322b79b27fbbe2dfcc6bf3b7388b91977346",
      "transactionType": "CALL",
      "contractName": "SafeYieldPresale",
      "contractAddress": "0x63aa64bb6dea0fee2c6a7503ea950ce39d5bbe7c",
      "function": "mintPreSaleAllocation()",
      "arguments": [],
      "transaction": {
        "from": "0x3e88e60894d081b27d180fcadd524365a3de7dd4",
        "to": "0x63aa64bb6dea0fee2c6a7503ea950ce39d5bbe7c",
        "gas": "0x1d723",
        "value": "0x0",
        "input": "0xb843f2aa",
        "nonce": "0x21",
        "chainId": "0xa4b1"
      },
      "additionalContracts": [],
      "isFixedGasLimit": false
    },
    {
      "hash": "0xfbe7d1c27635e5ab587e16f2c12ac50362d0579bf05c913ac5de06058e392ad9",
      "transactionType": "CALL",
      "contractName": null,
      "contractAddress": "0x184f397a215c9458264d5b2498f86ed7b048aa36",
      "function": "setPresale(address)",
      "arguments": [
        "0x63Aa64bB6dEA0FeE2C6A7503EA950Ce39D5BBE7C"
      ],
      "transaction": {
        "from": "0x3e88e60894d081b27d180fcadd524365a3de7dd4",
        "to": "0x184f397a215c9458264d5b2498f86ed7b048aa36",
        "gas": "0x25507",
        "value": "0x0",
        "input": "0xd5fcc7b600000000000000000000000063aa64bb6dea0fee2c6a7503ea950ce39d5bbe7c",
        "nonce": "0x22",
        "chainId": "0xa4b1"
      },
      "additionalContracts": [],
      "isFixedGasLimit": false
    },
    {
      "hash": "0x7619767f4255f76c2e84fcb9b183564524947571880db17a5c505fd4a07788ca",
      "transactionType": "CALL",
      "contractName": "SafeYieldPresale",
      "contractAddress": "0x63aa64bb6dea0fee2c6a7503ea950ce39d5bbe7c",
      "function": "startPresale()",
      "arguments": [],
      "transaction": {
        "from": "0x3e88e60894d081b27d180fcadd524365a3de7dd4",
        "to": "0x63aa64bb6dea0fee2c6a7503ea950ce39d5bbe7c",
        "gas": "0x1d723",
        "value": "0x0",
        "input": "0x04c98b2b",
        "nonce": "0x23",
        "chainId": "0xa4b1"
      },
      "additionalContracts": [],
      "isFixedGasLimit": false
    }
  ],
  "receipts": [
    {
      "status": "0x1",
      "cumulativeGasUsed": "0x13243",
      "logs": [
        {
          "address": "0xe32c731f4c9423e397385a0183f6eb6abe712db9",
          "topics": [
            "0x62e78cea01bee320cd4e420270b5ea74000d11b0c9f74754ebdbfc544b05a258"
          ],
          "data": "0x0000000000000000000000003e88e60894d081b27d180fcadd524365a3de7dd4",
          "blockHash": "0x6eb03e3114c80ad039992c09b6f6e0abdcbbb29d74eb2d3c8db03d5247e7d832",
          "blockNumber": "0xe2a4235",
          "transactionHash": "0x2b74a22cd861339a77865df2ec0ce822ad83bbd1aeee717d94faae34e7cba80f",
          "transactionIndex": "0x1",
          "logIndex": "0x0",
          "removed": false
        }
      ],
      "logsBloom": "0x00000000000000000000000000000000000000000000000000000000000000000000000000000000000000000000000000000000000000000000000000000000000000000000000000000000000000000000000000000400000000000000000000000000000000000000000000000000000000010000000000000000000002000000000000000000000008000000000000000000000000000000000000000000000000000000000000000000000000000000000000000000000000000000000000000000000000000000000000000000000000000000000000000000000000000000001000000000000000000000000000000000000000000000000008000000",
      "type": "0x2",
      "transactionHash": "0x2b74a22cd861339a77865df2ec0ce822ad83bbd1aeee717d94faae34e7cba80f",
      "transactionIndex": "0x1",
      "blockHash": "0x6eb03e3114c80ad039992c09b6f6e0abdcbbb29d74eb2d3c8db03d5247e7d832",
      "blockNumber": "0xe2a4235",
      "gasUsed": "0x13243",
      "effectiveGasPrice": "0x989680",
      "from": "0x3e88e60894d081b27d180fcadd524365a3de7dd4",
      "to": "0xe32c731f4c9423e397385a0183f6eb6abe712db9",
      "contractAddress": null,
      "gasUsedForL1": "0xc5b8",
      "l1BlockNumber": "0x1379569"
    },
    {
      "status": "0x1",
      "cumulativeGasUsed": "0x57c5bf",
      "logs": [
        {
          "address": "0x63aa64bb6dea0fee2c6a7503ea950ce39d5bbe7c",
          "topics": [
            "0x8be0079c531659141344cd1fd0a4f28419497f9722a3daafe3b4186f6b6457e0",
            "0x0000000000000000000000000000000000000000000000000000000000000000",
            "0x0000000000000000000000003e88e60894d081b27d180fcadd524365a3de7dd4"
          ],
          "data": "0x",
          "blockHash": "0xfcf78a0279f56668d5edc0a3a1502d1764f0f8da775112a4b27b2e6006c6a263",
          "blockNumber": "0xe2a423c",
          "transactionHash": "0xef3b812c0824a6f4336218ea809a9d2fbdfb482af04c3bd025ef196eed477ef1",
          "transactionIndex": "0x5",
          "logIndex": "0xb",
          "removed": false
        }
      ],
      "logsBloom": "0x00000000000000000000000000000000000000000000020008800000000000000000000000000000000000000000000000000000000001000000000000000000000000000000000000000000000000000001000000000000000000000000000000000000020000000000000000000800000000000000000000000000000000400000000000000000000000000000000000000000000000000000000000000010000000000000000000000000000000000000400000000000000000000000000000000000000000000000000000000000000000000000000000000000000020040000000000000000000000000000000000000000000000000000000000000000",
      "type": "0x2",
      "transactionHash": "0xef3b812c0824a6f4336218ea809a9d2fbdfb482af04c3bd025ef196eed477ef1",
      "transactionIndex": "0x5",
      "blockHash": "0xfcf78a0279f56668d5edc0a3a1502d1764f0f8da775112a4b27b2e6006c6a263",
      "blockNumber": "0xe2a423c",
      "gasUsed": "0x4b8c9c",
      "effectiveGasPrice": "0x989680",
      "from": "0x3e88e60894d081b27d180fcadd524365a3de7dd4",
      "to": null,
      "contractAddress": "0x63aa64bb6dea0fee2c6a7503ea950ce39d5bbe7c",
      "gasUsedForL1": "0x27ad18",
      "l1BlockNumber": "0x137956a"
    },
    {
      "status": "0x1",
      "cumulativeGasUsed": "0x31561",
      "logs": [
        {
          "address": "0x19d4b337b77b04256668679159e0b78a42fb0a1a",
          "topics": [
            "0x2f8788117e7eff1d82e926ec794901d17c78024a50270940304540a733656f0d",
            "0x3c11d16cbaffd01df69ce1c404f6340ee057498f5f00246190ea54220576a848",
            "0x0000000000000000000000003e88e60894d081b27d180fcadd524365a3de7dd4",
            "0x0000000000000000000000003e88e60894d081b27d180fcadd524365a3de7dd4"
          ],
          "data": "0x",
          "blockHash": "0x86ecf6e4b05c122b0a82c0d11257063b8c317aff1f5acfa6d670fb8670436125",
          "blockNumber": "0xe2a4242",
          "transactionHash": "0x7ae3ac54065f8d09401ed91ff014411ba86ebc6e7aada1cebef8e622b5e9378c",
          "transactionIndex": "0x2",
          "logIndex": "0x0",
          "removed": false
        }
      ],
      "logsBloom": "0x00000004000010000000000000000000000000000000020000000000000008000000000000000000000000200000000000000000000000000000000000000000000000000000000000000000000000000000000000000000000000000000000000000000000000000000000000000000000000000000000000000000000000000000000000000000000000000000000000000000000000000000000000000010000000000000000000000000000000000000400100004000001000000000000000040000000000000000000000000000000000000000000100000000000000000000000000000000000000000000000000000000000000000000000000000000",
      "type": "0x2",
      "transactionHash": "0x7ae3ac54065f8d09401ed91ff014411ba86ebc6e7aada1cebef8e622b5e9378c",
      "transactionIndex": "0x2",
      "blockHash": "0x86ecf6e4b05c122b0a82c0d11257063b8c317aff1f5acfa6d670fb8670436125",
      "blockNumber": "0xe2a4242",
      "gasUsed": "0x1fda1",
      "effectiveGasPrice": "0x989680",
      "from": "0x3e88e60894d081b27d180fcadd524365a3de7dd4",
      "to": "0x19d4b337b77b04256668679159e0b78a42fb0a1a",
      "contractAddress": null,
      "gasUsedForL1": "0x13483",
      "l1BlockNumber": "0x137956a"
    },
    {
      "status": "0x1",
      "cumulativeGasUsed": "0x2b1cb2",
      "logs": [
        {
          "address": "0x19d4b337b77b04256668679159e0b78a42fb0a1a",
          "topics": [
            "0xddf252ad1be2c89b69c2b068fc378daa952ba7f163c4a11628f55a4df523b3ef",
            "0x000000000000000000000000e32c731f4c9423e397385a0183f6eb6abe712db9",
            "0x0000000000000000000000000000000000000000000000000000000000000000"
          ],
          "data": "0x00000000000000000000000000000000000000000001a784379d99db42000000",
          "blockHash": "0xeb58fccf5b43fe9d85111fd86093594e8a517e743c023f9a0e7fe1afbe5dc248",
          "blockNumber": "0xe2a4248",
          "transactionHash": "0x7d1480514e5eccca3855dd2a918ae153d6eb77d64f81250fc5dcad2ddfb6a6b2",
          "transactionIndex": "0xa",
          "logIndex": "0x13",
          "removed": false
        }
      ],
      "logsBloom": "0x00000000000000000000000000000000000000000000000000000000000008000000000000000000000000200000000000000000000000000000000000000000000000000000000000000008000000000000000000800000000000000000000000000000020000000000000000000800000200000000000000000010000000000000000000000000000000000000000000000000000000000000000000000000000000000000000000000000000000000000000100000000000000000000000000000002000000000000000000000000000000200000000000000000000020000000000000000000000000000000000000000000000000000000000000000000",
      "type": "0x2",
      "transactionHash": "0x7d1480514e5eccca3855dd2a918ae153d6eb77d64f81250fc5dcad2ddfb6a6b2",
      "transactionIndex": "0xa",
      "blockHash": "0xeb58fccf5b43fe9d85111fd86093594e8a517e743c023f9a0e7fe1afbe5dc248",
      "blockNumber": "0xe2a4248",
      "gasUsed": "0x1b13f",
      "effectiveGasPrice": "0x989680",
      "from": "0x3e88e60894d081b27d180fcadd524365a3de7dd4",
      "to": "0x19d4b337b77b04256668679159e0b78a42fb0a1a",
      "contractAddress": null,
      "gasUsedForL1": "0x13483",
      "l1BlockNumber": "0x137956a"
    },
    {
      "status": "0x1",
      "cumulativeGasUsed": "0x58e58",
      "logs": [
        {
          "address": "0x19d4b337b77b04256668679159e0b78a42fb0a1a",
          "topics": [
            "0xf6391f5c32d9c69d2a47ea670b442974b53935d1edc7fd64eb21e047a839171b",
            "0x3c11d16cbaffd01df69ce1c404f6340ee057498f5f00246190ea54220576a848",
            "0x0000000000000000000000003e88e60894d081b27d180fcadd524365a3de7dd4",
            "0x0000000000000000000000003e88e60894d081b27d180fcadd524365a3de7dd4"
          ],
          "data": "0x",
          "blockHash": "0x6b0c8275209004f8bc3d504d2e2bdca7e3cb3939849a0e86e534bba8282e98fd",
          "blockNumber": "0xe2a424f",
          "transactionHash": "0xfc0b1542cb08e61c32070a5084b0ce95ac8c8bf5853ebcf784779f052e6893f1",
          "transactionIndex": "0x2",
          "logIndex": "0x5",
          "removed": false
        }
      ],
      "logsBloom": "0x00000000000010000000000000000000000000000000020000000000000008000000000000000000000000200000000000200000000000000000000000000000000000000000000000000000000000000000000000000000000000000000000040000000000000000000000000000000000000000000000000000000000000000000000040000000000000000000000000000000000000000000000000000010000000000000000000000000000000000000400100004000000000000000000000040000000000000000000000000000000000000000000000000000000000000000000000000000000000000000000000000000000000000000000000000000",
      "type": "0x2",
      "transactionHash": "0xfc0b1542cb08e61c32070a5084b0ce95ac8c8bf5853ebcf784779f052e6893f1",
      "transactionIndex": "0x2",
      "blockHash": "0x6b0c8275209004f8bc3d504d2e2bdca7e3cb3939849a0e86e534bba8282e98fd",
      "blockNumber": "0xe2a424f",
      "gasUsed": "0x19673",
      "effectiveGasPrice": "0x989680",
      "from": "0x3e88e60894d081b27d180fcadd524365a3de7dd4",
      "to": "0x19d4b337b77b04256668679159e0b78a42fb0a1a",
      "contractAddress": null,
      "gasUsedForL1": "0x13483",
      "l1BlockNumber": "0x137956a"
    },
    {
      "status": "0x1",
      "cumulativeGasUsed": "0x20edae",
      "logs": [
        {
          "address": "0x19d4b337b77b04256668679159e0b78a42fb0a1a",
          "topics": [
            "0x2f8788117e7eff1d82e926ec794901d17c78024a50270940304540a733656f0d",
            "0x9f2df0fed2c77648de5860a4cc508cd0818c85b8b8a1ab4ceeef8d981c8956a6",
            "0x00000000000000000000000063aa64bb6dea0fee2c6a7503ea950ce39d5bbe7c",
            "0x0000000000000000000000003e88e60894d081b27d180fcadd524365a3de7dd4"
          ],
          "data": "0x",
          "blockHash": "0xe29d0134a470370bf789bcd7565126c0fc4af4bde4c2d2c3f61723efb4e9d665",
          "blockNumber": "0xe2a4255",
          "transactionHash": "0x139e5713bbbe9b5fda6c367b3539db8c5078fd38eed4b3e245c2bc898b1df08b",
          "transactionIndex": "0x6",
          "logIndex": "0xd",
          "removed": false
        },
        {
          "address": "0x19d4b337b77b04256668679159e0b78a42fb0a1a",
          "topics": [
            "0xca264ab9b375861d5df13eb4e70496c8044fbc59c5638a90f2da8649f0e7698a",
            "0x00000000000000000000000063aa64bb6dea0fee2c6a7503ea950ce39d5bbe7c"
          ],
          "data": "0x00000000000000000000000000000000000000000001a784379d99db42000000",
          "blockHash": "0xe29d0134a470370bf789bcd7565126c0fc4af4bde4c2d2c3f61723efb4e9d665",
          "blockNumber": "0xe2a4255",
          "transactionHash": "0x139e5713bbbe9b5fda6c367b3539db8c5078fd38eed4b3e245c2bc898b1df08b",
          "transactionIndex": "0x6",
          "logIndex": "0xe",
          "removed": false
        }
      ],
      "logsBloom": "0x00000004000000000000000000000000000000000000020000000000000008000000000000000000000000200000004000000000000000000000000000000000000000000000000000000000004000000000000000000000000000000000000000000000000000000000000000000000000000000000000000000000001000000000000000000000000000000000000000000000000000000002000000000010000000100000000000000080000000000000400100000000001000000000000000000000000000000000000000000000001000000000000100000000000000000000000000000000000000000000000000000000000000000000240000000000",
      "type": "0x2",
      "transactionHash": "0x139e5713bbbe9b5fda6c367b3539db8c5078fd38eed4b3e245c2bc898b1df08b",
      "transactionIndex": "0x6",
      "blockHash": "0xe29d0134a470370bf789bcd7565126c0fc4af4bde4c2d2c3f61723efb4e9d665",
      "blockNumber": "0xe2a4255",
      "gasUsed": "0x25abf",
      "effectiveGasPrice": "0x989680",
      "from": "0x3e88e60894d081b27d180fcadd524365a3de7dd4",
      "to": "0x19d4b337b77b04256668679159e0b78a42fb0a1a",
      "contractAddress": null,
      "gasUsedForL1": "0x13483",
      "l1BlockNumber": "0x137956a"
    },
    {
      "status": "0x1",
      "cumulativeGasUsed": "0xcb421",
      "logs": [
        {
          "address": "0x19d4b337b77b04256668679159e0b78a42fb0a1a",
          "topics": [
            "0xddf252ad1be2c89b69c2b068fc378daa952ba7f163c4a11628f55a4df523b3ef",
            "0x0000000000000000000000000000000000000000000000000000000000000000",
            "0x00000000000000000000000063aa64bb6dea0fee2c6a7503ea950ce39d5bbe7c"
          ],
          "data": "0x00000000000000000000000000000000000000000001a784379d99db42000000",
          "blockHash": "0xae1a022158da3c13a30397e823dc5841f1d988896d3603690098b161b586299b",
          "blockNumber": "0xe2a425b",
          "transactionHash": "0xa096a98451d12c92d1929efd2cbd322b79b27fbbe2dfcc6bf3b7388b91977346",
          "transactionIndex": "0x4",
          "logIndex": "0x5",
          "removed": false
        },
        {
          "address": "0x63aa64bb6dea0fee2c6a7503ea950ce39d5bbe7c",
          "topics": [
            "0x57d0e1c3ff2bd8d2158d4d9a209a0250c912f7bf5fb0e941f1a9f8731bb6ff88",
            "0x00000000000000000000000000000000000000000001a784379d99db42000000"
          ],
          "data": "0x",
          "blockHash": "0xae1a022158da3c13a30397e823dc5841f1d988896d3603690098b161b586299b",
          "blockNumber": "0xe2a425b",
          "transactionHash": "0xa096a98451d12c92d1929efd2cbd322b79b27fbbe2dfcc6bf3b7388b91977346",
          "transactionIndex": "0x4",
          "logIndex": "0x6",
          "removed": false
        }
      ],
      "logsBloom": "0x00000000400000000000000000000000000000000000000008000000000008000000000000000000000000200000000000000000000081000000000000000000000000000000000000000008004000000000000000000000000000000000000000000000020000000000000000000800000001000000000000000010000000000000000000000000000000000000000000000020000000000002000000000800000000000000000000000000000000000000000100000000000000000000000000000002000000000000000000000000000000000000000000000000000020040000000000000000000000000000000000008000000000000000200000000000",
      "type": "0x2",
      "transactionHash": "0xa096a98451d12c92d1929efd2cbd322b79b27fbbe2dfcc6bf3b7388b91977346",
      "transactionIndex": "0x4",
      "blockHash": "0xae1a022158da3c13a30397e823dc5841f1d988896d3603690098b161b586299b",
      "blockNumber": "0xe2a425b",
      "gasUsed": "0x1b144",
      "effectiveGasPrice": "0x989680",
      "from": "0x3e88e60894d081b27d180fcadd524365a3de7dd4",
      "to": "0x63aa64bb6dea0fee2c6a7503ea950ce39d5bbe7c",
      "contractAddress": null,
      "gasUsedForL1": "0xc5b8",
      "l1BlockNumber": "0x137956a"
    },
    {
      "status": "0x1",
      "cumulativeGasUsed": "0x637e3",
      "logs": [
        {
          "address": "0x184f397a215c9458264d5b2498f86ed7b048aa36",
          "topics": [
            "0xb18b3dcffb4f0709b15fd073af710076e9afafb9c2bbfb6b1115e0d7cbbae73a",
            "0x00000000000000000000000063aa64bb6dea0fee2c6a7503ea950ce39d5bbe7c"
          ],
          "data": "0x",
          "blockHash": "0x4ca3eee321daf8bca2e5bb41ff09a548dd545718fef00662b4105a8e614b28b2",
          "blockNumber": "0xe2a4263",
          "transactionHash": "0xfbe7d1c27635e5ab587e16f2c12ac50362d0579bf05c913ac5de06058e392ad9",
          "transactionIndex": "0x2",
          "logIndex": "0x2",
          "removed": false
        }
      ],
      "logsBloom": "0x00000000000000000000000000000000000000000000000000000000000000000000000000000000020000000000800000000000000000000000000000000000000000000000000000004000004000000000000000080000000000000000000000000000000000000000000000000000000000000000000000000000000000000000020000000000000000000000000000000000000000000002000000000000000000000000000000000000000000000000000000000000000000000000000000000000000000000000000000000000000000000000000000000000000000000100000000000000000000000000000000000000000000000000200000000000",
      "type": "0x2",
      "transactionHash": "0xfbe7d1c27635e5ab587e16f2c12ac50362d0579bf05c913ac5de06058e392ad9",
      "transactionIndex": "0x2",
      "blockHash": "0x4ca3eee321daf8bca2e5bb41ff09a548dd545718fef00662b4105a8e614b28b2",
      "blockNumber": "0xe2a4263",
      "gasUsed": "0x1726a",
      "effectiveGasPrice": "0x989680",
      "from": "0x3e88e60894d081b27d180fcadd524365a3de7dd4",
      "to": "0x184f397a215c9458264d5b2498f86ed7b048aa36",
      "contractAddress": null,
      "gasUsedForL1": "0xfc43",
      "l1BlockNumber": "0x137956a"
    },
    {
      "status": "0x1",
      "cumulativeGasUsed": "0x6f9cd",
      "logs": [
        {
          "address": "0x63aa64bb6dea0fee2c6a7503ea950ce39d5bbe7c",
          "topics": [
            "0xa4d397a859dd375479a828cc3838355d5ad6660ba0b7f138d0ad2082dcb60f69",
            "0x0000000000000000000000000000000000000000000000000000000000000001"
          ],
          "data": "0x",
          "blockHash": "0xa564db935e341e9c6fb12e1cb547a6086c6dc4cdf3a366d27d6cc926132fd664",
          "blockNumber": "0xe2a4269",
          "transactionHash": "0x7619767f4255f76c2e84fcb9b183564524947571880db17a5c505fd4a07788ca",
          "transactionIndex": "0x2",
          "logIndex": "0x5",
          "removed": false
        }
      ],
      "logsBloom": "0x00000008000000000000000000000000000000000000000008000000000000000000000000000000000000000000000000000000000001000000000000040000000000000000000000000000000400000000000000040000000000000000000000000000000000000000000000000000000000000000000000000000000000000000000000000000000000000000000000000000000000000000000000000000000000000000000000000000000000000000000000000000000000000000000000000010000000000000000000000000000000000000000000000000000040040000000000000000000000000000000000000000000000000000000000000000",
      "type": "0x2",
      "transactionHash": "0x7619767f4255f76c2e84fcb9b183564524947571880db17a5c505fd4a07788ca",
      "transactionIndex": "0x2",
      "blockHash": "0xa564db935e341e9c6fb12e1cb547a6086c6dc4cdf3a366d27d6cc926132fd664",
      "blockNumber": "0xe2a4269",
      "gasUsed": "0x17c7a",
      "effectiveGasPrice": "0x989680",
      "from": "0x3e88e60894d081b27d180fcadd524365a3de7dd4",
      "to": "0x63aa64bb6dea0fee2c6a7503ea950ce39d5bbe7c",
      "contractAddress": null,
      "gasUsedForL1": "0xc5b8",
      "l1BlockNumber": "0x137956a"
    }
  ],
  "libraries": [],
  "pending": [],
  "returns": {},
  "timestamp": 1722349501,
  "chain": 42161,
  "commit": "56048e6"
}